:100000000C9423020C944B020C944B020C944B0264
:100010000C944B020C944B020C944B020C944B022C
:100020000C944B020C944B020C944B020C944B021C
:100030000C944B020C944B020C944B020C944B020C
:100040000C94DD040C944B020C94BF030C949903A4
:100050000C944B020C944B020C944B020C944B02EC
:100060000C944B020C944B024F1057105F1067100A
:100070006F107810C2107F10881091109810A11086
:10008000A910B110BA10C210CA10D410DF10B005F8
:10009000B705BE05C605CD05D405DC05E405EC05B0
:1000A000F40507634236B79BD8A71A39685618AECD
:1000B000BAAB558C1D3CB7CC5763BD6DEDFD753E9D
:1000C000F6177231BF000000803F05A84CCDB2D4B6
:1000D0004EB93836A9020C50B9918688083CA6AAB8
:1000E000AA2ABE000000803F08000000BE922449FA
:1000F000123EABAAAA2ABECDCCCC4C3E000000805A
:10010000BEABAAAAAA3E00000000BF000000803FCC
:100110000000000000084178D3BB4387D1133D198C
:100120000E3CC3BD4282AD2B3E68EC8276BED98FB9
:10013000E1A93E4C80EFFFBE01C4FF7F3F000000FD
:1001400000001866666624243C18183C7E6666E744
:10015000E71800000000240027002A00000000002B
:10016000250028002B0000000000230026002900A5
:10017000040404040404040402020202020203034D
:100180000303030301020408102040800102040855
:1001900010200102040810200000000800020100E5
:1001A000000304070000000000000000FF1FFE0F16
:1001B0002C3CC42A326D625D125B125B635D356D4F
:1001C000CB2A3E3CFE0FFF1FFE33FC08F01D8802C9
:1001D0007415FB2AF97EFB2A74158802F01DFC08B1
:1001E000FE330000030000800200008004007880DD
:1001F000080084801000FE8061007D001300FDE691
:100200004600FEFF2D00F4E77F0CD29E9F1E79EF83
:10021000B319E983D370E93AEFB0693FAFE179836D
:100220001B735987FD3159831B73793BAFE1E93E5D
:10023000EFF0E983D37069EFB319D99E9D1EF2EFF9
:100240007C0CE4FF2D00F8E74600E00093000080FE
:1002500061000080100000800800008004000000A1
:100260000500000000000000004F0000000700072C
:1002700000147F147F14242A7F2A12231308646237
:1002800036495522500005030000001C22410000A1
:1002900041221C0014083E081408083E08080050BB
:1002A00030000008080808080060600000201008FE
:1002B00004023E5149453E00427F4000426151499F
:1002C000462141454B311814127F102745454539C9
:1002D0003C4A494930017109050336494949360606
:1002E0004949291E00363600000056360000081421
:1002F0002241001414141414004122140802015164
:100300000906324979413E7E1111117E7F494949E2
:10031000363E414141227F4141221C7F49494941AA
:100320007F090909013E4149497A7F0808087F0091
:10033000417F41002040413F017F081422417F401E
:100340004040407F020C027F7F0408107F3E414105
:10035000413E7F090909063E4151215E7F09192965
:1003600046464949493101017F01013F4040403F34
:100370001F2040201F3F4038403F6314081463078C
:10038000087008076151494543007F41410002045C
:100390000810200041417F00040201020440404057
:1003A0004040000102040020545454787F484444E3
:1003B000383844444420384444487F38545454180E
:1003C000087E0901020C5252523E7F080404780054
:1003D000447D40002040443D007F102844000041FF
:1003E0007F40007C041804787C0804047838444476
:1003F00044387C14141408081414187C7C08040471
:10040000084854545420043F4440203C4040207C41
:100410001C2040201C3C4030403C44281028440C08
:100420005050503C4464544C440008364100000095
:100430007F0000004136080008082A1C08081C2A12
:1004400008087217641711241FBECFEFD8E0DEBF73
:10045000CDBF23E0A0E2B1E001C01D92AD30B207F4
:10046000E1F711E0A0E0B1E0EAE6FBE302C00590AD
:100470000D92A032B107D9F712E0C2E2D2E004C077
:100480002197FE010E94C117C132D107C9F70E940E
:10049000A2090C94A81D0C940000CF92DF92EF9259
:1004A000FF920F931F93CF93DF936C017A018B011F
:1004B000C0E0D0E0CE15DF0589F0D8016D918D0147
:1004C000D601ED91FC910190F081E02DC6010995D6
:1004D000892B11F47E0102C02196ECCFC701DF9178
:1004E000CF911F910F91FF90EF90DF90CF900895E3
:1004F000FC01918D828D981761F0828DDF01A80F2C
:10050000B11D5D968C91928D9F5F9F73928F90E04D
:1005100008958FEF9FEF0895FC01918D828D9817BC
:1005200031F0828DE80FF11D858D90E008958FEFF9
:100530009FEF0895FC01918D228D892F90E0805CC2
:100540009F4F821B91098F739927089585E492E04C
:100550000E949A0221E0892B09F420E0822F08955D
:10056000FC01848DDF01A80FB11DA35ABF4F2C9150
:10057000848D90E001968F739927848FA689B7891F
:100580002C93A089B1898C9180648C93938D848DF8
:10059000981306C00288F389E02D80818F7D8083C7
:1005A0000895EF92FF920F931F93CF93DF93EC0187
:1005B00081E0888F9B8D8C8D981305C0E889F9891F
:1005C000808185FD24C0F62E0B8D10E00F5F1F4F3C
:1005D0000F731127E02E8C8DE8120CC00FB607FCAC
:1005E000FACFE889F989808185FFF5CFCE010E9495
:1005F000B002F1CF8B8DFE01E80FF11DE35AFF4FE2
:10060000F0820B8FEA89FB898081806207C0EE89C6
:10061000FF896083E889F98980818064808381E033
:1006200090E0DF91CF911F910F91FF90EF9008958F
:10063000CF93DF93EC01888D8823C9F0EA89FB8989
:10064000808185FD05C0A889B9898C9186FD0FC080
:100650000FB607FCF5CF808185FFF2CFA889B98955
:100660008C9185FFEDCFCE010E94B002E7CFDF91E4
:10067000CF91089580E090E0892B29F00E94A60296
:1006800081110C9400000895833081F028F48130AA
:1006900099F08230A1F008958730A9F08830B9F040
:1006A0008430D1F4809180008F7D03C080918000E0
:1006B0008F7780938000089584B58F7702C084B5CA
:1006C0008F7D84BD08958091B0008F7703C08091A5
:1006D000B0008F7D8093B00008953FB7F89480916B
:1006E0003E0290913F02A0914002B091410226B596
:1006F000A89B05C02F3F19F00196A11DB11D3FBF5A
:10070000BA2FA92F982F8827820F911DA11DB11DE7
:10071000BC01CD0142E0660F771F881F991F4A95E3
:10072000D1F708950E94E41C009711F00E944C1C20
:1007300008951F920F920FB60F9211242F933F939B
:100740004F935F936F937F938F939F93AF93BF93D9
:10075000EF93FF9385E492E00E94B002FF91EF9146
:10076000BF91AF919F918F917F916F915F914F91C9
:100770003F912F910F900FBE0F901F9018951F92D1
:100780000F920FB60F9211242F938F939F93EF9395
:10079000FF93E0915502F09156028081E0915B0257
:1007A000F0915C0282FD12C0908180915E028F5FA9
:1007B0008F7320915F02821751F0E0915E02F0E0AA
:1007C000EB5BFD4F958F80935E0201C08081FF91AE
:1007D000EF919F918F912F910F900FBE0F901F90CF
:1007E0001895CF93DF93282F30E0F901E856FE4F9C
:1007F0008491F901EC57FE4FD491F901E059FE4F75
:10080000C491CC2391F081110E944403EC2FF0E0BD
:10081000EE0FFF1FEA59FE4FA591B491EC91ED2325
:1008200081E090E021F480E002C080E090E0DF9180
:10083000CF9108951F93CF93DF93282F30E0F901D4
:10084000E856FE4F8491F901EC57FE4FD491F9011F
:10085000E059FE4FC491CC23C9F0162F81110E949C
:100860004403EC2FF0E0EE0FFF1FE45AFE4FA5917A
:10087000B4918FB7F894111105C09C91ED2FE095BC
:10088000E92302C0EC91ED2BEC938FBFDF91CF9168
:100890001F910895CF93DF9390E0FC01EC57FE4F3A
:1008A0002491FC01E059FE4F8491882361F190E08E
:1008B000880F991FFC01EE5AFE4FC591D491FC019F
:1008C000E45AFE4FA591B491611109C09FB7F89405
:1008D0008881209582238883EC912E230BC062307F
:1008E00061F49FB7F8943881822F809583238883A1
:1008F000EC912E2B2C939FBF06C08FB7F894E88104
:100900002E2B28838FBFDF91CF9108958E3008F072
:100910008E5087702091000190E4299F900111244E
:10092000822B80937C0080917A00806480937A008F
:1009300080917A0086FDFCCF80917800209179002B
:1009400090E0922B08958F929F92AF92BF92CF9298
:10095000DF92EF92FF926B017C010E946D034B01CD
:100960005C01C114D104E104F104F1F00E946D03B3
:10097000DC01CB0188199909AA09BB09883E93407B
:10098000A105B10570F321E0C21AD108E108F10810
:1009900088EE880E83E0981EA11CB11CC114D104FE
:1009A000E104F10419F7DDCFFF90EF90DF90CF90D5
:1009B000BF90AF909F908F9008951F920F920FB6A7
:1009C0000F9211242F933F938F939F93AF93BF93D5
:1009D00080913A0290913B02A0913C02B0913D027D
:1009E0003091390223E0230F2D3720F40196A11D09
:1009F000B11D05C026E8230F0296A11DB11D20934D
:100A0000390280933A0290933B02A0933C02B09348
:100A10003D0280913E0290913F02A0914002B09130
:100A200041020196A11DB11D80933E0290933F02A9
:100A3000A0934002B0934102BF91AF919F918F91DB
:100A40003F912F910F900FBE0F901F901895CF934D
:100A5000DF93C2EED2E084E190E09A8F898F8FE23B
:100A600090E09C8F8B8F0E946B09898D9A8D0A96DE
:100A70009A8F898F82E491E00E942909898D9A8D4D
:100A800003969A8F898F8AE491E00E942909898DC3
:100A90009A8D0A969A8F898FDF91CF910C94F208E4
:100AA000E2EEF2E081E0808F26853785448555852A
:100AB00060E070E080E090E00E94AA070C941008CB
:100AC000E2EEF2E0108E268537854485558560E09C
:100AD00070E080E090E00E94AA070C941008E7E321
:100AE000F2E080912701805D808311828BE191E0AB
:100AF0000E948D0887E392E00C948D0881E080933A
:100B000025019AE090932001109221011092220178
:100B100021E030E0309324012093230180932601CB
:100B200008958091250187FF03C081958093250159
:100B300080912501880F84300CF083E0809325019B
:100B4000E09127018E2FEE0F990BAA0BBB0B8A3079
:100B5000910508F052C0FC01E95BFF4F0C94C117EE
:100B600084E1809320011092220181E044C08AE058
:100B7000809320011092220183E03DC085E08093A4
:100B8000200183E08093220186E035C085E08093D8
:100B900020018093220188E02EC086E0809320010E
:100BA0008093220189E027C08AE08093200189E0B8
:100BB000809322018BE01FC085E0809320018BE0B1
:100BC000809322018DE017C085E0809320018DE0A5
:100BD000809322018EE00FC085E0809320018EE09B
:100BE0008093220181E107C085E08093200181E1AB
:100BF0008093220183E180932101809123019091D0
:100C00002401880F991F8132910514F080E290E051
:100C100090932401809323010895CF92DF92EF9265
:100C2000FF920F931F93CF93DF931F92CDB7DEB741
:100C30008C016B01FC01808149830E948604F801CC
:100C4000A281B381119660E070E0E0E0F0E020E086
:100C500049818617970774F0EA0FFB1F7F01EE0C9E
:100C6000FF1CE11434E0F30614F02F5FF4506F5FC3
:100C70007F4FEFCFF80194814923422340954223CF
:100C8000F6014083F80124830F90DF91CF911F91EB
:100C90000F91FF90EF90DF90CF900895EF92FF9229
:100CA0000F931F93CF93DF93EC017B018A0188851B
:100CB00099850E9494038A859B850E949403F982FA
:100CC000E8821B830A83C801079697FD07969C015B
:100CD00043E0359527954A95E1F7E29EC001E39EF2
:100CE000900DF29E900D11249F838E838C01095FDD
:100CF0001F4F17FF02C0095F1F4F23E0159507958F
:100D00002A95E1F71D830C831816190624F40E9416
:100D1000B71B99878887101611062CF4C8010E940A
:100D2000B71B9B878A8780E090E02E813F818217E6
:100D300093073CF4E885F985E80FF91F10820196C6
:100D4000F4CF80E090E02C813D81821793073CF442
:100D5000EA85FB85E80FF91F10820196F4CFDF9139
:100D6000CF911F910F91FF90EF90089597FD62C072
:100D70002091EE023091EF02821793070CF05AC0D7
:100D800077FD58C04091F0025091F1026417750749
:100D90000CF050C0FB0153E0F595E7955A95E1F74B
:100DA000E29FA001E39F500DF29F500D1124840F8C
:100DB000951FE091F602F091F702E80FF91F4081CC
:100DC0002091FA0267707727222341F021E030E07A
:100DD00001C0220F6A95EAF7242B08C021E030E019
:100DE00001C0220F6A95EAF7209524232083E09121
:100DF000F602F091F702E80FF91F20812417D1F0D5
:100E00009C0143E0359527954A95E1F7E091F8027A
:100E1000F091F902E20FF31F8770992721E030E08B
:100E2000A90102C0440F551F8A95E2F7CA019081BB
:100E3000892B80830895CF92DF92EF92FF920F93D8
:100E40001F93CF93DF936C0100E010E0C0E0D0E08F
:100E50007601E00EF11EF701249130E00C2E02C065
:100E6000359527950A94E2F720FF0CC06091FD02AA
:100E70007091FE026C0F7D1F8091FB029091FC022D
:100E80000E94B6062196C830D10529F78091FB0251
:100E90009091FC0201969093FC028093FB020F5FFD
:100EA0001F4F0530110591F6DF91CF911F910F91E2
:100EB000FF90EF90DF90CF900895811107C061E01F
:100EC0008091E5020E941A0460E006C060E0809113
:100ED000E5020E941A0461E08091E6020C941A0473
:100EE0001F93CF93DF93162FC2EED2E0682F888135
:100EF0000E941A04612F70E02BB1CB01880F991F5B
:100F0000880F991F922F9370892B8BB985B146E07A
:100F1000759567954A95E1F78C7F682B65B961E017
:100F20008A810E941A0460E08A81DF91CF911F912B
:100F30000C941A0461E0809142020E941A0480918C
:100F400043020E94F103892BD1F760E080914202B5
:100F50000C941A042F923F924F925F926F927F925D
:100F60008F929F92AF92BF92CF92DF92EF92FF92B9
:100F70000F931F93CF93DF934B017A018A0184175C
:100F800095070CF48C01E901C819D909219622248E
:100F900033242C1A3D0AE016F10604F11C161D0636
:100FA00024F044244A94542C03C044244394512CE8
:100FB0003E01D7FD31015401C12CD12CC614D704F8
:100FC00051F0B501C8010E94B606A40CB51C8FEF04
:100FD000C81AD80AF3CF0F5F1F4FDDCFDF91CF9133
:100FE0001F910F91FF90EF90DF90CF90BF90AF9047
:100FF0009F908F907F906F905F904F903F902F9039
:101000000895CF93C62F8F73682F606480E00E948D
:1010100070076C2F6770686B80E0CF910C9470073D
:101020005F926F927F928F929F92AF92BF92CF9278
:10103000DF92EF92FF920F931F93CF93DF93C12C18
:10104000D12CC0E0EE24E394F12C8C2F81700E940F
:101050005D07512CA12CB12C85010C0D1D1DD0E07C
:10106000380183E0759467948A95E1F7480187E039
:1010700088229924E091EC02F091ED02E60DF71D33
:10108000208130E0082C02C0359527950A94E2F7BC
:1010900020FF1DC0652D8D2F0E940108E091EA02FE
:1010A000F091EB02E00FF11F608181E00E94700778
:1010B000E091EC02F091ED02E60DF71D970101C001
:1010C000220F8A94EAF720958081282320830F5FDE
:1010D0001F4FDF5FD03421F680E8A80EB11C539477
:1010E00088E05812B9CFCF5FC17080E4C80ED11C20
:1010F00080E8C816D10409F0A8CFDF91CF911F91E5
:101100000F91FF90EF90DF90CF90BF90AF909F90A6
:101110008F907F906F905F9008951F93CF93DF9390
:10112000EC0115E029912223F1F080EE820F803648
:1011300018F088EA92E00AC030E020523109129F8C
:10114000C001139F900D11248E599D4F0E941B07C3
:101150002091FB023091FC022F5F3F4F3093FC0245
:101160002093FB02DFCFDF91CF911F9108950F9362
:101170001F93CF93DF9302EE11E0C0E0D0E0F801BF
:1011800085919591A591B4910C2E04C0B695A79523
:10119000979587950A94D2F780FF0CC06091FD0265
:1011A0007091FE026C0F7D1F8091FB029091FC02FA
:1011B0000E94B6062196C032D10509F78091FB0244
:1011C0009091FC0201969093FC028093FB020C5FCD
:1011D0001F4F82E00236180781F6DF91CF911F91F1
:1011E0000F9108950F931F93CF93DF9308EC11E0B5
:1011F000C0E0D0E0F801859194910C2E02C0969544
:1012000087950A94E2F780FF0CC06091FD0270910F
:10121000FE026C0F7D1F8091FB029091FC020E94E8
:10122000B6062196C031D10529F78091FB02909135
:10123000FC0201969093FC028093FB020E5F1F4F0D
:1012400081E0023E1807A1F6DF91CF911F910F9127
:101250000895CF92DF92EF92FF920F931F93CF9357
:10126000DF936C0100E010E0C0E0D0E07601E00E1A
:10127000F11EF701249130E00C2E02C03595279520
:101280000A94E2F720FF0CC06091FD027091FE020B
:101290006C0F7D1F8091FB029091FC020E94B606AC
:1012A0002196C830D10529F78091FB029091FC026C
:1012B00001969093FC028093FB020F5F1F4F083052
:1012C000110591F6DF91CF911F910F91FF90EF9053
:1012D000DF90CF9008950F931F93CF93DF930CEA85
:1012E00011E0C0E0D0E0F801859194910C2E02C08D
:1012F000969587950A94E2F780FF0CC06091FD02F5
:101300007091FE026C0F7D1F8091FB029091FC0298
:101310000E94B6062196C031D10529F78091FB02C3
:101320009091FC0201969093FC028093FB020E5F69
:101330001F4F81E0083C1807A1F6DF91CF911F9164
:101340000F910895CF93DF93CDB7DEB76A970FB6AD
:10135000F894DEBF0FBECDBF789484B5826084BDA3
:1013600084B5816084BD85B5826085BD85B58160A9
:1013700085BD80916E00816080936E001092810027
:1013800080918100826080938100809181008160E2
:1013900080938100809180008160809380008091A3
:1013A000B10084608093B1008091B000816080932F
:1013B000B00080917A00846080937A0080917A00F6
:1013C000826080937A0080917A00816080937A00B5
:1013D00080917A00806880937A001092C1005CE06E
:1013E00059834BE04A833AE03B8321E12C8390E12F
:1013F0009D838FE08E835093E2024093E30230930B
:10140000E4022093E5029093E6028093E70280E8ED
:101410008093E80280E48093E90261E08CE00E941E
:101420004A0461E08091E3020E944A0461E08091F5
:10143000E4020E944A0461E08091E5020E944A04AD
:1014400061E08091E6020E944A0461E08091E70237
:101450000E944A048AB18C6F8AB984B1836084B9CE
:1014600060E08091E2020E941A0460E08091E30251
:101470000E941A0460E08091E4020E941A0460E075
:101480008091E5020E941A0460E08091E6020E94C9
:101490001A0461E08091E7020E941A046EE170E094
:1014A00080E090E00E94A30461E08091E5020E9448
:1014B0001A0460E08091E6020E941A0460EC80E069
:1014C0000E9470076FE380E00E94700781E00E9435
:1014D0005D0760EC80E00E9470076FE380E00E948F
:1014E000700711E0EE24E394812F81708E250E9415
:1014F0005D0700E0602F80E00E940108A0E4FA2E62
:1015000060E081E00E947007FA94F110F9CF0F5F5C
:10151000083081F7123011F012E0E6CF60E080E091
:101520000E94010840E450E060E870E08EEE92E036
:101530000E944E068091F6029091F7029093EB0282
:101540008093EA028091F8029091F9029093ED0263
:101550008093EC028EE0809342028DE08093430200
:1015600061E08EE00E944A0460E08DE00E944A043F
:1015700060E08EE00E941A04E0915502F09156025C
:101580001083E0915102F09152021082E0915302D7
:10159000F091540287E6808310925D02E091590237
:1015A000F0915A0286E08083E0915702F091580250
:1015B000808180618083E0915702F09158028081A0
:1015C00088608083E0915702F091580280818068A2
:1015D0008083E0915702F091580280818F7D808353
:1015E00024E0209304032093050381E0809300010D
:1015F0008091060390910703E4E0880F991FEA9514
:10160000E1F70197909307038093060385E08093A9
:10161000FF02209300038091010390910203F4E004
:10162000880F991FFA95E1F7019790930203809331
:10163000010385E00E948604BC01990F880B990B79
:10164000611571058105910511F00E943C1D8DE029
:10165000809315028FE08093120288E080939801B6
:101660008093970183E0809393018093950181E0BB
:101670008093940180939201809325018093960139
:101680009AE09093200180930F0221E030E03093A4
:101690002401209323019CE090930A0210920B02F4
:1016A00010920C02109221011092220180932801C5
:1016B000109227018093260110921D0217E0F090EE
:1016C000270178E0E72EEF140CF0CBC080912601C3
:1016D000823009F0C6C00E9450051092FA0286E1DD
:1016E00090E09093FC028093FB022CE1C22ED12C5F
:1016F000D092FE02C092FD0287E480931E0231E682
:10170000E32EE0921F029DE69093200285E68093EF
:10171000210200E20093220223E4209323024FE6F9
:10172000B42EB09224029093250250E7952E909209
:1017300026026CE6A62EA09227028093280294E748
:101740009093290280932A0281E280932B021092C7
:101750002C028EE192E00E948D080E94100860ED3C
:1017600077E080E090E00E94A3040E945005109270
:10177000FA021092FC021092FB02D092FE02C0927A
:10178000FD0284E580931E0288E680931F02E092AA
:1017900020028EE6809321029BE690932202009322
:1017A000230299E790932402B092250225E7209323
:1017B00026020093270226E620932802B0922902EF
:1017C00022E720932A0200932B0290922C02A092EF
:1017D0002D02E0922E0290932F0299E69093300210
:1017E0008093310287E680933202109233028EE1B9
:1017F00092E00E948D082AE0F21204C01092FA02D0
:101800000E9427050E94100868E873E180E090E0DC
:101810000E94A3043AE0F3121DC00E94600581E01B
:101820008093FA0282E390E09093FC028093FB02A3
:101830008AE090E09093FE028093FD020E94B70838
:101840000E94100868E873E180E090E00E94A30421
:101850000E9450050E947E0580911D028160809348
:101860001D0280912601813009F019C10E94600596
:101870000E947E05E9E0DE2EFAE0CF2EFF24F394ED
:10188000A3E2BA2EB2E4AB2E05E7902E8CE6E82E4A
:1018900005E69AE0692E712C44E06CE172E08FEF6E
:1018A00092E00E940D0640E06BE172E084E093E07C
:1018B0000E940D0680911B0280FF12C080912701BB
:1018C0008F5F809327018A304CF080911D0280FF4A
:1018D00003C0C092270102C0D09227010E94600578
:1018E00080911B0283FF0CC080912701815087FDEE
:1018F00003C08093270102C0109227010E94600557
:1019000080911C02982F947083FF27C080911B0246
:10191000282F2670263071F4992361F00E9450051B
:101920000E94600580911D0280FF02C08E7F12C060
:10193000816010C08970893081F49923D1F10E94AF
:1019400050050E94600580911D0281FF02C08D7FBD
:1019500001C0826080931D029FCF992351F11092A4
:101960001A0200911A0280912701402F50E0282F7F
:10197000082E000C330B4217530734F40E949105D4
:101980000F5F00931A02EDCF8A3009F088C083E020
:101990008093250128E730E0309324012093230130
:1019A0008093220184E18093210185E080932001CE
:1019B00076C0F092FA021092FC021092FB02109292
:1019C000FE021092FD02B0921E02A0921F0290929F
:1019D0002002E0922102E09222020093230274E7A7
:1019E000872E80922402109225028EE192E00E94BE
:1019F0008D087092FC026092FB0244E150E050932B
:101A0000FE024093FD028CE480931E0200931F02AD
:101A100086E78093200200932102E092220280E276
:101A20008093230283E58093240200932502E092B1
:101A300026020093270283E68093280280922902DF
:101A400010922A028EE192E00E948D08F092FA0232
:101A50006EE170E07093FC026093FB027093FE02F3
:101A60006093FD020E946F05F092FA020E94270522
:101A700080911D0281FF10C0F092FA028AE590E089
:101A80009093FC028093FB02A5E0B0E0B093FE02CD
:101A9000A093FD020E94B7080E941008FDCE80911D
:101AA0002601823039F4809127018F5F80932701CE
:101AB0000E94910580E09FE7189FF0011124EF55E7
:101AC000FE4F908311821282138214821582168235
:101AD0008F5F8F3089F780E09FE7189FF001112416
:101AE000E75DFE4F90831182128213821482158269
:101AF00016828F5F8F3089F780931A021092190235
:101B000010921802109217021092160220911502DC
:101B10008091EE029091EF02821B91099093140242
:101B200080931302809112022091F0023091F10211
:101B3000281B3109032E000C440B550B12161306FB
:101B4000140615066CF42D8B3E8B4F8B588F0E941C
:101B5000371D2D893E894F89588D0E94451D03C030
:101B600060E070E0CB0170931102609310028091ED
:101B7000230180930F0210920E0210920D02109218
:101B800026010E94600581E08093FA02EEE1F0E018
:101B9000F093FC02E093FB028CE190E09093FE0254
:101BA0008093FD020E946F050E9410086CED75E0A5
:101BB00080E090E00E94A3040E94600580912701CC
:101BC000817887FF03C081508E6F8F5F8823F9F083
:101BD0008130E9F582E480931E028FE580931F0235
:101BE00091E4909320028093210283E38093220268
:101BF0008EE28093230287E78093240281E680931C
:101C0000250286E7809326021092270220C09EE4D8
:101C100090931E028FE580931F022FE420932002F1
:101C200080932102909322028093230281E3809388
:101C300024028EE28093250287E78093260281E6C4
:101C40008093270286E7809328021092290281E080
:101C5000809344020E949A0761E085E492E00E942A
:101C6000D10261E085E492E00E94D102EEE1F2E06F
:101C700001900020E9F73197AF014E5152406EE1DB
:101C800072E085E492E00E944D0260E085E492E01B
:101C90000E94D1020E949A0762E085E492E00E94CD
:101CA000D102809143020E94F103892BD1F38091EC
:101CB0004402823019F022242394A6C18091430269
:101CC0000E94F103892BD1F7F6CF1092FA02E0902F
:101CD0001002F090110280911302909114029093DF
:101CE000FC028093FB02F092FE02E092FD020E9451
:101CF000F20880911502C090EE02D090EF02C81A4F
:101D0000D108D0921402C092130280912501E80EEE
:101D1000F11C87FDFA94F0921102E0921002F7FE96
:101D200003C0819580932501209112028091F002D9
:101D30009091F102821B91098E159F052CF48091E0
:101D400025018195809325012092FA02D092FC0210
:101D5000C092FB02F092FE02E092FD020E94F208A5
:101D60000E9410081092FA0260910C02062E000CDC
:101D7000770B80910B02082E000C990B70900A02D1
:101D80009B012F5F3F4FAC01470D511D77FC5A95CA
:101D90000E94AA070FEF0C0D00930B028BEF8E0D24
:101DA00080930C022092FA02E82E880FFF08670148
:101DB000FFEFCF1ADF0A602F002E000C770B880B85
:101DC000990B0E94DE184B015C01672D770C770B95
:101DD000880B990B0E94DE182B013C0160910F02C9
:101DE000062E000C770B880B990B0E94DE18698772
:101DF0007A878B879C876091230170912401072E3D
:101E0000000C880B990B0E94DE189B01AC016985C0
:101E10007A858B859C850E9434189B01AC01C30197
:101E2000B2010E946A199B01AC01C501B4010E9474
:101E3000C8170E94A6189601AB01B701802F000FAA
:101E4000990B0E94AA070E94100880910D02882316
:101E500009F4E8C010921A02E0901A02EF862E2DC3
:101E60002F3008F4D1C11092FA02C0901602D0901F
:101E70001702E0901802F0901902F092FC02E09232
:101E8000FB02D092FE02C092FD020E946B0940E06C
:101E90006CE172E08FEF92E00E940D0640E06BE192
:101EA00072E084E093E00E940D0620911C02809174
:101EB0001B0223FF71C480FF07C032E0C31AD108A0
:101EC000D0921702C092160283FF0AC040911602F8
:101ED000509117024E5F5F4F5093170240931602C6
:101EE00082FF07C042E0E40EF11CF0921902E0927A
:101EF000180281FF09C0809118029091190202977F
:101F0000909319028093180222FD6CC480911802EC
:101F10009091190297FF04C01092190210921802B2
:101F200080911502682E712C8091EE029091EF0243
:101F30008619970920911802309119028217930788
:101F400024F49093190280931802809116029091C4
:101F5000170297FF04C01092170210921602809188
:101F60001202482E512C8091F0029091F1028419B6
:101F7000950920911602309117028217930724F4D5
:101F800090931702809316022092FA028091160213
:101F90009091170220911802309119023093FC029F
:101FA0002093FB029093FE028093FD020E946B0936
:101FB0000E94100810921A02F0901A02FD862F2D2E
:101FC0002F3008F43BC4009126010111A6C561E041
:101FD00070E080E090E00E94A30480910D028F5F8A
:101FE00080930D0290912001981710F410920D0229
:101FF00080910E028F5F80930E02909128019817B6
:1020000008F063CE10920E0263E0362E5ECE91E0B1
:10201000980F189FF0011124EF55FE4F20812F37A4
:1020200021F0892F8F3099F715CF80931A022091D4
:102030002101822F90E0A0E0B0E0E0912201CE2EBD
:10204000D12CE12CF12CC816D906EA06FB06DCF4EB
:102050009C01AD012C193D094E095F0969F02D8BDA
:102060003E8B4F8B588F0E94371D2D893E894F899B
:10207000588D0E94451D03C060E070E0CB01C60E84
:10208000D71EE81EF91E80911A0223E1C216D10460
:1020900008F09EC0F601EC5CFF4F0C94C117189F2E
:1020A000F0011124EF55FE4F31E0308398C0189FA6
:1020B000F0011124EF55FE4F41E040830EC0189F00
:1020C000F0011124EF55FE4F51E050830EC0189FD0
:1020D000F0011124EF55FE4F3082118381C0189F0B
:1020E000F0011124EF55FE4F308298E0918378C0C3
:1020F000189FF0011124EF55FE4F308270C0189FD9
:10210000F0011124EF55FE4F30826BE0618368C00F
:10211000189FF0011124EF55FE4F30827CE071834F
:102120005FC0189FF0011124EF55FE4F9DE006C0DF
:10213000189FF0011124EF55FE4F91E0908396E037
:10214000D5CF189FF0011124EF55FE4F30829EE04D
:10215000CDCF189FF0011124EF55FE4F30829FE044
:10216000C5CF189FF0011124EF55FE4F3082ACE02F
:10217000A18336C0189FF0011124EF55FE4FB5E042
:10218000B0832DC0189FF0011124EF55FE4F30820F
:102190009AE0ACCF189FF0011124EF55FE4F30822A
:1021A0005BE0E52EE1821CC0189FF0011124EF5581
:1021B000FE4F45E0F42EF0822CE0218311C0189FE1
:1021C000F0011124EF55FE4F30823CE0318308C00E
:1021D000189FF0011124EF55FE4F44E04083118217
:1021E000189FF0011124EF55FE4F12822091130227
:1021F000238380911202869590911002890F84505A
:1022000084832583868326CEFF84EF2CF12CFA86E7
:10221000E9861E9DC0011F9D900D11249C012F5524
:102220003E4F7901D9011596BC91BD87B093A001AD
:10223000F90180818F3709F4AAC2811102C083811C
:1022400097C0813041F48281982F990F890F938133
:10225000981B892F8DC0833031F4F9019281990F39
:10226000990F838184C08430E9F50281602F002EAC
:10227000000C770B880B990B0E94DE180E94271A1E
:102280002B013C01F7016381062E000C770B880BB4
:10229000990B0E94DE184B015C01F4E00F02B001C3
:1022A0001124072E000C880B990B0E94DE186B017D
:1022B0007C0120E030E040E85FE3C301B2010E940E
:1022C000C81720E030E040EE50E40E946A199B01FC
:1022D000AC01C701B6010E94C8179B01AC01C50142
:1022E000B40139C08530F1F56281062E000C770B00
:1022F000880B990B0E94DE184B015C0120E030E056
:1023000040E85EE30E946A190E94271A2B013C01F3
:10231000F7016381062E000C770B880B990B0E9446
:10232000DE186B017C0120E030E040E85FE3C30190
:10233000B2010E94C8179B01AC01C501B4010E9403
:102340006A199B01AC01C501B4010E94C8179B0129
:10235000AC01C701B6010E94C7170E94A61860937E
:102360009F0108C08D3031F49281990F8381891BC0
:1023700080939F01E0909F01E98AE984FA841E9D81
:10238000C0011F9D900D11249C012F553E4F7901D6
:10239000E989D9011596EC93159716960C91169725
:1023A00000939E0111968C911197802E002E000CA7
:1023B00099082D85022E000C330B3E872D87811145
:1023C00003C014968C910DC0813071F4D701129620
:1023D0008C911297982F990F890F14969C91981BA6
:1023E000892F80939D0185C1863071F4F701628148
:1023F000062E000C770B880B990B0E94DE1820E04C
:1024000030E040E05FE316C1873001F5F7016481F9
:10241000062E000C770B880B990B0E94DE182B01FF
:102420003C01D70112966C91062E000C770B880B9D
:10243000990B0E94DE182AE939E949E95EE30E9416
:102440006A199B01AC01C301B2014DC1883001F58D
:10245000F7016481062E000C770B880B990B0E9404
:10246000DE182B013C01D70112966C91062E000C50
:10247000770B880B990B0E94DE182AE939E949E9A4
:102480005EE30E946A199B01AC01C301B201F0C076
:102490008A3031F5F7016281062E000C770B880B2C
:1024A000990B0E94DE189B01AC016AE979E989E980
:1024B0009FE30E94D7199B01AC01D70114966C9140
:1024C000062E000C770B880B990B2D8B3E8B4F8BB8
:1024D000588F0E94DE182D893E894F89588DC8C0BB
:1024E0008B3031F5F7016281062E000C770B880BDB
:1024F000990B0E94DE189B01AC016AE979E989E930
:102500009FE30E94D7199B01AC01D70114966C91EF
:10251000062E000C770B880B990B2D8B3E8B4F8B67
:10252000588F0E94DE182D893E894F89588DDBC057
:102530008C3009F070C06091160270911702681912
:102540007909072E000C880B990B0E94DE182B01CD
:102550003C016091180270911902ED85FE856E1B99
:102560007F0B072E000C880B990B0E94DE189B0135
:10257000AC01C301B2010E9434182B013C0177FA6F
:10258000709477F870944092990150929A016092F9
:102590009B0170929C01602F002E000C770B880B22
:1025A000990B0E94DE185B016C01D70112966C91A9
:1025B000062E000C770B880B990B0E94DE189B01EE
:1025C000AC01C301B2010E946A199B01AC01C601B2
:1025D000B5010E94C8170E94A618862F062E000C6F
:1025E000990B8819990902971CF460939D0104C006
:1025F00081E0800F80939D0180919D01082E000C49
:10260000990B881999098F3F9F4F0CF072C00150A8
:1026100000939D016EC08E3071F5F7016281062E28
:10262000000C770B880B990B0E94DE1820E030E03D
:1026300040E85EE30E946A190E94271A2B013C01C0
:10264000D70114966C91062E000C770B880B990B12
:102650000E94DE186B017C0120E030E040EA50E48B
:10266000C301B2010E946A199B01AC01C701B60106
:102670000E94C7173AC08F30E1F5E984FA841E9DA5
:10268000C0011F9D900D11249C012F553E4F7901D3
:10269000D90112966C91062E000C770B880B990BC2
:1026A0000E94DE1820E030E040E85EE30E946A19F4
:1026B0000E94271A2B013C01F7016481062E000CB1
:1026C000770B880B990B0E94DE186B017C0120E0D0
:1026D00030E040E251E4C301B2010E946A199B015B
:1026E000AC01C701B6010E94C8170E94A6186093EA
:1026F0009D01E0909D0129853A85129FC001139F9D
:10270000900D1124AC014F555E4F5A01DA01169617
:10271000EC921092FA02ED85FE85F093FC02E093B4
:10272000FB029092FE028092FD028AE491E00E94F8
:102730002909F988CF2CFF0CDD088091980136011A
:10274000680E711C77FC7EC38091EE029091EF02BF
:10275000C816D9060CF076C30E2C000CFF08809129
:1027600097012701480E511C57FC6CC38091F00261
:102770009091F102E816F9060CF064C3D5011296A7
:102780009C9195360CF47EC2EFE7D501EC938F85D2
:102790008F5F80931A0260CB80FF07C054E0C51A98
:1027A000D108D0921702C092160283FF0AC040914E
:1027B0001602509117024C5F5F4F509317024093DF
:1027C000160282FF07C064E0E60EF11CF0921902C7
:1027D000E092180281FF98CB809118029091190223
:1027E00004978ECB80910E02811190CB8F3019F11E
:1027F00091E0980F189FF0011124E75DFE4F2081B2
:102800002F37B9F480931A0289E0808311821282F3
:102810002091180280911502280F238380911202C3
:10282000869590911602890F845084832583868330
:102830006DCB892FDBCF80931A0268CB7D85C72EA5
:10284000D12C1C9DF0011D9DF00D1124E75DFE4F64
:1028500090819F3709F45CC185818093A00191111B
:1028600002C093810EC0923021F422819381920F95
:1028700008C0993041F422819381AAE02A9F900DEB
:10288000112490939F0100919F011C9DF0011D9DBB
:10289000F00D1124E75DFE4F0583468140939E01B4
:1028A0009181911103C0948190939D0180909D012D
:1028B0001C9D90011D9D300D1124F901E75DFE4F17
:1028C0007F0186821092FA02082E000C990B9093D9
:1028D000FC028093FB02042E000C550B5093FE0269
:1028E0004093FD0282E491E00E942909A02E000F8E
:1028F000BB08809198019501280F311D3A8B298BD7
:1029000037FDADC28091EE029091EF02A816B90694
:102910000CF0A5C2082C000C990880919701A40125
:10292000480F511D588B4F8757FD99C28091F00277
:102930009091F102881699060CF091C2D701129677
:102940008C9112978F5F12968C932092FA02B0921C
:10295000FC02A092FB029092FE028092FD0282E4B1
:1029600091E00E9429090E94100860919501E62FCC
:10297000F0E0FA8FE98FEA0DFB1D80911302909130
:1029800014022091940130E07C01E20EF31EFA86DD
:10299000E986EE16FF060CF06CC2AC01460D571D21
:1029A000421B530BE417F5070CF063C240919301EF
:1029B0007401E40EF11C4091100250911102A0919B
:1029C0009201B0E0BA016A0F7B1F6E157F050CF013
:1029D00050C2440D551D4A1B5B0B01E0E416F50681
:1029E0000CF047C269897A89A98DBA8D6A1B7B0B65
:1029F000E984FA84E616F7060CF03DC2AC01460DF8
:102A0000571D421B530B641775070CF034C24091DD
:102A10009301D401A40FB11DBC8BAB8BE0901002CD
:102A2000F0901102FA8EE98EA0919201B0E0EA0EC8
:102A3000FB1E4B895C89E416F5060CF01CC2498D1F
:102A40005A8D440D551D4A1B5B0BA1E0EB88FC8899
:102A5000E416F5060CF00FC20A2B49855A854E176D
:102A60005F070CF00AC2AC01460D571D421B530B09
:102A7000E417F5070CF001C240919301AF85B889C6
:102A8000A41BB1094091100250911102E0919201F2
:102A9000F0E07A01EE0EFF1EEA16FB060CF0EDC127
:102AA000440D551D4E1B5F0BE1E0A417B5070CF05C
:102AB000E4C10E2BA985BA85A617B7070CF0DFC1B4
:102AC000860D971D821B930B681779070CF0D7C1F1
:102AD000809193014F855889481B510980911002BC
:102AE0009091110260919201FC01E60FF11DE41733
:102AF000F5070CF0C4C1840D951D821B930B21E0DA
:102B0000481759070CF0BBC10111BBC12111B9C154
:102B10008D858F5F80931A024FCA013091F50E9414
:102B200050050E9460050093FA021092FC02109278
:102B3000FB021092FE021092FD0287E480931E02B7
:102B400081E680931F028DE68093200285E68093C4
:102B5000210290E2909322029FE49093230296E751
:102B6000909324028093250282E7809326028EE2CE
:102B700080932702809328028093290210922A02D0
:102B800060C0023009F061C00E94600581E080935E
:102B9000FA021092FC021092FB021092FE021092B6
:102BA000FD0287E480931E0281E680931F029DE66A
:102BB0009093200205E60093210290E2E92EE09234
:102BC000220293E4909323022CE6F22EF092240248
:102BD000009325028093260282E78093270281E2F8
:102BE000809328028093290210922A028EE192E0BB
:102BF0000E948D0845E050E05093FC024093FB0298
:102C00008FE090E09093FE028093FD028EE480932B
:102C10001E0200931F0288E78093200284E78093BE
:102C20002102E09222028CE480932302009324028A
:102C300086E78093250200932602F09227021092E5
:102C400028028EE192E00E948D080E949A070E945D
:102C5000100868EB7BE080E090E00E94A30440E075
:102C60006CE172E08FEF92E00E940D0680911C02F1
:102C70008C708C3019F481E0809326010E943A0315
:102C80000C945F0B80919601890FD50112968C935D
:102C90002092FA02D092FC02C092FB02F092FE0255
:102CA000E092FD028AE491E00E9429090E94100846
:102CB00080911D0281FD6BCDE0919501F0E0C60190
:102CC0008E0F9F1F2091180230911902409194019C
:102CD00050E04901840E951E881699063CF56091D6
:102CE0001502D901A60FB11DBD01641B750B861716
:102CF0009707E4F4609193016701C60ED11C6091BF
:102D0000160270911702A0919201B0E05B01AA0E29
:102D1000BB1EAC14BD0454F400911202600F711D6F
:102D20006A1B7B0B01E0C616D7060CF000E0B3016E
:102D30006E1B7F0BFB018616970634F5609115021A
:102D4000D901A60FB11DBD01641B750BE617F7076E
:102D5000DCF460919301E60EF11C60911602709113
:102D60001702E0919201F0E0DB01AE0FBF1FAE153C
:102D7000BF0554F4A09112026A0F711D6E1B7F0BE8
:102D8000E1E0E616F7060CF0E0E00E2B8816990657
:102D90003CF560911502F901E60FF11DBF01641BBE
:102DA000750B86179707E4F480919301F201E81BF5
:102DB000F10980911602909117026091920170E0E2
:102DC000DC01A60FB71FAE17BF0754F4A091120283
:102DD0008A0F911D861B970B61E0E817F9070CF02D
:102DE00060E0062B8614970424F580911502280FC5
:102DF000311D241B350B62167306DCF480919301A0
:102E0000481A510880911602909117022091920160
:102E100030E0AC01420F531F4415550554F4409166
:102E20001202840F911D821B930B21E04816590654
:102E30000CF020E0011103C0222309F4A8CC209259
:102E40002601A5CCE984FA841E9DF0011F9DF00D9A
:102E50001124EF55FE4F8FE7F82EF08298CC1C9D81
:102E6000F0011D9DF00D1124E75DFE4F2FE720833B
:102E70004FCE00E0B7CDA0E0EFCDE0E01ACE20E0ED
:102E800043CE80910F02815080930F0218161CF0E0
:102E9000F2E0F09326011092FA02B092FC02A092A6
:102EA000FB029092FE028092FD0282E491E00E9479
:102EB00029091C9DF0011D9DF00D1124E75DFE4FB9
:102EC0003FE7E32EE08224CECF93DF93C2EED2E041
:102ED0008C899D890E9494038E899F89DF91CF916F
:102EE0000C949403E5E4F2E01382128288EE93E0FE
:102EF000A0E0B0E084839583A683B7838FE091E060
:102F00009183808385EC90E09587848784EC90E0C2
:102F10009787868780EC90E0918B808B81EC90E0A6
:102F2000938B828B82EC90E0958B848B86EC90E087
:102F3000978B868B118E128E138E148EE4E0F3E045
:102F400081E090E0938382831482EFEFF2E0938339
:102F500082831482E2EEF2E0118A108A138A128AC6
:102F6000158A148A178A168A808F128E118E148EF3
:102F7000138E40E050E060E070E08EEE92E00C9442
:102F80004E06EE0FFF1F0590F491E02D0994505866
:102F9000BB27AA270E94DF170C9430190E94221920
:102FA00038F00E94291920F039F49F3F19F426F4D3
:102FB0000C941F190EF4E095E7FB0C941919E92FF6
:102FC0000E94411958F3BA176207730784079507DF
:102FD00020F079F4A6F50C9463190EF4E0950B2E0D
:102FE000BA2FA02D0B01B90190010C01CA01A0015B
:102FF0001124FF27591B99F0593F50F4503E68F1B6
:103000001A16F040A22F232F342F4427585FF3CFF6
:10301000469537952795A795F0405395C9F77EF4C7
:103020001F16BA0B620B730B840BBAF09150A1F010
:10303000FF0FBB1F661F771F881FC2F70EC0BA0F96
:10304000621F731F841F48F4879577956795B7951E
:10305000F7959E3F08F0B0CF9395880F08F0992719
:10306000EE0F9795879508950E9448180C94301993
:103070000E94291958F00E94221940F029F45F3F5C
:1030800029F00C94191951110C9464190C941F19FE
:103090000E94411968F39923B1F3552391F3951BCD
:1030A000550BBB27AA2762177307840738F09F5F69
:1030B0005F4F220F331F441FAA1FA9F335D00E2ED6
:1030C0003AF0E0E832D091505040E695001CCAF743
:1030D0002BD0FE2F29D0660F771F881FBB1F261706
:1030E00037074807AB07B0E809F0BB0B802DBF01DD
:1030F000FF2793585F4F3AF09E3F510578F00C94AC
:1031000019190C9464195F3FE4F3983ED4F3869543
:1031100077956795B795F7959F5FC9F7880F911DCC
:103120009695879597F90895E1E0660F771F881FB8
:10313000BB1F621773078407BA0720F0621B730B6B
:10314000840BBA0BEE1F88F7E09508950E94AD1826
:103150006894B1110C94641908950E94491988F07B
:103160009F5798F0B92F9927B751B0F0E1F0660F4B
:10317000771F881F991F1AF0BA95C9F714C0B1308C
:1031800091F00E946319B1E008950C946319672FC0
:10319000782F8827B85F39F0B93FCCF386957795BB
:1031A0006795B395D9F73EF49095809570956195A4
:1031B0007F4F8F4F9F4F0895E89409C097FB3EF4CF
:1031C00090958095709561957F4F8F4F9F4F992374
:1031D000A9F0F92F96E9BB279395F69587957795F2
:1031E0006795B795F111F8CFFAF4BB0F11F460FFB2
:1031F0001BC06F5F7F4F8F4F9F4F16C0882311F00A
:1032000096E911C0772321F09EE8872F762F05C01D
:10321000662371F096E8862F70E060E02AF09A95B8
:10322000660F771F881FDAF7880F9695879597F9AD
:10323000089597F99F6780E870E060E008959FEF38
:1032400080EC089500240A9416161706180609063D
:10325000089500240A94121613061406050608950C
:10326000092E0394000C11F4882352F0BB0F40F494
:10327000BF2B11F460FF04C06F5F7F4F8F4F9F4FD4
:10328000089557FD9058440F551F59F05F3F71F056
:103290004795880F97FB991F61F09F3F79F08795BD
:1032A0000895121613061406551FF2CF4695F1DF46
:1032B00008C0161617061806991FF1CF86957105D6
:1032C000610508940895E894BB2766277727CB010A
:1032D00097F908950E947D190C9430190E942219C3
:1032E00038F00E94291920F0952311F00C94191937
:1032F0000C941F1911240C9464190E94411970F345
:10330000959FC1F3950F50E0551F629FF001729F8A
:10331000BB27F00DB11D639FAA27F00DB11DAA1F99
:10332000649F6627B00DA11D661F829F2227B00DE6
:10333000A11D621F739FB00DA11D621F839FA00D71
:10334000611D221F749F3327A00D611D231F849FC1
:10335000600D211D822F762F6A2F11249F57504018
:103360009AF0F1F088234AF0EE0FFF1FBB1F661F93
:10337000771F881F91505040A9F79E3F510580F05C
:103380000C9419190C9464195F3FE4F3983ED4F33C
:10339000869577956795B795F795E7959F5FC1F700
:1033A000FE2B880F911D9695879597F90895FA0140
:1033B000EE0FFF1F309621053105A1F16115710552
:1033C00061F48038BFE39B0749F168949038810528
:1033D00061F08038BFEF9B0741F099234AF5FF3F2A
:1033E000E1053105210519F1E8940894E795D90123
:1033F000AA2329F4AB2FBE2FF85FD0F310C0FF5FD4
:1034000070F4A695E0F7F73950F019F0FF3A38F468
:103410009F779F930DD00F9007FC9058089546F02A
:103420000C941F1960E070E080E89FE308954FE777
:103430009F775F934F933F932F930E94191B2F9178
:103440003F914F915F910E946A190C94371A9F9394
:103450000E94921A0F9007FCEE5F0C94BB1A29F49D
:1034600016F00C9419190C9463190C941F190E94EE
:103470004919A8F39638A0F707F80F92E8942BE3C0
:103480003AEA48EB5FE70E9480190F920F920F9281
:103490004DB75EB70F920E94611BE2EAF0E00E9416
:1034A000691A4F915F91EF91FF91E595EE1FFF1F14
:1034B00049F0FE57E0684427EE0F441FFA95E1F704
:1034C0004195550B0E94DB1A0F9007FE0C94CF1A02
:1034D0000895DF93CF931F930F93FF92EF92DF92A4
:1034E0007B018C01689406C0DA2EEF010E947D19E1
:1034F000FE01E894A5912591359145915591A6F34A
:10350000EF010E94DF17FE019701A801DA9469F725
:10351000DF90EF90FF900F911F91CF91DF91089571
:103520000C941F190E944919D8F3E894E0E0BB27D6
:103530009F57F0F02AED3FE049EC06C0EE0FBB0FBD
:10354000661F771F881F28F0B23A62077307840747
:1035500028F0B25A620B730B840BE3959A9572F7BD
:10356000803830F49A95BB0F661F771F881FD2F7FB
:1035700090480C94971BEF93E0FF07C0A2EA2AED56
:103580003FE049EC5FEB0E94DF170E9430190F907B
:10359000039401FC9058EAECF0E00C94A31B9B010F
:1035A000AC0160E070E080E89FE30C9434180C9468
:1035B00019190C94951B0E944919D8F39923C9F342
:1035C000940F511DA3F39150504094F059F088236B
:1035D00032F0660F771F881F91505040C1F79E3F11
:1035E00051052CF7880F911D9695879597F90895A9
:1035F0005F3FACF0983E9CF0BB278695779567952A
:10360000B79508F4B1609395C1F7BB0F58F711F463
:1036100060FFE8CF6F5F7F4F8F4F9F4FE3CF0C94DA
:10362000641916F00C94951B0C941F1968940C9453
:1036300019190E944919A8F39923C1F3AEF3DF9336
:10364000CF931F930F93FF92C92FDD2788232AF072
:103650002197660F771F881FDAF720E030E040E8F7
:103660005FEB9FE3883920F0803E38F021968F771A
:103670000E94C817E8EEF0E004C00E94C817E5E118
:10368000F1E00E94691A8B01BE01EC01FB2E6F571D
:1036900071097595771F880B990B0E94DE1828E138
:1036A00032E741E35FE30E947D19AF2D9801AE013F
:1036B000FF900F911F91CF91DF910E94DF170C9423
:1036C0003019FA01DC01AA0FBB1F9B01AC01BF57E7
:1036D00028F4222733274427507820C0B75190F48C
:1036E000AB2F0024469537952795011CA395D2F35F
:1036F000002071F0220F331F441FB395DAF30ED070
:103700000C94C71761307105A0E88A07B94630F4F8
:103710009B01AC016627772788279078309621F0A7
:10372000208331834283538308959F3F31F091502A
:1037300020F4879577956795B795880F911D969595
:10374000879597F908959F938F937F936F93FF9336
:10375000EF939B01AC010E946A19EF91FF910E94C7
:10376000691A2F913F914F915F910C946A19CF93F1
:10377000DF938230910510F482E090E0E0910B033A
:10378000F0910C0320E030E0C0E0D0E0309711F180
:103790004081518148175907C0F04817590761F413
:1037A00082819381209719F09B838A832BC0909309
:1037B0000C0380930B0326C02115310519F0421725
:1037C000530718F49A01BE01DF01EF010280F38173
:1037D000E02DDCCF2115310509F1281B390B2430F0
:1037E000310590F412968D919C9113976115710596
:1037F00021F0FB019383828304C090930C03809398
:103800000B03FD01329644C0FD01E20FF31F8193CB
:103810009193225031092D933C933AC02091090392
:1038200030910A03232B41F42091030130910401CC
:1038300030930A0320930903209101013091020182
:103840002115310541F42DB73EB740910501509146
:103850000601241B350BE0910903F0910A03E217DE
:10386000F307A0F42E1B3F0B2817390778F0AC01A3
:103870004E5F5F4F2417350748F04E0F5F1F509380
:103880000A03409309038193919302C0E0E0F0E0C2
:10389000CF01DF91CF9108950F931F93CF93DF93C3
:1038A000009709F48CC0FC013297138212820091B8
:1038B0000B0310910C030115110581F42081318156
:1038C000820F931F2091090330910A0328173907AB
:1038D00079F5F0930A03E093090371C0D80140E041
:1038E00050E0AE17BF0750F412962D913C911397FC
:1038F000AD012115310509F1D901F3CF9D01DA019F
:103900003383228360817181860F971F821793070B
:1039100069F4EC0128813981260F371F2E5F3F4F54
:10392000318320838A819B8193838283452B29F471
:10393000F0930C03E0930B0342C01396FC93EE93B9
:103940001297ED01499159919E01240F351FE217FD
:10395000F30771F480819181840F951F029611966F
:103960009C938E938281938113969C938E9312974E
:10397000E0E0F0E0D80112968D919C9113970097AA
:1039800019F0F8018C01F6CF8D919C9198012E5F72
:103990003F4F820F931F2091090330910A0328178C
:1039A000390769F4309729F410920C0310920B0335
:1039B00002C01382128210930A0300930903DF915D
:1039C000CF911F910F91089581E090E0F8940C94AD
:1039D000A81D8F929F92AF92BF92CF92DF92EF92EB
:1039E000FF92CF93DF93EC01688179818A819B817B
:1039F000611571058105910521F464E279ED8BE58E
:103A000097E02DE133EF41E050E00E94451D490170
:103A10005A019B01AC01A7EAB1E40E94641D6B014D
:103A20007C01ACEEB4EFA50194010E94721DDC0193
:103A3000CB018C0D9D1DAE1DBF1DB7FF03C00197AF
:103A4000A109B04888839983AA83BB83BC01CD01B7
:103A50009F77DF91CF91FF90EF90DF90CF90BF9055
:103A6000AF909F908F9008950E94E91C089587E081
:103A700091E00E94E91C089560930701709308018A
:103A80008093090190930A010895052E97FB1EF477
:103A900000940E945C1D57FD07D00E94771D07FC13
:103AA00003D04EF40C945C1D5095409530952195B3
:103AB0003F4F4F4F5F4F089590958095709561955A
:103AC0007F4F8F4F9F4F08950E94991DA59F900D86
:103AD000B49F900DA49F800D911D11240895B7FFF0
:103AE0000C94641D0E94641D821B930B0895A1E237
:103AF0001A2EAA1BBB1BFD010DC0AA1FBB1FEE1F68
:103B0000FF1FA217B307E407F50720F0A21BB30BB2
:103B1000E40BF50B661F771F881F991F1A9469F72E
:103B200060957095809590959B01AC01BD01CF018A
:103B30000895A29FB001B39FC001A39F700D811D86
:103B40001124911DB29F700D811D1124911D0895A6
:103B500012E0C2E2D2E004C0FE010E94C117219629
:0A3B6000C332D107C9F7F894FFCF74
:103B6A000100000D0380000100000000000000D1E8
:103B7A00024D029A0278028C0218034C762E00003B
:00000001FF
