:100000000C944E010C9476010C9476010C947601BC
:100010000C9476010C9476010C9476010C94760184
:100020000C9476010C9476010C9476010C94760174
:100030000C9476010C9476010C9476010C94760164
:100040000C9432060C9476010C9400060C94DA059C
:100050000C9476010C9476010C9476010C94760144
:100060000C9476010C947601000000000000004F13
:1000700000000007000700147F147F14242A7F2A41
:10008000122313086462364955225000050300000C
:10009000001C2241000041221C0014083E081408E4
:1000A000083E0808005030000008080808080060F2
:1000B00060000020100804023E5149453E00427F86
:1000C000400042615149462141454B311814127F8D
:1000D0001027454545393C4A494930017109050316
:1000E0003649494936064949291E0036360000007E
:1000F0005636000008142241001414141414004150
:100100002214080201510906324979413E7E11113B
:10011000117E7F494949363E414141227F4141227A
:100120001C7F494949417F090909013E4149497AF2
:100130007F0808087F00417F41002040413F017F48
:10014000081422417F404040407F020C027F7F0420
:1001500008107F3E4141413E7F090909063E415159
:10016000215E7F09192946464949493101017F012C
:10017000013F4040403F1F2040201F3F4038403F4C
:100180006314081463070870080761514945430068
:100190007F41410002040810200041417F00040219
:1001A0000102044040404040000102040020545439
:1001B00054787F48444438384444442038444448C0
:1001C0007F3854545418087E0901020C5252523E92
:1001D0007F0804047800447D40002040443D007FB7
:1001E0001028440000417F40007C041804787C08FB
:1001F00004047838444444387C1414140808141453
:10020000187C7C080404084854545420043F44409B
:10021000203C4040207C1C2040201C3C4030403C86
:1002200044281028440C5050503C4464544C440022
:100230000836410000007F00000041360800080831
:100240002A1C08081C2A08080000000024002700B7
:100250002A0000000000250028002B0004040404EC
:100260000404040402020202020203030303030360
:10027000010204081020408001020408102001023D
:100280000408102000000008000201000003040719
:1002900000000000000000007C06840811241FBE3E
:1002A000CFEFD8E0DEBFCDBF11E0A0E0B1E0EEEAD5
:1002B000F3E102C005900D92A633B107D9F722E011
:1002C000A6E3B1E001C01D92AA30B207E1F711E048
:1002D000CDE4D1E004C02197FE010E949208CC3405
:1002E000D107C9F70E94CB060C94CA090C940000F0
:1002F00097FD62C02091EB013091EC0182179307CA
:100300000CF05AC077FD58C04091ED015091EE01BC
:10031000641775070CF050C0FB0153E0F595E795A5
:100320005A95E1F7E29FA001E39F500DF29F500D17
:100330001124840F951FE091F301F091F401E80F6F
:10034000F91F40812091F70167707727222341F040
:1003500021E030E001C0220F6A95EAF7242B08C0A3
:1003600021E030E001C0220F6A95EAF720952423AE
:100370002083E091F301F091F401E80FF91F20814F
:100380002417D1F09C0143E0359527954A95E1F774
:10039000E091F501F091F601E20FF31F87709927C4
:1003A00021E030E0A90102C0440F551F8A95E2F711
:1003B000CA019081892B80830895CF92DF92EF92BA
:1003C000FF920F931F93CF93DF936C0100E010E037
:1003D000C0E0D0E07601E00EF11EF701249130E09C
:1003E0000C2E02C0359527950A94E2F720FF0CC029
:1003F0006091FA017091FB016C0F7D1F8091F801F3
:100400009091F9010E9478012196C830D10529F711
:100410008091F8019091F90101969093F9018093F0
:10042000F8010F5F1F4F0530110591F6DF91CF9155
:100430001F910F91FF90EF90DF90CF900895CF9292
:10044000DF92EF92FF920F931F93CF93DF936C0194
:100450007A018B01C0E0D0E0CE15DF0589F0D8012C
:100460006D918D01D601ED91FC910190F081E02D0F
:10047000C6010995892B11F47E0102C02196ECCFAB
:10048000C701DF91CF911F910F91FF90EF90DF9007
:10049000CF900895FC01918D828D981761F0828D27
:1004A000DF01A80FB11D5D968C91928D9F5F9F73A8
:1004B000928F90E008958FEF9FEF0895FC01918D4A
:1004C000828D981731F0828DE80FF11D858D90E0B7
:1004D00008958FEF9FEF0895FC01918D228D892F54
:1004E00090E0805C9F4F821B91098F73992708953C
:1004F00082E491E00E946C0221E0892B09F420E063
:10050000822F0895FC01848DDF01A80FB11DA35A2D
:10051000BF4F2C91848D90E001968F739927848F23
:10052000A689B7892C93A089B1898C9180648C931A
:10053000938D848D981306C00288F389E02D808105
:100540008F7D80830895EF92FF920F931F93CF9337
:10055000DF93EC0181E0888F9B8D8C8D981305C013
:10056000E889F989808185FD24C0F62E0B8D10E085
:100570000F5F1F4F0F731127E02E8C8DE8120CC0F8
:100580000FB607FCFACFE889F989808185FFF5CF9E
:10059000CE010E948202F1CF8B8DFE01E80FF11D8A
:1005A000E35AFF4FF0820B8FEA89FB8980818062DA
:1005B00007C0EE89FF896083E889F98980818064BA
:1005C000808381E090E0DF91CF911F910F91FF90A8
:1005D000EF900895CF93DF93EC01888D8823C9F0C5
:1005E000EA89FB89808185FD05C0A889B9898C913C
:1005F00086FD0FC00FB607FCF5CF808185FFF2CFD7
:10060000A889B9898C9185FFEDCFCE010E94820225
:10061000E7CFDF91CF91089580E090E0892B29F01A
:100620000E94780281110C940000089590E0FC0172
:10063000EC57FD4F3491FC01E059FD4F2491FC0132
:10064000E45AFD4FE491EE2309F43BC0332339F122
:10065000333091F038F43130A9F0323001F584B5FF
:100660008F7D12C0373091F03830A1F03430B9F4BA
:10067000809180008F7D03C0809180008F77809370
:1006800080000DC084B58F7784BD09C08091B00013
:100690008F7703C08091B0008F7D8093B000F0E031
:1006A000EE0FFF1FEE5AFD4FA591B4918FB7F8944E
:1006B000EC91611103C020952E2301C02E2B2C93A9
:1006C0008FBF0895811107C061E08091E2010E940F
:1006D000160360E006C060E08091E2010E9416030C
:1006E00061E08091E3010C9416031F93CF93DF9395
:1006F000162FCFEDD1E0682F88810E941603612F5D
:1007000070E02BB1CB01880F991F880F991F922F92
:100710009370892B8BB985B146E0759567954A959D
:10072000E1F78C7F682B65B961E08A810E9416032E
:1007300060E08A81DF91CF911F910C941603CF93D3
:10074000C62F8F73682F606480E00E9475036C2F42
:100750006770686B80E0CF910C947503CF93DF9343
:1007600090E0FC01E059FD4F2491FC01E45AFD4F5B
:100770008491882361F190E0880F991FFC01E85B68
:10078000FD4FC591D491FC01EE5AFD4FA591B49156
:10079000611109C09FB7F8948881209582238883CE
:1007A000EC912E230BC0623061F49FB7F89438812E
:1007B000822F809583238883EC912E2B2C939FBFCF
:1007C00006C08FB7F894E8812E2B28838FBFDF9166
:1007D000CF9108953FB7F89480913B0190913C01EF
:1007E000A0913D01B0913E0126B5A89B05C02F3FC9
:1007F00019F00196A11DB11D3FBFBA2FA92F982F47
:100800008827820F911DA11DB11DBC01CD0142E0C1
:10081000660F771F881F991F4A95D1F708958F9209
:100820009F92AF92BF92CF92DF92EF92FF926B01B5
:100830007C010E94EA034B015C01C114D104E10474
:10084000F104F1F00E94EA03DC01CB018819990957
:10085000AA09BB09883E9340A105B10570F321E0C8
:10086000C21AD108E108F10888EE880E83E0981ECC
:10087000A11CB11CC114D104E104F10419F7DDCFAE
:10088000FF90EF90DF90CF90BF90AF909F908F90B0
:1008900008952F923F924F925F926F927F928F9224
:1008A0009F92AF92BF92CF92DF92EF92FF920F93FF
:1008B0001F93CF93DF931C011092F701C091ED01BC
:1008C000D091EE01E090EB01F090EC0187011E1455
:1008D0001F0414F400E010E02196442455244C1A1F
:1008E0005D0AE016F1060CF11C161D0624F06624C4
:1008F0006A94762C03C066246394712C4E01D7FD54
:100900004201C12CD12CA12CB12CC814D90451F016
:10091000B501C8010E947801A60CB71C8FEFC81A58
:10092000D80AF3CF0F5F1F4FDCCF81E08093F70130
:100930001092F9011092F8011092FB011092FA0145
:10094000E10115E029912223E9F080EE820F803643
:1009500018F08EEA90E00AC030E020523109129F70
:10096000C001139F900D112488599F4F0E94DD01F3
:100970008091F8019091F90101969093F90180938B
:10098000F801E0CFC12CD12CC0E0EE24E394F12C8F
:100990008C2F81700E946203512CA12CB12C8501F7
:1009A0000C0D1D1DD0E0380183E0759467948A9585
:1009B000E1F7480187E088229924E091E901F0916C
:1009C000EA01E60DF71D208130E0082C02C03595C4
:1009D00027950A94E2F720FF1DC0652D8D2F0E94F8
:1009E0009F03E091E701F091E801E00FF11F6081C2
:1009F00081E00E947503E091E901F091EA01E60DC2
:100A0000F71D970101C0220F8A94EAF72095808193
:100A1000282320830F5F1F4FDF5FD03421F680E84B
:100A2000A80EB11C539488E05812B9CFCF5FC170A3
:100A300080E4C80ED11C80E8C816D10409F0A8CF04
:100A4000DF91CF911F910F91FF90EF90DF90CF90AA
:100A5000BF90AF909F908F907F906F905F904F90DE
:100A60003F902F900895FC0190819E3008F09E5099
:100A700097702091000180E4289F90011124922B0F
:100A800090937C0090917A00906490937A0080918A
:100A90007A0086FDFCCF209178008091790030E0CB
:100AA000382B0280F381E02D319660E070E040E069
:100AB00050E080E0261737076CF04E0F5F1FDA0119
:100AC000AA0FBB1FA115B44014F08F5F54506F5F85
:100AD0007F4FF0CF08950E94C509009711F00E9442
:100AE0002D090895EF92FF920F931F93CF93DF93F9
:100AF000EC017B018A01888599850E946D058A85B4
:100B00009B850E946D05F982E8821B830A83C801D8
:100B1000079697FD07969C0143E0359527954A95E2
:100B2000E1F7E29EC001E39E900DF29E900D11242C
:100B30009F838E838C01095F1F4F17FF02C0095FDF
:100B40001F4F23E0159507952A95E1F71D830C8328
:100B50001816190624F40E94980899878887101699
:100B600011062CF4C8010E9498089B878A8780E0B0
:100B700090E02E813F81821793073CF4E885F98548
:100B8000E80FF91F10820196F4CF80E090E02C81ED
:100B90003D81821793073CF4EA85FB85E80FF91F36
:100BA00010820196F4CFDF91CF911F910F91FF90AA
:100BB000EF9008951F920F920FB60F9211242F936A
:100BC0003F934F935F936F937F938F939F93AF93D5
:100BD000BF93EF93FF9382E491E00E948202FF9122
:100BE000EF91BF91AF919F918F917F916F915F91A5
:100BF0004F913F912F910F900FBE0F901F9018951E
:100C00001F920F920FB60F9211242F938F939F93E1
:100C1000EF93FF93E0915201F09153018081E091B5
:100C20005801F091590182FD12C0908180915B01C1
:100C30008F5F8F7320915C01821751F0E0915B010F
:100C4000F0E0EE5BFE4F958F80935B0101C08081E9
:100C5000FF91EF919F918F912F910F900FBE0F9069
:100C60001F9018951F920F920FB60F9211242F9379
:100C70003F938F939F93AF93BF9380913701909150
:100C80003801A0913901B0913A013091360123E049
:100C9000230F2D3720F40196A11DB11D05C026E8B4
:100CA000230F0296A11DB11D2093360180933701B9
:100CB00090933801A0933901B0933A0180913B01A0
:100CC00090913C01A0913D01B0913E010196A11D82
:100CD000B11D80933B0190933C01A0933D01B093E3
:100CE0003E01BF91AF919F918F913F912F910F90B6
:100CF0000FBE0F901F901895E2E4F1E0138212826C
:100D000088EE93E0A0E0B0E084839583A683B78368
:100D10008BE091E09183808385EC90E095878487D8
:100D200084EC90E09787868780EC90E0918B808BB5
:100D300081EC90E0938B828B82EC90E0958B848B9E
:100D400086EC90E0978B868B118E128E138E148E0C
:100D5000E1E0F2E081E090E0938382831482ECEFA3
:100D6000F1E0938382831482EFEDF1E0118A108A1F
:100D7000138A128A158A148A178A168A808F128E0D
:100D8000118E148E138E40E050E060E070E08BEE28
:100D900091E00C947205789484B5826084BD84B52A
:100DA000816084BD85B5826085BD85B5816085BD66
:100DB00080916E00816080936E001092810080911E
:100DC00081008260809381008091810081608093A6
:100DD0008100809180008160809380008091B100CB
:100DE00084608093B1008091B00081608093B000F6
:100DF00080917A00846080937A0080917A0082608A
:100E000080937A0080917A00816080937A0080914B
:100E10007A00806880937A001092C1008CE0809301
:100E2000DF018BE08093E0018AE08093E10181E1C2
:100E30008093E20180E18093E3018FE08093E401FD
:100E400080E88093E50180E48093E60161E08CE036
:100E50000E94AE0361E08091E0010E94AE0361E078
:100E60008091E1010E94AE0361E08091E2010E9465
:100E7000AE0361E08091E3010E94AE0361E08091E6
:100E8000E4010E94AE038AB18C6F8AB984B1836099
:100E900084B960E08091DF010E94160360E08091D8
:100EA000E0010E94160360E08091E1010E941603B8
:100EB00060E08091E2010E94160360E08091E3010E
:100EC0000E94160361E08091E4010E9416036EE126
:100ED00070E080E090E00E940F0461E08091E20108
:100EE0000E94160360E08091E3010E94160360EC0B
:100EF00080E00E9475036FE380E00E94750381E04B
:100F00000E94620360EC80E00E9475036FE380E062
:100F10000E947503C1E001E08C2F817080270E9440
:100F20006203D0E06D2F80E00E949F0310E460E038
:100F300081E00E9475031150D1F7DF5FD83091F73F
:100F4000C23011F0C2E0E8CF60E080E00E949F0371
:100F500040E450E060E870E08BEE91E00E947205A2
:100F60008091F3019091F4019093E8018093E7015F
:100F70008091F5019091F6019093EA018093E90147
:100F80008EE080933F018DE08093400161E08EE030
:100F90000E94AE0360E08DE00E94AE0360E08EE050
:100FA0000E941603E0915201F0915301C083E09139
:100FB0004E01F0914F011082E0915001F0915101EA
:100FC00087E6808310925A01E0915601F091570113
:100FD00086E08083E0915401F09155018081806129
:100FE0008083E0915401F091550180818860808375
:100FF000E0915401F0915501808180688083E091F7
:101000005401F091550180818F7D808324E02093ED
:1010100001022093020281E080930001809103028B
:101020009091040234E0880F991F3A95E1F70197F7
:10103000909304028093030285E08093FC01209347
:10104000FD018091FE019091FF0144E0880F991FFE
:101050004A95E1F701979093FF018093FE0187E1A4
:1010600091E00E9449048CEF91E00E943305D091F9
:101070000002DF70D823D095D8238093000281E04E
:1010800092E00E943305C0910502CF70C823C0953D
:10109000C82380930502D2FF04C086E291E00E943B
:1010A0004904D3FF04C088E291E00E944904D0FFC4
:1010B00004C08AE291E00E944904D1FF04C08CE29E
:1010C00091E00E944904C0FF04C08EE291E00E94BA
:1010D0004904C3FF04C080E391E00E944904C2FFB9
:1010E00004C082E391E00E944904C1FF04C084E38C
:1010F00091E00E9449046AE070E080E090E00E9484
:101100000F040E940C03AFCFCF93DF93CFEDD1E05C
:101110008C899D890E946D058E899F89DF91CF9171
:101120000C946D05EE0FFF1F0590F491E02D0994CE
:10113000CF93DF938230910510F482E090E0E0914C
:101140000802F091090220E030E0C0E0D0E03097E2
:1011500011F14081518148175907C0F048175907CC
:1011600061F482819381209719F09B838A832BC03D
:10117000909309028093080226C02115310519F0C9
:101180004217530718F49A01BE01DF01EF010280F4
:10119000F381E02DDCCF2115310509F1281B390B36
:1011A0002430310590F412968D919C91139761151E
:1011B000710521F0FB019383828304C0909309029F
:1011C00080930802FD01329644C0FD01E20FF31F37
:1011D00081939193225031092D933C933AC02091F1
:1011E000060230910702232B41F420910301309134
:1011F00004013093070220930602209101013091EF
:1012000002012115310541F42DB73EB7409105018A
:1012100050910601241B350BE0910602F091070264
:10122000E217F307A0F42E1B3F0B2817390778F0BD
:10123000AC014E5F5F4F2417350748F04E0F5F1F1C
:1012400050930702409306028193919302C0E0E01D
:10125000F0E0CF01DF91CF9108950F931F93CF93CB
:10126000DF93009709F48CC0FC013297138212823D
:1012700000910802109109020115110581F42081E5
:101280003181820F931F20910602309107022817A7
:10129000390779F5F0930702E093060271C0D8018F
:1012A00040E050E0AE17BF0750F412962D913C91EC
:1012B0001397AD012115310509F1D901F3CF9D0136
:1012C000DA013383228360817181860F971F821731
:1012D000930769F4EC0128813981260F371F2E5FAF
:1012E0003F4F318320838A819B8193838283452B67
:1012F00029F4F0930902E093080242C01396FC938C
:10130000EE931297ED01499159919E01240F351FDB
:10131000E217F30771F480819181840F951F029683
:1013200011969C938E938281938113969C938E93B6
:101330001297E0E0F0E0D80112968D919C911397FE
:10134000009719F0F8018C01F6CF8D919C919801CE
:101350002E5F3F4F820F931F2091060230910702AC
:101360002817390769F4309729F41092090210926E
:10137000080202C013821282109307020093060231
:10138000DF91CF911F910F91089581E090E0F89443
:101390000C94CA0911E0CDE4D1E004C0FE010E9422
:0E13A00092082196CE34D107C9F7F894FFCFFA
:1013AE000100000A02800000000000A3021F026C70
:1013BE00024A025E02EA02436F6E74726F6C6C65D3
:1013CE007254657374004100420058005900550074
:0613DE00440052004C0027
:00000001FF
