:100000000C944E010C9476010C9476010C947601BC
:100010000C9476010C9476010C9476010C94760184
:100020000C9476010C9476010C9476010C94760174
:100030000C9476010C9476010C9476010C94760164
:100040000C9426070C9476010C94F4060C94CE06BE
:100050000C9476010C9476010C9476010C94760144
:100060000C9476010C947601000000002400270017
:100070002A0000000000250028002B0004040404CE
:100080000404040402020202020203030303030342
:10009000010204081020408001020408102001021F
:1000A00004081020000000080002010000030407FB
:1000B0000000000000000000000000000000004FF1
:1000C00000000007000700147F147F14242A7F2AF1
:1000D00012231308646236495522500005030000BC
:1000E000001C2241000041221C0014083E08140894
:1000F000083E0808005030000008080808080060A2
:1001000060000020100804023E5149453E00427F35
:10011000400042615149462141454B311814127F3C
:100120001027454545393C4A4949300171090503C5
:100130003649494936064949291E0036360000002D
:1001400056360000081422410014141414140041FF
:100150002214080201510906324979413E7E1111EB
:10016000117E7F494949363E414141227F4141222A
:100170001C7F494949417F090909013E4149497AA2
:100180007F0808087F00417F41002040413F017FF8
:10019000081422417F404040407F020C027F7F04D0
:1001A00008107F3E4141413E7F090909063E415109
:1001B000215E7F09192946464949493101017F01DC
:1001C000013F4040403F1F2040201F3F4038403FFC
:1001D0006314081463070870080761514945430018
:1001E0007F41410002040810200041417F000402C9
:1001F00001020440404040400001020400205454E9
:1002000054787F484444383844444420384444486F
:100210007F3854545418087E0901020C5252523E41
:100220007F0804047800447D40002040443D007F66
:100230001028440000417F40007C041804787C08AA
:1002400004047838444444387C1414140808141402
:10025000187C7C080404084854545420043F44404B
:10026000203C4040207C1C2040201C3C4030403C36
:1002700044281028440C5050503C4464544C4400D2
:100280000836410000007F000000413608000808E1
:100290002A1C08081C2A08087007BE0911241FBE62
:1002A000CFEFD8E0DEBFCDBF11E0A0E0B1E0E6EBDC
:1002B000F6E102C005900D92A233B107D9F722E012
:1002C000A2E3B1E001C01D92AC30B207E1F711E04A
:1002D000CDE4D1E004C02197FE010E94160ACC347F
:1002E000D107C9F70E94BF070C944E0B0C94000075
:1002F00097FD62C02091ED013091EE0182179307C6
:100300000CF05AC077FD58C04091EF015091F001B8
:10031000641775070CF050C0FB0153E0F595E795A5
:100320005A95E1F7E29FA001E39F500DF29F500D17
:100330001124840F951FE091F501F091F601E80F6B
:10034000F91F40812091F90167707727222341F03E
:1003500021E030E001C0220F6A95EAF7242B08C0A3
:1003600021E030E001C0220F6A95EAF720952423AE
:100370002083E091F501F091F601E80FF91F20814B
:100380002417D1F09C0143E0359527954A95E1F774
:10039000E091F701F091F801E20FF31F87709927C0
:1003A00021E030E0A90102C0440F551F8A95E2F711
:1003B000CA019081892B808308955F926F927F920A
:1003C0008F929F92AF92BF92CF92DF92EF92FF9265
:1003D0000F931F93CF93DF93EC018B017A01A90157
:1003E000461B570B57FF03C0519541955109C70153
:1003F0008C1B9D0B97FF03C0919581959109552406
:1004000053948417950714F0512C0AC09E2D8F2DFC
:100410007901292F382F9C2F8D2FE801092F182FB4
:10042000EC16FD0654F4902F812F8901292F382FC7
:100430009C2F8D2FE701E92EF82E5701AC1ABD0A2B
:100440006901C01AD10AD7FE03C0D194C194D10862
:100450000217130724F088248A94982C03C0882458
:100460008394912C612C712CEC16FD06BCF0552068
:1004700019F0BE01C80102C0B801CE010E94780186
:100480006C0C7D1CC301880F991F8A159B0524F0F5
:10049000080D191D6A187B082196E6CFDF91CF91D0
:1004A0001F910F91FF90EF90DF90CF90BF90AF9092
:1004B0009F908F907F906F905F900895CF92DF9282
:1004C000EF92FF920F931F93CF93DF936C0100E0A5
:1004D00010E0C0E0D0E07601E00EF11EF7012491BB
:1004E00030E00C2E02C0359527950A94E2F720FFE4
:1004F0000CC06091FC017091FD016C0F7D1F80911B
:10050000FA019091FB010E9478012196C830D10533
:1005100029F78091FA019091FB0101969093FB01DC
:100520008093FA010F5F1F4F0530110591F6DF919F
:10053000CF911F910F91FF90EF90DF90CF90089592
:1005400090EE980F903618F08EEF90E00CC0282FA8
:1005500030E02052310945E0429FC001439F900D99
:10056000112488549F4F0E945E028091FA0190915D
:10057000FB0101969093FB018093FA010895CF93BC
:10058000DF93EC018991882319F00E94A002FACF31
:10059000DF91CF910895CF92DF92EF92FF920F9368
:1005A0001F93CF93DF936C017A018B01C0E0D0E001
:1005B000CE15DF0589F0D8016D918D01D601ED9141
:1005C000FC910190F081E02DC6010995892B11F471
:1005D0007E0102C02196ECCFC701DF91CF911F9120
:1005E0000F91FF90EF90DF90CF900895FC01918DD7
:1005F000828D981761F0828DDF01A80FB11D5D9685
:100600008C91928D9F5F9F73928F90E008958FEFF2
:100610009FEF0895FC01918D828D981731F0828DA6
:10062000E80FF11D858D90E008958FEF9FEF0895FD
:10063000FC01918D228D892F90E0805C9F4F821B61
:1006400091098F739927089584E491E00E9418031B
:1006500021E0892B09F420E0822F0895FC01848D8C
:10066000DF01A80FB11DA35ABF4F2C91848D90E0DC
:1006700001968F739927848FA689B7892C93A089B7
:10068000B1898C9180648C93938D848D981306C06E
:100690000288F389E02D80818F7D80830895EF9219
:1006A000FF920F931F93CF93DF93EC0181E0888F2C
:1006B0009B8D8C8D981305C0E889F989808185FD13
:1006C00024C0F62E0B8D10E00F5F1F4F0F73112704
:1006D000E02E8C8DE8120CC00FB607FCFACFE8892B
:1006E000F989808185FFF5CFCE010E942E03F1CFDD
:1006F0008B8DFE01E80FF11DE35AFF4FF0820B8F47
:10070000EA89FB898081806207C0EE89FF89608366
:10071000E889F98980818064808381E090E0DF91BD
:10072000CF911F910F91FF90EF900895CF93DF939A
:10073000EC01888D8823C9F0EA89FB89808185FDD9
:1007400005C0A889B9898C9186FD0FC00FB607FC3A
:10075000F5CF808185FFF2CFA889B9898C9185FF7B
:10076000EDCFCE010E942E03E7CFDF91CF91089508
:1007700080E090E0892B29F00E94240381110C94E1
:100780000000089590E0FC01EC55FF4F3491FC010E
:10079000E057FF4F2491FC01E458FF4FE491EE2312
:1007A00009F43BC0332339F1333091F038F4313060
:1007B000A9F0323001F584B58F7D12C0373091F049
:1007C0003830A1F03430B9F4809180008F7D03C0BF
:1007D000809180008F77809380000DC084B58F77E3
:1007E00084BD09C08091B0008F7703C08091B000B4
:1007F0008F7D8093B000F0E0EE0FFF1FEE58FF4FAB
:10080000A591B4918FB7F894EC91611103C0209534
:100810002E2301C02E2B2C938FBF0895811107C06A
:1008200061E08091E4010E94C20360E006C060E0E4
:100830008091E4010E94C20361E08091E5010C9483
:10084000C2031F93CF93DF93162FC1EED1E0682F21
:1008500088810E94C203612F70E02BB1CB01880F09
:10086000991F880F991F922F9370892B8BB985B18F
:1008700046E0759567954A95E1F78C7F682B65B9D9
:1008800061E08A810E94C20360E08A81DF91CF919A
:100890001F910C94C203CF93C62F8F73682F60648F
:1008A00080E00E9421046C2F6770686B80E0CF911C
:1008B0000C942104CF93DF9390E0FC01E057FF4FAD
:1008C0002491FC01E458FF4F8491882361F190E06A
:1008D000880F991FFC01E859FF4FC591D491FC0185
:1008E000EE58FF4FA591B491611109C09FB7F894DC
:1008F0008881209582238883EC912E230BC062305F
:1009000061F49FB7F8943881822F80958323888380
:10091000EC912E2B2C939FBF06C08FB7F894E881E3
:100920002E2B28838FBFDF91CF9108953FB7F89486
:1009300080913D0190913E01A0913F01B091400115
:1009400026B5A89B05C02F3F19F00196A11DB11D2A
:100950003FBFBA2FA92F982F8827820F911DA11D65
:10096000B11DBC01CD0142E0660F771F881F991FA2
:100970004A95D1F70895AF92BF92CF92DF92EF924E
:10098000FF920F931F93CF93DF936C0121E030E030
:1009900000E010E04AE0C601B9010E94CC09672BD3
:1009A00049F00F5F1F4FB901469F9001479F300DDF
:1009B0001124F1CF98012150310980E090E0C1E08D
:1009C000D0E04AE08217930744F4BE01469FE0015D
:1009D000479FD00D11240196F5CFE12CF12C8AE030
:1009E000A82EB12CE016F10691F0C601BE010E94BE
:1009F000CC096C0180E3860F0E94A0027FEFE71A0A
:100A0000F70ACE01B5010E94CC09EB01EBCFDF91D3
:100A1000CF911F910F91FF90EF90DF90CF90BF90FB
:100A2000AF9008952F923F924F925F926F927F9274
:100A30008F929F92AF92BF92CF92DF92EF92FF92EE
:100A40000F931F93CF93DF93CDB7DEB727970FB6E2
:100A5000F894DEBF0FBECDBFFF24F394F092F901EE
:100A600080E490E09093FB018093FA011092FD01E5
:100A70001092FC0187E191E00E94BF0206E410E0C1
:100A80001093FB010093FA0188E090E09093FD0140
:100A90008093FC018CE191E00E94BF021093FB0166
:100AA0000093FA0180E190E09093FD018093FC01B6
:100AB00087E291E00E94BF028FB7F89480903901DD
:100AC00090903A01A0903B01B0903C018FBFF09212
:100AD000F9018BE490E09093FB018093FA018EE1A1
:100AE00090E09093FD018093FC018CE291E00E94E4
:100AF000BF020091FA011091FB010F501109C09043
:100B0000FC01D090FD0168E0C60ED11C1092F901E5
:100B10001093FB010093FA01D092FD01C092FC01F9
:100B200080913601909137010E94BB04F092F90147
:100B30001093FB010093FA01D092FD01C092FC01D9
:100B40008091320190913301A0913401B09135012F
:100B5000A5019401281B390B4A0B5B0B68EE73E06F
:100B600080E090E00E94E009C9012A833B834C8326
:100B70005D830E94BB0400E010E0312C44244394C8
:100B8000512C5D814C813B812A81832D81702A8388
:100B90003B834C835D830E940E0490E0E12CF12C9A
:100BA0002A813B814C815D81B701600F711F7F837A
:100BB0006E83212C6E807F8083E0759467948A9584
:100BC000E1F7CE80DF8077E0C722DD24E091EB0102
:100BD000F091EC01E60DF71D608170E00C2C02C075
:100BE000759567950A94E2F760FF29C0692F822DF9
:100BF0002A833B834C835D8399830E944B04E0915D
:100C0000E901F091EA016E817F81E60FF71F6081B3
:100C100081E00E942104E091EB01F091EC01E60DEE
:100C2000F71DB20101C0660FCA94EAF76095808192
:100C30006823608399815D814C813B812A816E812B
:100C40007F816F5F7F4F7F836E83239470E42712D1
:100C5000B1CF80E8E80EF11C9F5F983009F0A4CF77
:100C60003394732D7170372E005C1F4F00381105BF
:100C700009F08BCF8092320190923301A09234011F
:100C8000B0923501309337012093360127960FB685
:100C9000F894DEBF0FBECDBFDF91CF911F910F91B2
:100CA000FF90EF90DF90CF90BF90AF909F908F908C
:100CB0007F906F905F904F903F902F9008950E948B
:100CC000490B009711F00E94B10A0895EF92FF922C
:100CD0000F931F93CF93DF93EC017B018A018885EB
:100CE00099850E9461068A859B850E946106F9822A
:100CF000E8821B830A83C801079697FD07969C012B
:100D000043E0359527954A95E1F7E29EC001E39EC1
:100D1000900DF29E900D11249F838E838C01095FAC
:100D20001F4F17FF02C0095F1F4F23E0159507955E
:100D30002A95E1F71D830C831816190624F40E94E6
:100D40001C0A99878887101611062CF4C8010E9486
:100D50001C0A9B878A8780E090E02E813F81821762
:100D600093073CF4E885F985E80FF91F1082019696
:100D7000F4CF80E090E02C813D81821793073CF412
:100D8000EA85FB85E80FF91F10820196F4CFDF9109
:100D9000CF911F910F91FF90EF9008951F920F92A6
:100DA0000FB60F9211242F933F934F935F936F933E
:100DB0007F938F939F93AF93BF93EF93FF9384E4BD
:100DC00091E00E942E03FF91EF91BF91AF919F910F
:100DD0008F917F916F915F914F913F912F910F90E4
:100DE0000FBE0F901F9018951F920F920FB60F9283
:100DF00011242F938F939F93EF93FF93E0915401CE
:100E0000F09155018081E0915A01F0915B0182FDE2
:100E100012C0908180915D018F5F8F7320915E0180
:100E2000821751F0E0915D01F0E0EC5BFE4F958F91
:100E300080935D0101C08081FF91EF919F918F911F
:100E40002F910F900FBE0F901F9018951F920F9229
:100E50000FB60F9211242F933F938F939F93AF93CD
:100E6000BF938091390190913A01A0913B01B091DB
:100E70003C013091380123E0230F2D3720F40196F7
:100E8000A11DB11D05C026E8230F0296A11DB11DAD
:100E9000209338018093390190933A01A0933B014C
:100EA000B0933C0180913D0190913E01A0913F01A2
:100EB000B09140010196A11DB11D80933D01909319
:100EC0003E01A0933F01B0934001BF91AF919F912C
:100ED0008F913F912F910F900FBE0F901F901895FB
:100EE000E4E4F1E01382128288EE93E0A0E0B0E047
:100EF00084839583A683B7838BE091E0918380837D
:100F000085EC90E09587848784EC90E097878687CE
:100F100080EC90E0918B808B81EC90E0938B828BC6
:100F200082EC90E0958B848B86EC90E0978B868B9F
:100F3000118E128E138E148EE3E0F2E081E090E0C9
:100F4000938382831482EEEFF1E093838283148291
:100F5000E1EEF1E0118A108A138A128A158A148A46
:100F6000178A168A808F128E118E148E138E40E08F
:100F700050E060E070E08DEE91E00C9466067894AD
:100F800084B5826084BD84B5816084BD85B582608E
:100F900085BD85B5816085BD80916E00816080933F
:100FA0006E001092810080918100826080938100A8
:100FB00080918100816080938100809180008160B8
:100FC000809380008091B10084608093B100809113
:100FD000B00081608093B00080917A00846080933B
:100FE0007A0080917A00826080937A0080917A0002
:100FF000816080937A0080917A00806880937A0083
:101000001092C1008CE08093E1018BE08093E201BB
:101010008AE08093E30181E18093E40180E18093A1
:10102000E5018FE08093E60180E88093E70180E4AA
:101030008093E80161E08CE00E945A0461E08091B5
:10104000E2010E945A0461E08091E3010E945A0487
:1010500061E08091E4010E945A0461E08091E50121
:101060000E945A0461E08091E6010E945A048AB10C
:101070008C6F8AB984B1836084B960E08091E101AA
:101080000E94C20360E08091E2010E94C20360E01E
:101090008091E3010E94C20360E08091E4010E941C
:1010A000C20360E08091E5010E94C20361E080918B
:1010B000E6010E94C2030E9496044B015C016EE1AE
:1010C000C62ED12CE12CF12C0E949604DC01CB0120
:1010D00088199909AA09BB09883E9340A105B10561
:1010E00058F021E0C21AD108E108F10888EE880E14
:1010F00083E0981EA11CB11CC114D104E104F104C9
:1011000019F761E08091E4010E94C20360E08091E0
:10111000E5010E94C20360EC80E00E9421046FE3BD
:1011200080E00E94210481E00E940E0460EC80E0D7
:101130000E9421046FE380E00E942104D1E001E0DD
:101140008D2F80270E940E04C0E06C2F80E00E944B
:101150004B0410E460E081E00E9421041150D1F7BB
:10116000CF5FC83091F7DD2311F0D0E0E9CF60E028
:1011700080E00E944B0440E450E060E870E08DEEB7
:1011800091E00E9466068091F5019091F60190939E
:10119000EA018093E9018091F7019091F801909321
:1011A000EC018093EB018EE0809341018DE0809310
:1011B000420161E08EE00E945A0460E08DE00E94EE
:1011C0005A0460E08EE00E94C203E0915401F09165
:1011D000550182E08083E0915001F091510110822D
:1011E000E0915201F091530187E6808310925C01F7
:1011F000E0915801F091590186E08083E091560119
:10120000F0915701808180618083E0915601F091D7
:101210005701808188608083E0915601F0915701E9
:10122000808180688083E0915601F0915701808130
:101230008F7D808324E0209303022093040281E0C9
:1012400080930001809105029091060234E0880F9E
:10125000991F3A95E1F70197909306028093050252
:1012600085E08093FE012093FF0180910002909120
:10127000010244E0880F991F4A95E1F70197909386
:101280000102809300025FE3C52ED12C11E0CFE371
:10129000D0E01093F9017601EC1AFD0A970140E0C5
:1012A00050E060E070E0CE010E94DD010E94120576
:1012B0001093F9012FE330E0A701B70180E090E03F
:1012C0000E94DD010E9412051093F9019E014FE377
:1012D00050E06FE370E0C7010E94DD010E9412053B
:1012E0001093F90120E030E0AE01BE018FE390E001
:1012F0000E94DD010E9412052297CF3F8FEFD80791
:1013000041F6CFE3D0E01092F9017601EC1AFD0A24
:10131000970140E050E060E070E0CE010E94DD0106
:101320000E9412051092F9012FE330E0A701B701E6
:1013300080E090E00E94DD010E9412051092F90108
:101340009E014FE350E06FE370E0C7010E94DD01B2
:101350000E9412051092F90120E030E0AE01BE01BA
:101360008FE390E00E94DD010E9412052297CF3F9B
:101370002FEFD20741F60E94B80389CFCF93DF93B6
:10138000C1EED1E08C899D890E9461068E899F897A
:10139000DF91CF910C94610697FB072E16F4009411
:1013A00007D077FD09D00E94020A07FC05D03EF461
:1013B000909581959F4F0895709561957F4F089501
:1013C000A1E21A2EAA1BBB1BFD010DC0AA1FBB1F49
:1013D000EE1FFF1FA217B307E407F50720F0A21BBB
:1013E000B30BE40BF50B661F771F881F991F1A9428
:1013F00069F760957095809590959B01AC01BD0152
:10140000CF010895AA1BBB1B51E107C0AA1FBB1F38
:10141000A617B70710F0A61BB70B881F991F5A9580
:10142000A9F780959095BC01CD010895EE0FFF1F9F
:101430000590F491E02D0994CF93DF9382309105CC
:1014400010F482E090E0E0910A02F0910B0220E0BB
:1014500030E0C0E0D0E0309711F140815181481771
:101460005907C0F04817590761F48281938120978A
:1014700019F09B838A832BC090930B0280930A02FE
:1014800026C02115310519F04217530718F49A01A7
:10149000BE01DF01EF010280F381E02DDCCF2115D9
:1014A000310509F1281B390B2430310590F41296CF
:1014B0008D919C9113976115710521F0FB01938328
:1014C000828304C090930B0280930A02FD0132963E
:1014D00044C0FD01E20FF31F819391932250310923
:1014E0002D933C933AC02091080230910902232B9E
:1014F00041F42091030130910401309309022093BB
:10150000080220910101309102012115310541F4B9
:101510002DB73EB74091050150910601241B350BB4
:10152000E0910802F0910902E217F307A0F42E1BE4
:101530003F0B2817390778F0AC014E5F5F4F241737
:10154000350748F04E0F5F1F509309024093080281
:101550008193919302C0E0E0F0E0CF01DF91CF9161
:1015600008950F931F93CF93DF93009709F48CC0D6
:10157000FC0132971382128200910A0210910B0231
:101580000115110581F420813181820F931F209173
:101590000802309109022817390779F5F0930902FA
:1015A000E093080271C0D80140E050E0AE17BF07D9
:1015B00050F412962D913C911397AD0121153105F0
:1015C00009F1D901F3CF9D01DA01338322836081D0
:1015D0007181860F971F8217930769F4EC012881A8
:1015E0003981260F371F2E5F3F4F318320838A8139
:1015F0009B8193838283452B29F4F0930B02E09324
:101600000A0242C01396FC93EE931297ED014991A2
:1016100059919E01240F351FE217F30771F4808161
:101620009181840F951F029611969C938E938281CF
:10163000938113969C938E931297E0E0F0E0D8018B
:1016400012968D919C911397009719F0F8018C01D7
:10165000F6CF8D919C9198012E5F3F4F820F931F83
:1016600020910802309109022817390769F4309750
:1016700029F410920B0210920A0202C01382128205
:101680001093090200930802DF91CF911F910F91EF
:10169000089581E090E0F8940C944E0B11E0CDE4B5
:1016A000D1E004C0FE010E94160A2196CE34D10773
:0616B000C9F7F894FFCF1A
:1016B6000100000C028000000000004F03CB02185E
:1016C60003F6020A039603474C434400436F6E74C5
:1016D600726F6C6C65720054657374004650533AB1
:0216E600000002
:00000001FF
