:100000000C9413050C943B050C943B050C943B0598
:100010000C943B050C943B050C943B050C943B0560
:100020000C943B050C943B050C943B050C943B0550
:100030000C943B050C943B050C943B050C943B0540
:100040000C94440A0C943B050C94120A0C94EC0991
:100050000C943B050C943B050C943B050C943B0520
:100060000C943B050C943B05000000002400270085
:100070002A0000000000250028002B0000000000DE
:1000800023002600290004040404040404040202DA
:100090000202020203030303030301020408102007
:1000A0004080010204081020010204081020000012
:1000B0000008000201000003040700000000000027
:1000C000000053616D706C653235366B6270730081
:1000D0000000000000004E5F4F5F4E5F312E7761E1
:1000E0007600000000000000000053616D706C6538
:1000F0003132386B627073000000000000004E5F08
:100100004F5F4E5F332E77617600000000000000E5
:10011000000053616D706C6536346B627073000063
:100120000000000000004E5F4F5F4E5F322E77618F
:10013000760000000000000000004261645F417032
:10014000706C652100000000000000000000425FAC
:10015000415F332E77617600000000000000000050
:1001600000004E696768744F664B6E696768747308
:100170000000000000004E5F4F5F4E5F312E776140
:1001800076000000000000000000426C6F6F644FBA
:100190006E426C6F6F640000000000000000626C33
:1001A0006F6F642E77617600000000000000000091
:1001B000000053796F757A796F5361746F726900BB
:1001C0000000000000007361746F72692E77617621
:1001D00000000000000000000000497353686555EE
:1001E0004E4F77656E000000000000000000554E85
:1001F0005F4F2E77617600000000000000000000D5
:1002000000004A7564676D656E744F66446F6C6C70
:100210007300000000006A5F6F5F642E77617600F4
:10022000000000000000000000004E6F4C69666591
:10023000517565656E0000000000000000004E4C26
:10024000512E7761760000000000000000000000E1
:100250000000534D48616E746569000000000000A5
:10026000000000000000696E75626F6B5F332E77CF
:10027000617600000000000000005377656574732C
:1002800050617261646500000000000000006B6155
:10029000727574615F312E77617600000000000096
:1002A000000052656E616943697263756C617469BF
:1002B0006F6E0000000073656E676F6B5F312E77A5
:1002C000617600000000000000004D6F75736F75CF
:1002D00000000000000000000000000000004D6F62
:1002E00075736F752E7761760000000000000000C6
:1002F0000000596F74756769446F6C6500000000F9
:10030000000000000000796F747567692E776176D0
:10031000000000000000000000004B616572696D84
:1003200069746900000000000000000000006B61BB
:100330006572692E77617600000000000000000001
:100340000000537461706C65537461626C650000E9
:100350000000000000005374615F5374612E7761E8
:1003600076000000000000000000506C6174696EAF
:10037000756D446973636F00000000000000506CED
:10038000614469732E776176000000000000000070
:1003900000004E6973654D6F6E6F454400000000AC
:1003A0000000000000004E69736545442E776176B9
:1003B0000000000000000000000053656E626F6ED8
:1003C0005A616B75726100000000000000007365E7
:1003D0006E626F6E2E7761760000000000000000F4
:1003E000000047616B6B6F4775726173686900004D
:1003F00000000000000047616B6B6F2E7761760094
:10040000000000000000000000004B756D616D6988
:100410006B6F44616E63696E6700000000004B758E
:100420006D612E7761760000000000000000000082
:100430000000596F756A6F53656E6B694544000023
:10044000000000000000596F756A6F2E776176001A
:10045000000000000000000000005A656E5A656E42
:100460005A656E73650000000000000000005A65C8
:100470006E73652E776176000000000000000000BA
:100480000000596F756B6F736F4A617061726950CC
:1004900061726B4500004B656D6F6E6F2E776176F4
:1004A00000000000000000000000496E6F63656EF0
:1004B00074466C6F77657200000000000000496EA2
:1004C0006F63656E2E77617600000000000000000B
:1004D00000004761627269656C44726F706F757479
:1004E00000000000000044726F6F75742E77617613
:1004F000000000000000000000004D6969726F00FC
:1005000000000000000000000000000000004D6935
:1005100069726F2E77617600000000000000000015
:1005200000004B61697A69310000000000000000A2
:100530000000000000006B61697A695F312E77610D
:10054000760000000000000000004D6F6E6F6761D4
:1005500074617269310000000000000000006261F7
:100560006B655F312E7761760000000000000000AF
:1005700000004D6F6E6F6761746172693200000038
:1005800000000000000062616B655F322E776176CB
:10059000000000000000000000004D6F6E6F6761FA
:1005A00074617269390000000000000000004261BF
:1005B0006B65392E776176000000000000000000B6
:1005C00000004D6F6E6F67617461726931300000B9
:1005D00000000000000042616B6531302E776176CB
:1005E000000000000000000000004D6F6E6F6761AA
:1005F00074617269322D31320000000000004D320A
:1006000031322E776176000000000000000000000B
:1006100000004D6F6E6F676174617269322D313405
:100620000000000000004D3231342E77617600006A
:10063000000000000000000000004D6F6E6F676159
:1006400074617269322D31350000000000004D32B6
:1006500031352E77617600000000000000000000B8
:1006600000004D6F6E6F676174617269322D3235B3
:100670000000000000004D3232352E776176000018
:10068000000000000000000000004D6F6E6F676109
:1006900074617269322D32360000000000004D3264
:1006A00032362E7761760000000000000000000066
:1006B00000004B6F796F6D6935000000000000008D
:1006C0000000000000004B6F796F352E77617600D7
:1006D0000000000000000000000054756B694D6FC1
:1006E0006E6F436F6D330000000000000000547512
:1006F0006B69436F6D2E776176000000000000008B
:100700000000507269736F6E5363686F6F6C3100D5
:10071000000000000000505F535F312E77617600CB
:1007200000000000000000000000507269736F6E4E
:100730005363686F6F6C3200000000000000505F70
:10074000535F322E77617600000000000000000049
:100750000000507269736F6E5363686F6F6C330083
:10076000000000000000505F535F332E7761760079
:1007700000000000000000000000507269736F6EFE
:100780005363686F6F6C3400000000000000505F1E
:10079000535F342E776176000000000000000000F7
:1007A0000000507269736F6E5363686F6F6C313005
:1007B000000000000000505F535F31302E776176FB
:1007C00000000000000000000000507269736F6EAE
:1007D0005363686F6F6C3131000000000000505FA0
:1007E000535F31312E776176000000000000000079
:1007F0000000507269736F6E5363686F6F6C3132B3
:10080000000000000000505F535F31322E776176A8
:1008100000000000000000000000507269736F6E5D
:100820005363686F6F6C4F564100000000005053D7
:100830004F2E7761760000000000000000000000ED
:100840000000000000000000004F0000000700074B
:1008500000147F147F14242A7F2A12231308646251
:1008600036495522500005030000001C22410000BB
:1008700041221C0014083E081408083E08080050D5
:100880003000000808080808006060000020100818
:1008900004023E5149453E00427F400042615149B9
:1008A000462141454B311814127F102745454539E3
:1008B0003C4A494930017109050336494949360620
:1008C0004949291E0036360000005636000008143B
:1008D000224100141414141400412214080201517E
:1008E0000906324979413E7E1111117E7F494949FD
:1008F000363E414141227F4141221C7F49494941C5
:100900007F090909013E4149497A7F0808087F00AB
:10091000417F41002040413F017F081422417F4038
:100920004040407F020C027F7F0408107F3E41411F
:10093000413E7F090909063E4151215E7F0919297F
:1009400046464949493101017F01013F4040403F4E
:100950001F2040201F3F4038403F631408146307A6
:10096000087008076151494543007F414100020476
:100970000810200041417F00040201020440404071
:100980004040000102040020545454787F484444FD
:10099000383844444420384444487F385454541828
:1009A000087E0901020C5252523E7F08040478006E
:1009B000447D40002040443D007F10284400004119
:1009C0007F40007C041804787C0804047838444490
:1009D00044387C14141408081414187C7C0804048B
:1009E000084854545420043F4440203C4040207C5C
:1009F0001C2040201C3C4030403C44281028440C23
:100A00005050503C4464544C4400083641000000AF
:100A10007F0000004136080008082A1C08081C2A2C
:100A200008088E0A720E11241FBECFEFD8E0DEBF79
:100A3000CDBF11E0A0E0B1E0EAE8FFE102C005901F
:100A40000D92A831B107D9F722E0A8E1B1E001C0C9
:100A50001D92AA30B207E1F715E0C2E1D5E004C06B
:100A60002197FE010E94800EC131D107C9F70E9473
:100A7000DD0A0C94B80F0C94000097FD62C0209121
:100A8000EB013091EC01821793070CF05AC077FD0F
:100A900058C04091ED015091EE01641775070CF0BC
:100AA00050C0FB0153E0F595E7955A95E1F7E29FB9
:100AB000A001E39F500DF29F500D1124840F951F4C
:100AC000E091F301F091F401E80FF91F40812091CA
:100AD000F70167707727222341F021E030E001C061
:100AE000220F6A95EAF7242B08C021E030E001C00C
:100AF000220F6A95EAF7209524232083E091F301E1
:100B0000F091F401E80FF91F20812417D1F09C0126
:100B100043E0359527954A95E1F7E091F501F0918D
:100B2000F601E20FF31F8770992721E030E0A90159
:100B300002C0440F551F8A95E2F7CA019081892BA4
:100B400080830895FC01ABE2B1E090E084918D9345
:100B50009F5F31969331D1F710923E010895CF9265
:100B6000DF92EF92FF920F931F93CF93DF936C016D
:100B700000E010E0C0E0D0E07601E00EF11EF701E9
:100B8000249130E00C2E02C0359527950A94E2F7A7
:100B900020FF0CC06091FA017091FB016C0F7D1F6A
:100BA0008091F8019091F9010E943D052196C8308D
:100BB000D10529F78091F8019091F9010196909360
:100BC000F9018093F8010F5F1F4F0530110591F671
:100BD000DF91CF911F910F91FF90EF90DF90CF9019
:100BE00008951F93CF93DF93CBE2D1E015E02991D5
:100BF0002223E9F080EE820F803618F088E898E032
:100C00000AC030E020523109129FC001139F900D9D
:100C100011248E5B974F0E94AF058091F80190914F
:100C2000F90101969093F9018093F801E0CFDF91EB
:100C3000CF911F910895CF92DF92EF92FF920F9381
:100C40001F93CF93DF936C017A018B01C0E0D0E05A
:100C5000CE15DF0589F0D8016D918D01D601ED919A
:100C6000FC910190F081E02DC6010995892B11F4CA
:100C70007E0102C02196ECCFC701DF91CF911F9179
:100C80000F91FF90EF90DF90CF900895FC01918D30
:100C9000828D981761F0828DDF01A80FB11D5D96DE
:100CA0008C91928D9F5F9F73928F90E008958FEF4C
:100CB0009FEF0895FC01918D828D981731F0828D00
:100CC000E80FF11D858D90E008958FEF9FEF089557
:100CD000FC01918D228D892F90E0805C9F4F821BBB
:100CE00091098F739927089582E491E00E94680624
:100CF00021E0892B09F420E0822F0895FC01848DE6
:100D0000DF01A80FB11DA35ABF4F2C91848D90E035
:100D100001968F739927848FA689B7892C93A08910
:100D2000B1898C9180648C93938D848D981306C0C7
:100D30000288F389E02D80818F7D80830895EF9272
:100D4000FF920F931F93CF93DF93EC0181E0888F85
:100D50009B8D8C8D981305C0E889F989808185FD6C
:100D600024C0F62E0B8D10E00F5F1F4F0F7311275D
:100D7000E02E8C8DE8120CC00FB607FCFACFE88984
:100D8000F989808185FFF5CFCE010E947E06F1CFE3
:100D90008B8DFE01E80FF11DE35AFF4FF0820B8FA0
:100DA000EA89FB898081806207C0EE89FF896083C0
:100DB000E889F98980818064808381E090E0DF9117
:100DC000CF911F910F91FF90EF900895CF93DF93F4
:100DD000EC01888D8823C9F0EA89FB89808185FD33
:100DE00005C0A889B9898C9186FD0FC00FB607FC94
:100DF000F5CF808185FFF2CFA889B9898C9185FFD5
:100E0000EDCFCE010E947E06E7CFDF91CF9108950E
:100E100080E090E0892B29F00E94740681110C94E7
:100E200000000895833081F028F4813099F08230F9
:100E3000A1F008958730A9F08830B9F08430D1F45A
:100E4000809180008F7D03C0809180008F77809398
:100E50008000089584B58F7702C084B58F7D84BDEE
:100E600008958091B0008F7703C08091B0008F7D8E
:100E70008093B0000895CF93DF93282F30E0F901DD
:100E8000E255FF4F8491F901E656FF4FD491F901E5
:100E9000EA57FF4FC491CC2391F081110E941207B1
:100EA000EC2FF0E0EE0FFF1FE458FF4FA591B49137
:100EB000EC91ED2381E090E021F480E002C080E03D
:100EC00090E0DF91CF9108951F93CF93DF93282F68
:100ED00030E0F901E255FF4F8491F901E656FF4FEA
:100EE000D491F901EA57FF4FC491CC23C9F0162FD2
:100EF00081110E941207EC2FF0E0EE0FFF1FEE5859
:100F0000FF4FA591B4918FB7F894111105C09C9132
:100F1000ED2FE095E92302C0EC91ED2BEC938FBF10
:100F2000DF91CF911F910895811107C061E08091F9
:100F3000E2010E94640760E006C060E08091E20187
:100F40000E94640761E08091E3010C9464071F93A1
:100F5000CF93DF93162FCFEDD1E0682F88810E94C9
:100F60006407612F70E02BB1CB01880F991F880FA8
:100F7000991F922F9370892B8BB985B146E0759597
:100F800067954A95E1F78C7F682B65B961E08A81A6
:100F90000E94640760E08A81DF91CF911F910C94D9
:100FA0006407CF93C62F8F73682F606480E00E9420
:100FB000A7076C2F6770686B80E0CF910C94A70730
:100FC0005F926F927F928F929F92AF92BF92CF92D9
:100FD000DF92EF92FF920F931F93CF93DF93C12C79
:100FE000D12CC0E0EE24E394F12C8C2F81700E9470
:100FF0009407512CA12CB12C85010C0D1D1DD0E0A6
:10100000380183E0759467948A95E1F7480187E099
:1010100088229924E091E901F091EA01E60DF71D9B
:10102000208130E0082C02C0359527950A94E2F71C
:1010300020FF1DC0652D8D2F0E94D107E091E70193
:10104000F091E801E00FF11F608181E00E94A707A5
:10105000E091E901F091EA01E60DF71D970101C069
:10106000220F8A94EAF720958081282320830F5F3E
:101070001F4FDF5FD03421F680E8A80EB11C5394D7
:1010800088E05812B9CFCF5FC17080E4C80ED11C80
:1010900080E8C816D10409F0A8CFDF91CF911F9145
:1010A0000F91FF90EF90DF90CF90BF90AF909F9007
:1010B0008F907F906F905F90089561E080913F01E5
:1010C0000E946407809140010E943B07892BD1F761
:1010D00060E080913F010C9464070E945D0862E02B
:1010E00082E491E00E949F06809140010E943B07AC
:1010F000892BD1F380914101823031F480914001FC
:101100000E943B07892BD1F70895CF93DF9390E09E
:10111000FC01E656FF4F2491FC01EA57FF4F8491F2
:10112000882361F190E0880F991FFC01E859FF4F77
:10113000C591D491FC01EE58FF4FA591B491611176
:1011400009C09FB7F8948881209582238883EC9109
:101150002E230BC0623061F49FB7F8943881822F40
:10116000809583238883EC912E2B2C939FBF06C000
:101170008FB7F894E8812E2B28838FBFDF91CF9112
:1011800008953FB7F89480911D0190911E01A091A0
:101190001F01B091200126B5A89B05C02F3F19F073
:1011A0000196A11DB11D3FBFBA2FA92F982F8827E7
:1011B000820F911DA11DB11DBC01CD0142E0660F42
:1011C000771F881F991F4A95D1F708958F929F9294
:1011D000AF92BF92CF92DF92EF92FF926B017C01B0
:1011E0000E94C1084B015C01C114D104E104F10467
:1011F000F1F00E94C108DC01CB0188199909AA0904
:10120000BB09883E9340A105B10570F321E0C21AE5
:10121000D108E108F10888EE880E83E0981EA11C31
:10122000B11CC114D104E104F10419F7DDCFFF9022
:10123000EF90DF90CF90BF90AF909F908F900895E8
:10124000FC0190819E3008F09E5097702091000123
:1012500080E4289F90011124922B90937C00909120
:101260007A00906490937A0080917A0086FDFCCF9A
:10127000209178008091790030E0382B0280F38152
:10128000E02D319660E070E040E050E080E026170D
:1012900037076CF04E0F5F1FDA01AA0FBB1FA115B5
:1012A000B44014F08F5F54506F5F7F4FF0CF0895BC
:1012B000CF93C82F809341010E945D0861E082E4D2
:1012C00091E00E949F066C2F82E491E00E949F06AD
:1012D000EBE2F1E001900020E9F73197AF014B52CA
:1012E00051406BE271E082E491E00E941B0660E0F5
:1012F00082E491E0CF910C949F060E94B30F009777
:1013000011F00E941B0F0895EF92FF920F931F930D
:10131000CF93DF93EC017B018A01888599850E9438
:101320007F098A859B850E947F09F982E8821B8359
:101330000A83C801079697FD07969C0143E03595FF
:1013400027954A95E1F7E29EC001E39E900DF29E3B
:10135000900D11249F838E838C01095F1F4F17FF0F
:1013600002C0095F1F4F23E0159507952A95E1F705
:101370001D830C831816190624F40E94860E998783
:101380008887101611062CF4C8010E94860E9B87D0
:101390008A8780E090E02E813F81821793073CF49A
:1013A000E885F985E80FF91F10820196F4CF80E0F7
:1013B00090E02C813D81821793073CF4EA85FB8500
:1013C000E80FF91F10820196F4CFDF91CF911F91A2
:1013D0000F91FF90EF9008951F920F920FB60F920A
:1013E00011242F933F934F935F936F937F938F932A
:1013F0009F93AF93BF93EF93FF9382E491E00E949A
:101400007E06FF91EF91BF91AF919F918F917F9158
:101410006F915F914F913F912F910F900FBE0F9061
:101420001F9018951F920F920FB60F9211242F93B1
:101430008F939F93EF93FF93E0915201F0915301AB
:101440008081E0915801F091590182FD12C0908194
:1014500080915B018F5F8F7320915C01821751F047
:10146000E0915B01F0E0EE5BFE4F958F80935B01B6
:1014700001C08081FF91EF919F918F912F910F90EB
:101480000FBE0F901F9018951F920F920FB60F92DC
:1014900011242F933F938F939F93AF93BF9380918A
:1014A000190190911A01A0911B01B0911C0130917A
:1014B000180123E0230F2D3720F40196A11DB11D43
:1014C00005C026E8230F0296A11DB11D2093180127
:1014D0008093190190931A01A0931B01B0931C01F2
:1014E00080911D0190911E01A0911F01B0912001DA
:1014F0000196A11DB11D80931D0190931E01A09323
:101500001F01B0932001BF91AF919F918F913F91A7
:101510002F910F900FBE0F901F901895E2E4F1E00D
:101520001382128288EE93E0A0E0B0E0848395837A
:10153000A683B7838BE091E09183808385EC90E074
:101540009587848784EC90E09787868780EC90E08D
:10155000918B808B81EC90E0938B828B82EC90E07E
:10156000958B848B86EC90E0978B868B118E128EF8
:10157000138E148EE1E0F2E081E090E093838283A9
:101580001482ECEFF1E0938382831482EFEDF1E0BB
:10159000118A108A138A128A158A148A178A168A5F
:1015A000808F128E118E148E138E40E050E060E01A
:1015B00070E08BEE91E00C948409CF93DF9300D020
:1015C00000D0CDB7DEB7789484B5826084BD84B591
:1015D000816084BD85B5826085BD85B5816085BD2E
:1015E00080916E00816080936E00109281008091E6
:1015F000810082608093810080918100816080936E
:101600008100809180008160809380008091B10092
:1016100084608093B1008091B00081608093B000BD
:1016200080917A00846080937A0080917A00826051
:1016300080937A0080917A00816080937A00809113
:101640007A00806880937A001092C1008CE08093C9
:10165000DF018BE08093E0018AE08093E10181E18A
:101660008093E20180E18093E3018FE08093E401C5
:1016700080E88093E50180E48093E60161E08CE0FE
:101680000E94850861E08091E0010E94850861E088
:101690008091E1010E94850861E08091E2010E9451
:1016A000850861E08091E3010E94850861E08091F6
:1016B000E4010E9485088AB18C6F8AB984B1836085
:1016C00084B960E08091DF010E94640760E080914E
:1016D000E0010E94640760E08091E1010E946407DC
:1016E00060E08091E2010E94640760E08091E30184
:1016F0000E94640761E08091E4010E9464076EE14A
:1017000070E080E090E00E94E60861E08091E201F4
:101710000E94640760E08091E3010E94640760EC2E
:1017200080E00E94A7076FE380E00E94A70781E0A6
:101730000E94940760EC80E00E94A7076FE380E0BE
:101740000E94A707EE24E39401E08E2D817080278C
:101750000E949407F12C6F2D80E00E94D10710E4C5
:1017600060E081E00E94A7071150D1F7F39428E0D0
:10177000F212F1CF32E0E31619F0E2E0EE2EE5CFFF
:1017800060E080E00E94D10740E450E060E870E053
:101790008BEE91E00E9484098091F3019091F40115
:1017A0009093E8018093E7018091F5019091F60113
:1017B0009093EA018093E9018EE080933F018DE0F0
:1017C0008093400161E08EE00E94850860E08DE03A
:1017D0000E94850860E08EE00E946407E09152015B
:1017E000F0915301E082E0914E01F0914F0110829F
:1017F000E0915001F091510187E6808310925A01E7
:10180000E0915601F091570186E08083E091540108
:10181000F0915501808180618083E0915401F091C5
:101820005501808188608083E0915401F0915501D9
:10183000808180688083E0915401F091550180811E
:101840008F7D808324E0209301022093020231E007
:1018500030930001809103029091040244E0880FCC
:10186000991F4A95E1F70197909304028093030230
:1018700085E08093FC012093FD018091FE01909111
:10188000FF0154E0880F991F5A95E1F70197909353
:10189000FF018093FE0180E38093260110922701CF
:1018A0001092250110922A01109224011092290110
:1018B00010922801109222011092210130932301ED
:1018C00062E0462E79E6572E80912A018230B1F5EA
:1018D0008091280190912901892B81F58091270120
:1018E0008F5F809327019091260187FF04C08FEFBF
:1018F000890F8093270180912701891714F0109296
:10190000270120912701209325014092240138E2EC
:101910002303C00111248A529F4F0E94A20580E038
:1019200090E00E9458090E946D0868EE73E080E024
:1019300090E00E94E60881E0809323018CEF91E023
:101940000E942009109100021F701823109518237F
:101950008093000281E092E00E94200990910502AC
:1019600099709823909598238093050290FF08C062
:10197000809124018F5F8093240121E02093230133
:1019800093FF08C08091240181508093240131E0AD
:10199000309323018091240187FD4092240180919E
:1019A0002401833014F01092240192FF08C080912A
:1019B00025018F5F8093250181E08093230191FFB2
:1019C00008C08091250181508093250121E020935A
:1019D0002301909125018091260197FF04C09FEF7C
:1019E000980F9093250190912501981714F010926B
:1019F000250112FF1BC02091250120932701009192
:101A0000240100932A0138E22303C00111248A52E1
:101A10009F4F0E94A205013019F080E090E002C0C3
:101A200081E090E00E9458090E946D0813FF04C0F5
:101A300010922A010E945D08809140010E943B079C
:101A40002091280130912901309322012093210116
:101A5000892B39F081E090E090932901809328014F
:101A600004C0109229011092280120902801309082
:101A7000290180912101909122018215930519F08D
:101A800081E08093230180912301882309F421C1FF
:101A90001092F7010091ED011091EE01C090EB0161
:101AA000D090EC0176011C141D0414F4E12CF12CEF
:101AB0000F5F1F4F44275527401B510BCE14DF04E7
:101AC00044F1101611061CF02FEF3FEF02C021E089
:101AD00030E0380117FD3A01A12CB12C812C912C5A
:101AE000A614B70491F0B401C70129833A834B834C
:101AF0005C830E943D0529813A81820E931E8FEFFF
:101B0000A81AB80A5C814B81EBCF2FEFE21AF20AD8
:101B1000D5CF0E94E00731E03093F7018DE4809348
:101B20002B0125E620932C0134E630932D015092B1
:101B30002E0111E610932F0180E5E82EE09230018E
:101B40009CE6F92EF09231011093320109E70093DF
:101B500033012093340182E78093350110923601DE
:101B60001092F9011092F8011092FB011092FA0103
:101B70000E94F1058091FA019091FB014496109228
:101B8000F9011092F8019093FB018093FA012091E2
:101B9000250138E22303C00111248E539F4F0E9478
:101BA000A2050E94F10521143104B1F02A942328E2
:101BB00009F5E0922B01F0922C0110932D01009376
:101BC0002E0150922F018EE68093300187E680939C
:101BD0003101109232010EC083E580932B0184E71E
:101BE00080932C018FE680932D0180E780932E0156
:101BF00010922F018091FA019091FB010A9626E440
:101C000030E03093F9012093F8019093FB01809329
:101C1000FA010E94F105809124018130A9F08230FF
:101C200039F1811141C08EE480932B018FE68093BE
:101C30002C0182E780932D018DE680932E0181E6B1
:101C400080932F018CE60FC082E580932B0135E64F
:101C500030932C0180E780932D0130932E0181E693
:101C600080932F0184E780933001109231011CC0D2
:101C700083E480932B019FE690932C018EE6809362
:101C80002D0124E720932E0150922F0180933001E3
:101C900085E780933101909332018093330183E78C
:101CA00080933401109235018091FA019091FB01EB
:101CB00049962CE330E03093F9012093F80190939A
:101CC000FB018093FA010E94F1050E94E007109247
:101CD00023016AE070E080E090E00E94E6080E9444
:101CE0000807F2CDCF93DF93CFEDD1E08C899D89AA
:101CF0000E947F098E899F89DF91CF910C947F0983
:101D0000EE0FFF1F0590F491E02D0994CF93DF9320
:101D10008230910510F482E090E0E0910802F091A9
:101D2000090220E030E0C0E0D0E0309711F14081BE
:101D3000518148175907C0F04817590761F482814B
:101D40009381209719F09B838A832BC0909309027B
:101D50008093080226C02115310519F04217530758
:101D600018F49A01BE01DF01EF010280F381E02D3A
:101D7000DCCF2115310509F1281B390B2430310541
:101D800090F412968D919C9113976115710521F035
:101D9000FB019383828304C090930902809308021D
:101DA000FD01329644C0FD01E20FF31F8193919330
:101DB000225031092D933C933AC020910602309174
:101DC0000702232B41F42091030130910401309349
:101DD0000702209306022091010130910201211592
:101DE000310541F42DB73EB74091050150910601F0
:101DF000241B350BE0910602F0910702E217F3076E
:101E0000A0F42E1B3F0B2817390778F0AC014E5F6A
:101E10005F4F2417350748F04E0F5F1F509307029E
:101E2000409306028193919302C0E0E0F0E0CF017D
:101E3000DF91CF9108950F931F93CF93DF93009776
:101E400009F48CC0FC0132971382128200910802BF
:101E5000109109020115110581F420813181820F51
:101E6000931F20910602309107022817390779F550
:101E7000F0930702E093060271C0D80140E050E001
:101E8000AE17BF0750F412962D913C911397AD01F8
:101E90002115310509F1D901F3CF9D01DA01338311
:101EA000228360817181860F971F8217930769F4DF
:101EB000EC0128813981260F371F2E5F3F4F318378
:101EC00020838A819B8193838283452B29F4F0931D
:101ED0000902E093080242C01396FC93EE93129716
:101EE000ED01499159919E01240F351FE217F30727
:101EF00071F480819181840F951F029611969C93B5
:101F00008E938281938113969C938E931297E0E037
:101F1000F0E0D80112968D919C911397009719F0DB
:101F2000F8018C01F6CF8D919C9198012E5F3F4F67
:101F3000820F931F2091060230910702281739075C
:101F400069F4309729F4109209021092080202C035
:101F5000138212821093070200930602DF91CF9141
:101F60001F910F91089581E090E0F8940C94B80FC0
:101F700015E0C2E1D5E004C0FE010E94800E21966A
:0A1F8000C331D107C9F7F894FFCF71
:101F8A000100000A028000000000009F061B06688C
:081F9A000646065A06E60600A1
:00000001FF
