:100000000C9441040C9469040C9469040C946904E4
:100010000C9469040C9469040C9469040C946904AC
:100020000C9469040C9469040C9469040C9469049C
:100030000C9469040C9469040C9469040C9469048C
:100040000C9417070C9469040C9416060C94F00594
:100050000C9469040C9469040C9469040C9469046C
:100060000C9469040C9469044F6E69412E77617693
:100070000047616D65436C65617221004F6E694296
:100080002E776176004E6578744C6576656C2E2E01
:100090002E005374616765436C6561722100596F6E
:1000A00077612E77617600546173756B652E776189
:1000B000760047616D654F7665722E2E2E00010128
:1000C0000101010101010101010101020000000023
:1000D000000000000000010000000000000000001F
:1000E000000001000000000001030000000001000A
:1000F00000000000010300000000010300000000F8
:1001000001030000000001030000000001030000E3
:1001100000000103000000000000000000000103D7
:1001200000000000000000000000010300000000CB
:1001300000000000000001030000000000000000BB
:1001400000000103000004000000000000000103A3
:100150000000000000000000000001010101010199
:10016000010101010101010101010101010101017F
:100170000101010200000001010000010000010076
:10018000000000010100000000000101010000006A
:10019000000000000000000001010100000000005C
:1001A0000000000000000101010101000001010048
:1001B000000000000000000000010000000000003E
:1001C000000000000001000000000000000000002E
:1001D0000103000000000000000101010100000017
:1001E0000000000001000000010001010101000009
:1001F00000000100010001030101000001010100F4
:1002000001000100010100000101010001000104E1
:1002100000010000010101000100010000010000D7
:1002200001010103010001000001000001010103BF
:1002300001000100000100000000000001000100B9
:1002400000010000010101000000010000010000A8
:100250000101010101010100000000000000000097
:100260000000010101010101010101010101010180
:100270000101010101010101010101000000000073
:10028000000000000000010200000000000000006B
:10029000000001000000000100000000000001015A
:1002A000000000010000000000000101010000004A
:1002B000000000000000000000000000000001003D
:1002C000000000000000000000010000000001012B
:1002D000010000000001000000000101000000001A
:1002E0000001030000000100000000000100000008
:1002F00000000100000000000100000000000000FC
:1003000000000000000000000000000000000000ED
:1003100000000000000000000000000000000000DD
:1003200000000100000000000000000000000101CA
:1003300001000000000000000000010301010000B6
:1003400000000000000001000001010100000000A9
:100350000000010000000101000000000000010099
:100360000000000101010400000001000000000184
:10037000010103000000010101010101010101016E
:1003800001014D6F75736F752E7761760073656E21
:10039000676F6B5F312E776176005374616765001C
:1003A0004E6164656B6F4461594F210073656E67E0
:1003B0006F6B5F312E776176004E614461796F2EED
:1003C000776176004E6164656B6F4461594F21001F
:1003D000000000000000000000000000000000001D
:1003E0000000000003000008030F001EF818011CA5
:1003F000F9DF003F7F24003F0FC2073FFFD7FF37E1
:1004000013887F740080FF7C00C7FF7E01E5FF7CBE
:1004100041F0FF7F11C8F77F1FC47F7FF9E27F7E25
:10042000039F7F7C37E07F7CFDE0317EF55BF07FD2
:100430000F3F003E0F30003F3360003F8320003C01
:10044000011B011C00060008030000000100000061
:1004500000000000000000000000006000000078C4
:100460000000003E0060C41F00987BFF0007FFFFF4
:10047000C080FEFF0080FFFF2000FEFF1080DFFF36
:10048000108037F810C0F7F008C0F73108C0F5E069
:100490000400392004900960049811200CDC11201C
:1004A000141C31E0289C7140C8DDF13008BEF11009
:1004B00010BC71F8207C71FE20F8F3FFC0F8FBFF40
:1004C00000F1FFFF00E4FFFF00F8FD7F0060E0FFA8
:1004D000000000F8000000003C0A67F3CEC4F83EBC
:1004E0003EF8C4CEF3670A3C000000000000F001B3
:1004F000F8BA7DFC3FFD7E6CFC7CFCFDFCFDF8BB8E
:10050000F001000000000000000000000000F00109
:10051000F8BA7CFCBEFD7F6CFD7CFCFDFCFDF8BBED
:10052000F00100000000000060007800CE03C2BEB1
:1005300083EC83FB822386218443CC4F786F307217
:10054000003000000000000060007800CE03C2BE52
:1005500083E4836F826B86D9843BCC17781730167F
:100560000014001C000C000000000000000000301F
:100570003072786FCC4F84438621822383FB83ECD7
:10058000C2BECE03780060000000000C001C001406
:1005900030167817CC17843B86D9826B836F83E43F
:1005A000C2BECE03780060000000000024002700D7
:1005B0002A0000000000250028002B000000000099
:1005C0002300260029000404040404040404020295
:1005D00002020202030303030303010204081020C2
:1005E00040800102040810200102040810200000CD
:1005F00000080002010000030407000000000000E2
:1006000000000101010101010101010101010100DD
:1006100000000100000000000001010200000100D4
:1006200000000000000101000000000000000000C8
:1006300000010101000000000000000000010101B4
:1006400001000000000000000001010000010101A4
:100650000103000000010100000000000100000093
:100660000001010000000000010000000001010085
:100670000000000000000000000101040000000074
:100680000000010000000100000000000000010067
:100690000000010101010101010101000000000051
:1006A00000000000004F00000007000700147F1446
:1006B0007F14242A7F2A12231308646236495522A4
:1006C000500005030000001C2241000041221C00D4
:1006D00014083E081408083E0808005030000008BE
:1006E00008080808006060000020100804023E515D
:1006F00049453E00427F4000426151494621414503
:100700004B311814127F1027454545393C4A494959
:100710003001710905033649494936064949291E00
:10072000003636000000563600000814224100143E
:10073000141414140041221408020151090632490C
:1007400079413E7E1111117E7F494949363E414132
:1007500041227F4141221C7F494949417F090909C2
:10076000013E4149497A7F0808087F00417F4100E6
:100770002040413F017F081422417F404040407F9C
:10078000020C027F7F0408107F3E4141413E7F09F9
:100790000909063E4151215E7F091929464649490A
:1007A000493101017F01013F4040403F1F2040206F
:1007B0001F3F4038403F6314081463070870080760
:1007C0006151494543007F41410002040810200067
:1007D00041417F00040201020440404040400001CA
:1007E00002040020545454787F4844443838444428
:1007F0004420384444487F3854545418087E090132
:10080000020C5252523E7F0804047800447D40009E
:100810002040443D007F1028440000417F40007C80
:10082000041804787C0804047838444444387C1460
:10083000141408081414187C7C0804040848545440
:100840005420043F4440203C4040207C1C20402059
:100850001C3C4030403C44281028440C5050503C34
:100860004464544C44000836410000007F000000FE
:100870004136080008082A1C08081C2A0808F21A31
:10088000DE1A11241FBECFEFD8E0DEBFCDBF11E0CE
:10089000A0E0B1E0EAEBFFE302C005900D92AE3FAD
:1008A000B107D9F722E0AEEFB1E001C01D92AA3D39
:1008B000B207E1F714E0C0E4D4E004C02197FE01E0
:1008C0000E94B01BCF33D107C9F70E94010D0C94D1
:1008D000D01F0C940000CF92DF92EF92FF920F9303
:1008E0001F93CF93DF936C017A018B01C0E0D0E0BE
:1008F000CE15DF0589F0D8016D918D01D601ED91FE
:10090000FC910190F081E02DC6010995892B11F42D
:100910007E0102C02196ECCFC701DF91CF911F91DC
:100920000F91FF90EF90DF90CF900895FC01918D93
:10093000828D981761F0828DDF01A80FB11D5D9641
:100940008C91928D9F5F9F73928F90E008958FEFAF
:100950009FEF0895FC01918D828D981731F0828D63
:10096000E80FF11D858D90E008958FEF9FEF0895BA
:10097000FC01918D228D892F90E0805C9F4F821B1E
:1009800091098F73992708958CE092E00E94B80432
:1009900021E0892B09F420E0822F0895FC01848D49
:1009A000DF01A80FB11DA35ABF4F2C91848D90E099
:1009B00001968F739927848FA689B7892C93A08974
:1009C000B1898C9180648C93938D848D981306C02B
:1009D0000288F389E02D80818F7D80830895EF92D6
:1009E000FF920F931F93CF93DF93EC0181E0888FE9
:1009F0009B8D8C8D981305C0E889F989808185FDD0
:100A000024C0F62E0B8D10E00F5F1F4F0F731127C0
:100A1000E02E8C8DE8120CC00FB607FCFACFE889E7
:100A2000F989808185FFF5CFCE010E94CE04F1CFF8
:100A30008B8DFE01E80FF11DE35AFF4FF0820B8F03
:100A4000EA89FB898081806207C0EE89FF89608323
:100A5000E889F98980818064808381E090E0DF917A
:100A6000CF911F910F91FF90EF900895CF93DF9357
:100A7000EC01888D8823C9F0EA89FB89808185FD96
:100A800005C0A889B9898C9186FD0FC00FB607FCF7
:100A9000F5CF808185FFF2CFA889B9898C9185FF38
:100AA000EDCFCE010E94CE04E7CFDF91CF91089524
:100AB00080E090E0892B29F00E94C40481110C94FD
:100AC00000000895833081F028F4813099F082305D
:100AD000A1F008958730A9F08830B9F08430D1F4BE
:100AE000809180008F7D03C0809180008F778093FC
:100AF0008000089584B58F7702C084B58F7D84BD52
:100B000008958091B0008F7703C08091B0008F7DF1
:100B10008093B00008953FB7F894809105029091BA
:100B20000602A0910702B091080226B5A89B05C055
:100B30002F3F19F00196A11DB11D3FBFBA2FA92F5C
:100B4000982F8827820F911DA11DB11DBC01CD01D9
:100B500042E0660F771F881F991F4A95D1F70895C5
:100B60000E94501E009711F00E94EE1C08950F93F2
:100B70001F93CF93DF93EC0188819981009729F02F
:100B80002A813B812617370788F48B016F5F7F4FDF
:100B90000E94861D009761F0998388831B830A83D6
:100BA0002C813D81232B11F4FC01108281E001C0D6
:100BB00080E0DF91CF911F910F910895CF93DF9344
:100BC000EC0188819981009711F00E94EE1C198236
:100BD00018821D821C821B821A82DF91CF91089598
:100BE0001F920F920FB60F9211242F933F934F93A2
:100BF0005F936F937F938F939F93AF93BF93EF9385
:100C0000FF938CE092E00E94CE04FF91EF91BF91A0
:100C1000AF919F918F917F916F915F914F913F9194
:100C20002F910F900FBE0F901F9018951F920F924B
:100C30000FB60F9211242F938F939F93EF93FF93EF
:100C4000E0911C02F0911D028081E0912202F0915E
:100C5000230282FD12C09081809125028F5F8F73E5
:100C600020912602821751F0E0912502F0E0E45F26
:100C7000FD4F958F8093250201C08081FF91EF91F8
:100C80009F918F912F910F900FBE0F901F901895ED
:100C9000CF93DF93282F30E0F901E251FA4F84918E
:100CA000F901E652FA4FD491F901EA53FA4FC4918F
:100CB000CC2391F081110E946205EC2FF0E0EE0F41
:100CC000FF1FE454FA4FA591B491EC91ED2381E01C
:100CD00090E021F480E002C080E090E0DF91CF91CD
:100CE00008951F93CF93DF93282F30E0F901E2514D
:100CF000FA4F8491F901E652FA4FD491F901EA537F
:100D0000FA4FC491CC23C9F0162F81110E946205BD
:100D1000EC2FF0E0EE0FFF1FEE54FA4FA591B491C7
:100D20008FB7F894111105C09C91ED2FE095E92340
:100D300002C0EC91ED2BEC938FBFDF91CF911F910F
:100D40000895CF93DF9390E0FC01E652FA4F24918F
:100D5000FC01EA53FA4F8491882361F190E0880FF7
:100D6000991FFC01E855FA4FC591D491FC01EE544E
:100D7000FA4FA591B491611109C09FB7F894888189
:100D8000209582238883EC912E230BC0623061F47E
:100D90009FB7F8943881822F809583238883EC91C4
:100DA0002E2B2C939FBF06C08FB7F894E8812E2B73
:100DB00028838FBFDF91CF9108958F929F92AF923A
:100DC000BF92CF92DF92EF92FF926B017C010E9463
:100DD0008B054B015C01C114D104E104F104F1F075
:100DE0000E948B05DC01CB0188199909AA09BB096E
:100DF000883E9340A105B10570F321E0C21AD108E5
:100E0000E108F10888EE880E83E0981EA11CB11C51
:100E1000C114D104E104F10419F7DDCFFF90EF9084
:100E2000DF90CF90BF90AF909F908F9008951F92CA
:100E30000F920FB60F9211242F933F938F939F938E
:100E4000AF93BF938091010290910202A09103029F
:100E5000B09104023091000223E0230F2D3720F4DB
:100E60000196A11DB11D05C026E8230F0296A11D04
:100E7000B11D209300028093010290930202A0937F
:100E80000302B09304028091050290910602A091A2
:100E90000702B09108020196A11DB11D80930502C1
:100EA00090930602A0930702B0930802BF91AF91FE
:100EB0009F918F913F912F910F900FBE0F901F9098
:100EC0001895813041F06CF0823041F0833049F464
:100ED00088E295E008C088E695E005C088E495E0E2
:100EE00002C088E895E00C94D60A882329F0813066
:100EF00019F488EE94E002C088E095E00C94D60ADC
:100F0000EFEAF2E0108E268537854485558560E04E
:100F100070E080E090E00E9486090C94EC09882340
:100F200029F0813019F488ED94E002C080EE94E05D
:100F30000C94940AEF92FF920F931F93CF93DF9339
:100F4000DC019C919E3008F09E509770209100012A
:100F500080E4289F90011124922B90937C00809133
:100F60007A00806480937A0080917A0086FDFCCFBD
:100F7000E091780080917900F0E0F82B12960D91C5
:100F80001C9113970F5F1F4FC0E0D0E080E090E00E
:100F900020E0EC17FD076CF0800F911F7C01EE0C38
:100FA000FF1CE11434E0F30614F02F5F94502196F7
:100FB000F0CF14969C9114974923422340954223E5
:100FC000FB01408314962C93DF91CF911F910F91D9
:100FD000FF90EF900895EF92FF920F931F93CF939E
:100FE000DF93EC017B018A01888599850E94B20517
:100FF0008A859B850E94B205F982E8821B830A8359
:10100000C801079697FD07969C0143E03595279503
:101010004A95E1F7E29EC001E39E900DF29E900D8D
:1010200011249F838E838C01095F1F4F17FF02C01D
:10103000095F1F4F23E0159507952A95E1F71D835A
:101040000C831816190624F40E94591C9987888766
:10105000101611062CF4C8010E94591C9B878A8720
:1010600080E090E02E813F81821793073CF4E88571
:10107000F985E80FF91F10820196F4CF80E090E027
:101080002C813D81821793073CF4EA85FB85E80FAC
:10109000F91F10820196F4CFDF91CF911F910F912C
:1010A000FF90EF90089597FD62C02091BB023091B0
:1010B000BC02821793070CF05AC077FD58C04091CC
:1010C000BD025091BE02641775070CF050C0FB01C1
:1010D00053E0F595E7955A95E1F7E29FA001E39F6C
:1010E000500DF29F500D1124840F951FE091C30203
:1010F000F091C402E80FF91F40812091C702677088
:101100007727222341F021E030E001C0220F6A95C9
:10111000EAF7242B08C021E030E001C0220F6A95D5
:10112000EAF7209524232083E091C302F091C402C2
:10113000E80FF91F20812417D1F09C0143E0359579
:1011400027954A95E1F7E091C502F091C602E20FBA
:10115000F31F8770992721E030E0A90102C0440FF6
:10116000551F8A95E2F7CA019081892B80830895E3
:10117000CF92DF92EF92FF920F931F93CF93DF9363
:101180006C0100E010E0C0E0D0E07601E00EF11E5E
:10119000F701249130E00C2E02C0359527950A9472
:1011A000E2F720FF0CC06091CA027091CB026C0F75
:1011B0007D1F8091C8029091C9020E945308219618
:1011C000C830D10529F78091C8029091C9020196D3
:1011D0009093C9028093C8020F5F1F4F053011051D
:1011E00091F6DF91CF911F910F91FF90EF90DF90DB
:1011F000CF90089561E0809109020E94710680916C
:101200000A020E944806892BD1F760E0809109020A
:101210000C947106811107C061E08091B2020E94B6
:10122000710660E006C060E08091B2020E94710623
:1012300061E08091B3020C9471061F93CF93DF930A
:10124000162FCFEAD2E0682F88810E947106612FA5
:1012500070E02BB1CB01880F991F880F991F922F37
:101260009370892B8BB985B146E0759567954A9542
:10127000E1F78C7F682B65B961E08A810E94710675
:1012800060E08A81DF91CF911F910C9471060E94DA
:10129000FA0862E08CE092E00E94EF0480910A027A
:1012A0000E944806892BD1F380910B02823031F4E1
:1012B00080910A020E944806892BD1F70895209157
:1012C00003013091040182179307ECF497FD1BC0D2
:1012D000209101013091020162177307A4F477FD98
:1012E00012C0289FF001299FF00D389FF00D1124A6
:1012F0006E0F7F1FE0910701F0910801E60FF71FC5
:10130000849190E0089580E090E008952F923F92BC
:101310004F925F926F927F928F929F92AF92BF9205
:10132000CF92DF92EF92FF920F931F93CF93DF93B1
:101330004B017A018A01841795070CF48C01E901AD
:10134000C819D9092196222433242C1A3D0AE01603
:10135000F10604F11C161D0624F044244A94542C72
:1013600003C044244394512C3E01D7FD3101540164
:10137000C12CD12CC614D70451F0B501C8010E946C
:101380005308A40CB51C8FEFC81AD80AF3CF0F5F0F
:101390001F4FDDCFDF91CF911F910F91FF90EF9005
:1013A000DF90CF90BF90AF909F908F907F906F9085
:1013B0005F904F903F902F900895CF93C62F8F73DB
:1013C000682F606480E00E941D096C2F6770686B55
:1013D00080E0CF910C941D095F926F927F928F9263
:1013E0009F92AF92BF92CF92DF92EF92FF920F93B4
:1013F0001F93CF93DF93C12CD12CC0E0EE24E39454
:10140000F12C8C2F81700E940A09512CA12CB12C37
:1014100085010C0D1D1DD0E0380183E075946794A3
:101420008A95E1F7480187E088229924E091B90282
:10143000F091BA02E60DF71D208130E0082C02C0C1
:10144000359527950A94E2F720FF1DC0652D8D2F55
:101450000E94DD09E091B702F091B802E00FF11FA0
:10146000608181E00E941D09E091B902F091BA0209
:10147000E60DF71D970101C0220F8A94EAF7209527
:101480008081282320830F5F1F4FDF5FD03421F638
:1014900080E8A80EB11C539488E05812B9CFCF5FF2
:1014A000C17080E4C80ED11C80E8C816D10409F0D0
:1014B000A8CFDF91CF911F910F91FF90EF90DF9018
:1014C000CF90BF90AF909F908F907F906F905F90E4
:1014D000089590EE980F903618F084EE96E00CC0C8
:1014E000282F30E02052310945E0429FC001439F40
:1014F000900D11248256994F0E94B8088091C8021D
:101500009091C90201969093C9028093C8020895F0
:10151000CF93DF93EC018991882319F00E94690A27
:10152000FACFDF91CF910895CF92DF92EF92FF92A1
:101530000F931F93CF93DF936C0100E010E0C0E0A6
:10154000D0E07601E00EF11EF701249130E00C2E80
:1015500002C0359527950A94E2F720FF0CC06091F0
:10156000CA027091CB026C0F7D1F8091C8029091CE
:10157000C9020E9453082196C830D10529F78091ED
:10158000C8029091C90201969093C9028093C80243
:101590000F5F1F4F0830110591F6DF91CF911F911A
:1015A0000F91FF90EF90DF90CF900895EF92FF9210
:1015B0000F931F93CF93DF938C017C0120E2E20E07
:1015C000F11CC0E0D0E0F801859194910C2E02C08E
:1015D000969587950A94E2F780FF0CC06091CA0245
:1015E0007091CB026C0F7D1F8091C8029091C9024F
:1015F0000E9453082196C031D10529F78091C80275
:101600009091C90201969093C9028093C8020E5F1F
:101610001F4F0E151F05A9F6DF91CF911F910F9156
:10162000FF90EF900895EF92FF920F931F93CF9347
:10163000DF938C017C0124E8E20EF11CC0E0D0E0D5
:10164000F80185919591A591B4910C2E04C0B695A1
:10165000A795979587950A94D2F780FF0CC0609163
:10166000CA027091CB026C0F7D1F8091C8029091CD
:10167000C9020E9453082196C032D10509F7809112
:10168000C8029091C90201969093C9028093C80242
:101690000C5F1F4F0E151F0589F6DF91CF911F912B
:1016A0000F91FF90EF9008952F923F924F925F928B
:1016B0006F927F928F929F92AF92BF92CF92DF9262
:1016C000EF92FF920F931F93CF93DF93CDB7DEB7C7
:1016D00060970FB6F894DEBF0FBECDBF60910101D9
:1016E000709102017C876B872CE930E0C9010E9470
:1016F0009C1B892B11F080E019C1309306012093C7
:101700000501709304016093030182E096E09093D9
:101710000801809307018091E601882E880F9908BF
:10172000709109017E8330900A0120900B01809115
:101730000C018D83C0900D01D0900E0100910F011E
:1017400010911001909113019C83A0911401AB831F
:10175000B0911101BA83E0911201E98340902A010E
:1017600050902B0160902C0170902D01A0902E01C3
:10177000B0902F01E0903001F0903101F0913201F2
:10178000FF835091330158876091340169877091CC
:1017900035017A8740E020E030E0F901EE5FF94F53
:1017A0008491823009F5C9016B857C850E949C1B60
:1017B000689D6001699DD00C789DD00C1124889D96
:1017C0008001899D100D989D100D1124202E1D83E0
:1017D000CE823D2C412C512C320119821A8281E09B
:1017E0008B8391E09C8360C084918430C1F4C901F3
:1017F0006B857C850E949C1B689D5001699DB00C87
:10180000789DB00C1124889D7001899DF00C989DE5
:10181000F00C1124E986FA86AF82B88645C0E491BF
:10182000E33009F041C0E42F042E000CFF0BEC3034
:10183000F105D0F5C9016B857C850E949C1B689DD4
:10184000D001699DB00D789DB00D1124BE87AD8784
:10185000BEE0BE9FB001BF9F700D1124FB01EF5F82
:10186000FE4F6D857E8575AF64AF889DB001899D03
:10187000700D989D700D112477AF66AFCF01805C1D
:101880009F4FDC018D859E8511969C938E931296B9
:1018900011967C936E9314969FEF9C9311969C9354
:1018A000E75BFF4F10824F5F2F5F3F4F2C393105B1
:1018B00009F073CFAE81A093090130920A01209202
:1018C0000B01BD81B0930C01D0920E01C0920D01AD
:1018D0001093100100930F01EC81E0931301FB8141
:1018E000F09314015A8150931101698160931201A0
:1018F00040922A0150922B0160922C0170922D018E
:10190000B0922F01A0922E01F0923101E0923001AD
:101910007F817093320188858093330199859093FC
:101920003401AA85A09335014093E50160960FB676
:10193000F894DEBF0FBECDBFDF91CF911F910F9105
:10194000FF90EF90DF90CF90BF90AF909F908F90DF
:101950007F906F905F904F903F902F9008951F93CE
:10196000CF93DF93EC01162F60930B020E94FA08CD
:1019700061E08CE092E00E94EF04612F8CE092E045
:101980000E94EF04209769F0FE0101900020E9F722
:101990003197AF014C1B5D0BBE018CE092E00E94C1
:1019A0006B0460E08CE092E0DF91CF911F910C948A
:1019B000EF040F931F93CF93DF93EC01009751F047
:1019C0000E946C1E8C01BC0189EA92E00E94B7055E
:1019D000811105C089EA92E00E94DE050BC01093D8
:1019E000AE020093AD02BE018091A9029091AA02BD
:1019F0000E94651E89EA92E0DF91CF911F910F91BD
:101A00000895CF93DF93CDB7DEB7A2970FB6F894C2
:101A1000DEBF0FBECDBF789484B5826084BD84B52F
:101A2000816084BD85B5826085BD85B5816085BDD9
:101A300080916E00816080936E0010928100809191
:101A40008100826080938100809181008160809319
:101A50008100809180008160809380008091B1003E
:101A600084608093B1008091B00081608093B00069
:101A700080917A00846080937A0080917A008260FD
:101A800080937A0080917A00816080937A008091BF
:101A90007A00806880937A001092C1008CE0809375
:101AA000AF028BE08093B0028AE08093B10281E1C3
:101AB0008093B20280E18093B3028FE08093B402FE
:101AC00080E88093B50280E48093B60261E08CE008
:101AD0000E94A10661E08091B0020E94A10661E02F
:101AE0008091B1020E94A10661E08091B2020E9441
:101AF000A10661E08091B3020E94A10661E080919D
:101B0000B4020E94A1068AB18C6F8AB984B1836045
:101B100084B960E08091AF020E94710660E080911C
:101B2000B0020E94710660E08091B1020E947106CD
:101B300060E08091B2020E94710660E08091B30281
:101B40000E94710661E08091B4020E9471066EE10C
:101B500070E080E090E00E94DD0661E08091B202DA
:101B60000E94710660E08091B3020E94710660ECF1
:101B700080E00E941D096FE380E00E941D0981E062
:101B80000E940A0960EC80E00E941D096FE380E07A
:101B90000E941D0911E0EE24E394812F81708E25AF
:101BA0000E940A0900E0602F80E00E94DD0980E4C5
:101BB000F82E60E081E00E941D09FA94F110F9CF3F
:101BC0000F5F083081F7123011F012E0E6CF60E0CD
:101BD00080E00E94DD0940E450E060E870E08BEBBB
:101BE00092E00E94EB078091C3029091C40290930F
:101BF000B8028093B7028091C5029091C60290937B
:101C0000BA028093B9028EE0809309028DE080933E
:101C10000A0261E08EE00E94A10660E08DE00E9471
:101C2000A10660E08EE00E947106E0911C02F09136
:101C30001D021083E0911802F09119021082E091C8
:101C40001A02F0911B0287E6808310922402E09131
:101C50002002F091210286E08083E0911E02F09143
:101C60001F02808180618083E0911E02F0911F023B
:101C7000808188608083E0911E02F0911F02808144
:101C800080688083E0911E02F0911F0280818F7D29
:101C9000808324E02093D1022093D20281E08093BC
:101CA00000018091D3029091D402A4E0880F991F83
:101CB000AA95E1F701979093D4028093D30285E02F
:101CC0008093CC022093CD028091CE029091CF02DE
:101CD000B4E0880F991FBA95E1F701979093CF026E
:101CE0008093CE020E94800781E08093C702109209
:101CF000C9021092C8021092CB021092CA0284E567
:101D000094E00E94130B1092C9021092C80280E264
:101D100090E09093CB028093CA0280ED93E00E9402
:101D2000130B83E290E09093C9028093C802109253
:101D3000CB021092CA0284EC93E00E94D90CDC0121
:101D40008D919C910E94880A0E94EC0989EB93E096
:101D50000E94D90C62E070E0FC01808191810E94B8
:101D6000AF0C0E9447098CEA93E00E94D90C61E015
:101D700070E0DC018D919C910E94AF0C0E9447099C
:101D80000FEF1FEF63E0C62ED12C7724739470E21F
:101D9000A72EB12CE3E2EE2EF12CF4E18F2E912C44
:101DA00040E0BE016E5F7F4F81ED92E00E949A0796
:101DB0004FE0BE016F5F7F4F8CEC92E00E949A076C
:101DC0002A8122FF09C08091FE019091FF010196B6
:101DD0009093FF018093FE0121FF09C08091FE01D5
:101DE0009091FF0101979093FF018093FE018091F4
:101DF000FE019091FF01049724F0D092FF01C09260
:101E0000FE018091FE019091FF0197FF04C01092A6
:101E1000FF011092FE018091FE019091FF01801759
:101E2000910709F454C00E9480077092C702109273
:101E3000C9021092C8021092CB021092CA0284E525
:101E400094E00E94130B1092C9021092C802B09243
:101E5000CB02A092CA0280ED93E00E94130BF09295
:101E6000C902E092C8021092CB021092CA0280EA24
:101E700093E00E94D90CFC01808191810E94880A24
:101E8000F092C902E092C8029092CB028092CA02FC
:101E90008AE993E00E94D90CDC018D919C910E940B
:101EA000880A0091FE011091FF01C8016AE070E00C
:101EB0000E94881B805D69A37AA30E94690A69A1B8
:101EC000862F7AA1972F009789F70E94EC098981C4
:101ED000811153C06AE070E080E090E00E94DD066E
:101EE0005FCF7D8171110C94801A0E9480078091D0
:101EF000FE019091FF0101969093FF018093FE01F6
:101F00001092C9021092C8021092CB021092CA021B
:101F1000049714F00C94B91A81E08093C70282E907
:101F200090E00E94D90CFC01808191810E94880A76
:101F30008091CA029091CB020A961092C902109227
:101F4000C8029093CB028093CA0285E890E00E9479
:101F5000D90CDC018D919C910E94880A0E94EC09A9
:101F60008CE790E00E94D90C62E070E0FC01808177
:101F700091810E94AF0C0E9447098091FE0180FD73
:101F80000AC08DE893E00E94D90C61E070E0FC018A
:101F90008081918109C082E893E00E94D90C61E0C0
:101FA00070E0DC018D919C910E94AF0C0E9447096A
:101FB0000E9480078091FE019091FF018130910580
:101FC00051F00CF43AC38230910509F423C1039710
:101FD00009F40BC232C3009101011091020124E106
:101FE00031E0C901B8010E949C1B892B09F027C36D
:101FF000309306012093050170930401609303015F
:102000008EE692E090930801809307018091E601AB
:10201000682E880F770820910901288B30910A01DA
:102020003A8B40910B014A8720910C012C87A0909C
:102030000D01B0900E01E0900F01F0901001309171
:1020400013013E83409114014D83209111012B8394
:1020500030911201388720902A0130902B01409056
:102060002C0150902D0140912E014D8B20912F017C
:102070002F8B309130013E87409131014B8BC090C6
:102080003201D0903301809034019090350140E0CE
:1020900020E030E0F901E259FD4F8491823001F5F2
:1020A000C901B8010E949C1B669D5001679DB00C40
:1020B000769DB00C1124869D7001879DF00C969D35
:1020C000F00C1124EA86FC86A88ABA8A212C312CCD
:1020D000210118861B8251E05D8361E06E835EC042
:1020E00084918430B9F4C901B8010E949C1B669D9B
:1020F0006001679DD00C769DD00C1124869D400117
:10210000879D900C969D900C11248E869B8ACD8A7B
:10211000DF8A44C0E491E33009F040C0E42F042E8C
:10212000000CFF0BEC30F105C8F5C901B8010E94A5
:102130009C1B669DD001679DB00D769DB00D11244E
:10214000BA8FA98FBEE0BE9FB001BF9F700D112452
:10215000FB01EF5FFE4F698D7A8D75AF64AF869D91
:10216000B001879D700D969D700D112477AF66AFFD
:10217000CF01805C9F4FDC01898D9A8D11969C93D5
:102180008E93129611967C936E9314969FEF9C9368
:1021900011969C93E75BFF4F10824F5F2F5F3F4F7D
:1021A0002431A1E03A0709F075CF4093E501288971
:1021B000209309013A8930930A014A8540930B0123
:1021C0002C8520930C01B0920E01A0920D01F0928B
:1021D0001001E0920F013E81309313014D81409335
:1021E00014012B8120931101388530931201209224
:1021F0002A0130922B0140922C0150922D014D89E1
:1022000040932E012F8920932F013E85309330017A
:102210004B8908C2009101011091020128E031E0D0
:10222000C901B8010E949C1B892B09F008C2309398
:10223000060120930501709304016093030186E673
:1022400091E090930801809307018091E601682E48
:10225000880F7708209109012D8B30910A013F8B5F
:1022600040910B014E8720910C012B8BA0900D010A
:10227000B0900E01E0900F01F09010013091130129
:102280003887409114014E83209111012D833091A4
:1022900012013B8320902A0130902B0140902C01A9
:1022A00050902D0140912E01488B20912F012A8BB7
:1022B000309130013A87409131014C87C090320112
:1022C000D0903301809034019090350140E020E0BF
:1022D00030E0F901EA59FE4F8491823001F5C901DD
:1022E000B8010E949C1B669D5001679DB00C769DB5
:1022F000B00C1124869D7001879DF00C969DF00C0A
:102300001124EE86FB8AAD8ABF8A212C312C210153
:102310001B821D8251E05E8361E068875EC084910C
:102320008430B9F4C901B8010E949C1B669D60010C
:10233000679DD00C769DD00C1124869D4001879D11
:10234000900C969D900C11248A869C86C88ADA8A05
:1023500044C0E491E33009F040C0E42F042E000CA7
:10236000FF0BEC30F105C8F5C901B8010E949C1BB8
:10237000669DD001679DB00D769DB00D1124BA8F7A
:10238000A98FBEE0BE9FB001BF9F700D1124FB015D
:10239000EF5FFE4F698D7A8D75AF64AF869DB0019A
:1023A000879D700D969D700D112477AF66AFCF019C
:1023B000805C9F4FDC01898D9A8D11969C938E9342
:1023C000129611967C936E9314969FEF9C931196A0
:1023D0009C93E75BFF4F10824F5F2F5F3F4F28308A
:1023E000A1E03A0709F075CFE9C000910101109111
:1023F000020128EA30E0C901B8010E949C1B892B28
:1024000009F01DC13093060120930501709304016A
:10241000609303018EEB90E0909308018093070195
:102420008091E601682E880F7708209109012D8B95
:1024300030910A013F8B40910B014E8720910C0196
:102440002B8BA0900D01B0900E01E0900F01F09049
:102450001001309113013887409114014E8320916F
:1024600011012D83309112013B8320902A0130907D
:102470002B0140902C0150902D0140912E01488B52
:1024800020912F012A8B309130013A874091310100
:102490004C87C0903201D0903301809034019090ED
:1024A000350140E020E030E0F901E254FF4F849133
:1024B000823001F5C901B8010E949C1B669D500144
:1024C000679DB00C769DB00C1124869D7001879D90
:1024D000F00C969DF00C1124EE86FB8AAD8ABF8A23
:1024E000212C312C21011B821D8251E05E8361E091
:1024F00068875EC084918430B9F4C901B8010E9434
:102500009C1B669D6001679DD00C769DD00C1124AC
:10251000869D4001879D900C969D900C11248A8683
:102520009C86C88ADA8A44C0E491E33009F040C04E
:10253000E42F042E000CFF0BEC30F105C8F5C901A7
:10254000B8010E949C1B669DD001679DB00D769DD1
:10255000B00D1124BA8FA98FBEE0BE9FB001BF9FFE
:10256000700D1124FB01EF5FFE4F698D7A8D75AF01
:1025700064AF869DB001879D700D969D700D1124EE
:1025800077AF66AFCF01805C9F4FDC01898D9A8D5C
:1025900011969C938E93129611967C936E9314963B
:1025A0009FEF9C9311969C93E75BFF4F10824F5FC8
:1025B0002F5F3F4F283A310509F076CF4093E50170
:1025C0002D89209309013F8930930A014E8540935C
:1025D0000B012B8920930C01B0920E01A0920D01EA
:1025E000F0921001E0920F013885309313014E8173
:1025F000409314012D81209311013B8130931201EE
:1026000020922A0130922B0140922C0150922D01F0
:10261000488940932E012A8920932F013A853093CF
:1026200030014C8540933101D0923301C092320188
:10263000909235018092340102C00E94540B409068
:10264000E6011A8A1D821C821B8219861886042CB8
:10265000000C5508B201615071097E8F6D8F81E0C9
:1026600090E08419950998A38F8F44E0BE016E5FB6
:102670007F4F8CEC92E00E949A0740E0BE016F5FB2
:102680007F4F81ED92E00E949A07298122FF1BC0B3
:1026900081E080931301809114018130A1F43A818B
:1026A0008091090190910A0133FF03C03091230109
:1026B00002C030912201830F911D37FD9A959093AE
:1026C0000A018093090121FF1BC08FEF8093130142
:1026D000809114018F3FA1F42A818091090190918A
:1026E0000A0123FF03C02091230102C0209122018F
:1026F000821B910927FD939590930A01809309010C
:102700008091130118162CF4609125010091260187
:1027100004C0609127010091280120910B013091A4
:102720000C01690197E0C90ED11C7901AFE0EA0EF6
:10273000F11C8091090190910A0140910D01509185
:102740000E01E02F000FFF0BFB87EA87A62F660F15
:10275000BB0BB98BA88B48175907D4F58E0F9F1F59
:10276000B2010E949C1B8B01C901B2010E949C1BFB
:10277000C8010E945F095C01C601B2010E949C1B56
:10278000C8010E945F0921E0019709F020E081E083
:10279000AA94AB2809F080E0D22ED82AC701B20152
:1027A0000E949C1BC8010E945F09D11003C00197C1
:1027B00009F04FC0049D9001059D300D149D300D12
:1027C00011248A859B8580959095820F931F3DC02B
:1027D00084179507F4F5E889F9898E0F9F1FB201D8
:1027E0000E949C1B8B01C901B2010E949C1BC80165
:1027F0000E945F095C01C601B2010E949C1BC801D6
:102800000E945F0921E0019709F020E081E0AA948D
:10281000AB2809F080E0D22ED82AC701B2010E946D
:102820009C1BC8010E945F09D11002C0019789F466
:102830000F5F1F4F049DC001059D900D149D900DCD
:10284000112428893989821B930B90930A01809364
:102850000901809115018823A9F08A8182FF12C0A5
:1028600080911A0190911B01A0911C01B0911D0152
:1028700080932A0190932B01A0932C01B0932D01FA
:102880001092150180911501882349F010922A01B8
:1028900010922B0110922C0110922D0146C0C09075
:1028A0002A01D0902B01E0902C01F0902D01609135
:1028B0000B0170910C01072E000C880B990B0E94E4
:1028C0007C1EA70196010E94B71B0E94231C7093D7
:1028D0000C0160930B0120911E0130911F0140916A
:1028E000200150912101C701B6010E94B61B6093DF
:1028F0002A0170932B0180932C0190932D01C0909D
:102900001601D0901701E0901801F0901901A7016D
:1029100096010E94751E87FF08C0C0922A01D092BE
:102920002B01E0922C01F0922D01209109013091B0
:102930000A01CA84DB84C20ED31E40912401809117
:102940000B0190910C01840F911D47FD9A95B201E6
:102950000E949C1B8B0188899989820F931FB20169
:102960000E949C1BCB01B8010E945F097C01C6013B
:10297000B2010E949C1BCB01B8010E945F09019724
:1029800019F0EA94EF28E9F4049DC001059D900D2B
:10299000149D900D112420912401821B910927FD83
:1029A000939590930C0180930B0140E050E060E818
:1029B0007FEB40932A0150932B0160932C0170937D
:1029C0002D0180900B0190900C0151E0851A910827
:1029D0000091090110910A01A888B988A00EB11EC2
:1029E0006A857B85060F171FC401B2010E949C1BDC
:1029F0007B01C501B2010E949C1BCB01B7010E9463
:102A00005F096C01C801B2010E949C1BCB01B70198
:102A10000E945F09019719F0CA94CD28F1F481E072
:102A2000809315018FEFE81AF80AE49CC001E59C39
:102A3000900DF49C900D112490930C0180930B0148
:102A40008A818470782EAAE4B1E0BF83AE837D01D1
:102A5000C12CD12C52E0652E0DC010921501F0CF83
:102A6000F7018081813079F0BFEFCB1ADB0AEEE00D
:102A7000EE0EF11C8091E501082E000C990BC81692
:102A8000D90674F358C020E030E0A90160912A0112
:102A900070912B0180912C0190912D010E94751E47
:102AA00087FFE2CFF7013D9780819181A816B90693
:102AB00034F09C01285F3F4FA216B3063CF0081784
:102AC000190794F208960817190774F6F7013B974F
:102AD00080819181881699063CF20896881699069D
:102AE0001CF6D7016C92772079F020E030E040E8C6
:102AF0005FE360911A0170911B0180911C0190911C
:102B00001D010E94B71B0EC020E030E040E05FE3F3
:102B100060911A0170911B0180911C0190911D011F
:102B20000E94DB1E60932A0170932B0180932C017D
:102B300090932D0199CF97E4692E91E0792E2DE3A2
:102B400031E03D872C8749E4E42E41E0F42E8901F1
:102B5000212C312C8091E501082E000C990B2816B0
:102B600039060CF098C0D8011D968C911D978130C4
:102B700009F085C0F7018081811109C012968D91FD
:102B80009C911397049713969C938E931297D80158
:102B9000AD90BC90119712968D919C9113970197CF
:102BA000B2010E949C1B6B01C501B2010E949C1BDB
:102BB000CB01B6010E945F094C01C5010796B20125
:102BC0000E949C1BCB01B6010E945F09019719F07E
:102BD0008A94892899F421E0F70120833FEFC31AF2
:102BE000D30AC49CC001C59C900DD49C900D1124A7
:102BF000D80113969C938E93129702C0F70110820E
:102C0000D7018C91882361F0F3012081D8018D9147
:102C10009C911197820F911D27FD9A958D939C93FE
:102C2000F80182819381208131814481558142174D
:102C300053078CF4B2010E949C1BFB01C90107964B
:102C4000B2010E949C1BCB01BF010E945F0901974A
:102C5000B1F4EFEF12C0241735078CF4B2010E94D3
:102C60009C1BFB01C901B2010E949C1BCB01BF014F
:102C70000E945F09019719F4E1E0D301EC93FFEFA3
:102C80002F1A3F0A2EE0620E711C025F1F4F3EE0BA
:102C9000E30EF11C5FCF4A894B3024F44F5F4A8B1F
:102CA00020E002C021E01A8A909113018091140162
:102CB000981741F019161CF41092110103C082E01C
:102CC000809311018091150130912901831751F0F2
:102CD000882329F1191614F481E001C083E0809360
:102CE000110102C08823D9F02223A1F080911101A3
:102CF0008F5F8178191634F487FF0AC081508E6F78
:102D00008F5F06C087FF03C081508E6F8F5F8E5F1D
:102D100080931101EAE4F1E040E050E00DC01916A3
:102D20001CF410921101F6CF82E0F2CF8081813045
:102D300061F04F5F5F4F3E968091E501082E000CD9
:102D4000990B4817590794F30AC0DF0113979C9118
:102D50001297191614F41C92ECCF8C93EACF22230D
:102D600059F0809136018F5F817887FF03C08150D1
:102D70008E6F8F5F809336018091090190910A01D7
:102D80003C0150E2651A710877FE02C0612C712C7B
:102D90002091030130910401429EC001439E900D99
:102DA000529E900D11249301285A3F4F821793078A
:102DB00024F43C0168E5661A710880910B0190913A
:102DC0000C011C0174E1271A310837FE02C0212CC6
:102DD000312C2091010130910201429EC001439E9D
:102DE000900D529E900D11249101205C3F4F82174F
:102DF000930724F41C01A0E42A1A3108C301B2018C
:102E00000E949C1B7C8B6B8B9C01C101B2010E94B8
:102E10009C1B7E8B6D8B4C0188E590E0B2010E947B
:102E20009C1B788F6F8B80E490E0B2010E949C1B0A
:102E30007A8F698FEE27FF27E21BF30BFF87EE8760
:102E4000AD8CBE8CA21AB30A00E010E02F89388D39
:102E5000201731070CF454C0C12CD12CE12CF12CDB
:102E60004B895C89400F511F5C8F4B8FA98DBA8DA8
:102E7000AE15BF05D4F16D897E896E0D7F1D8B8DDA
:102E80009C8D0E945F094091BD025091BE0281302D
:102E9000910579F01092C702415051094C195D0912
:102EA0009A01280D391D6F8D78A1460F571FBA0161
:102EB0000FC071E07093C702415051094C195D0970
:102EC0009A01280D391DBC0164197509640F751F1D
:102ED000680D791DA5018E859F850E9486098FEF5B
:102EE000E81AF80AC40CD51CC1CF0F5F1F4FEE853E
:102EF000FF85E40DF51DFF87EE87A40CB51CA6CF5A
:102F000080912E0190912F01A884B98458E5A50ED7
:102F1000B11C8A159B050CF044C020913B013091F7
:102F20003C01820F931F6885798568177907CCF576
:102F300080913001909131014B815C81405C5F4F09
:102F40008417950774F5820F931FAB81BC81A81776
:102F5000B9073CF51092C7028091BD029091BE0264
:102F600001974091340150913501841B950BE1E0AC
:102F7000F0E0E21BF30B8E0F9F1F8A0F9B1F209127
:102F8000320130913301261B370B3093C902209355
:102F9000C8029093CB028093CA02809137010E94AD
:102FA000750780912E0190912F014301F8E58F0E56
:102FB000911C88159905DCF540913B0150913C012D
:102FC0009C01240F351F621673068CF56091300149
:102FD000709131019101205C3F4F621773073CF5FE
:102FE0009B01240F351F221633060CF521E0209398
:102FF000C7022091BD023091BE0221503109261B2B
:10300000370B61E070E0641B750B260F371F220D34
:10301000331D861997099093C9028093C802309393
:10302000CB022093CA02809136010E9475078DE37E
:10303000E82E81E0F82E0AE411E0C12CD12C8B811E
:103040009C81805C9F4F9F878E879101205C3F4FC2
:103050003C8B2B8B8091E501082E000C990BC81638
:10306000D9060CF07EC0D70114962D913C9115978E
:103070002A153B058CF5C9010896E885F985E817FE
:10308000F90754F516964D915C9117976E857F85DB
:10309000461757070CF5CA010896AB81BC81A817E3
:1030A000B907D4F41092C7028091BD029091BE027C
:1030B000841B950B08978A0F9B1F2E1B3F0B309389
:1030C000C9022093C8029093CB028093CA02F801F0
:1030D000349780810E948F07F70120813181281564
:1030E0003905B4F5C9010896681679068CF5428150
:1030F00053816B897C894617570754F5CA01089696
:10310000281639062CF5D8018C918230D9F0B1E01F
:10311000B093C7028091BD029091BE02841B950BB3
:103120000897820D931D261937093093C902209301
:10313000C8029093CB028093CA02F8013597808130
:103140000E948F07F8018081811102C021E0208355
:103150003FEFC31AD30A025F1F4F4EE0E40EF11C8B
:1031600079CF1092C7028091BD029091BE02019763
:1031700020910F0130911001821B930B20912401AB
:1031800061E070E0621B710927FD7395860F971F40
:10319000AB81BC818A0F9B1F20910D0130910E01E4
:1031A000E885F9852E1B3F0B3093C9022093C80296
:1031B0009093CB028093CA02809112010E94610712
:1031C00081E08093C7028091BD029091BE02019779
:1031D00020910B0130910C01821B930B2091240153
:1031E00041E050E0421B510927FD5395840F951F84
:1031F000820D931D2091090130910A01261937098A
:103200003093C9022093C8029093CB028093CA02E4
:10321000809111010E9461070E94EC0980910B01CD
:1032200090910C01803F5FEF950724F441E061E04D
:103230006D8301C040E08090090190900A01688987
:103240007989680D791D20912E0130912F01621727
:1032500073074CF0E0913B01F0913C01E20FF31F4A
:103260006E177F0784F0AA85BB85A80DB91DA2172C
:10327000B307D4F0E0913B01F0913C01E20FF31F62
:10328000AE17BF078CF4A0913001B09131018A17BD
:103290009B0754F0E0913B01F0913C01EA0FFB1FCA
:1032A0008E179F070CF444C0AA85BB85A80DB91DD5
:1032B000A217B307ECF0E0913B01F0913C018901CA
:1032C0000E0F1F1FA017B1079CF450912401DC01C1
:1032D000A50FB11D57FDBA95009130011091310134
:1032E0000A171B072CF4E00FF11FEA17FB0704F580
:1032F00062177307FCF0E0913B01F0913C012E0F47
:103300003F1F62177307B4F420912401DC01A20F60
:10331000B11D27FDBA959D01A0913001B0913101F9
:10332000A217B3073CF4EA0FFB1FE217F30714F0F0
:1033300041E01D82EDE3F1E0AAE4B1E0A12CB12C63
:103340000A851B85080D191D2091E501022E000C30
:10335000330BA216B3060CF072C02C91213009F089
:1033600068C020813181621773073CF0790158E011
:10337000E50EF11C6E157F0554F00217130794F04B
:10338000790158E0E50EF11C0E151F055CF4E28092
:10339000F3808E159F0534F058E0E50EF11C8E1574
:1033A0009F05CCF102171307CCF0790158E0E50E28
:1033B000F11C0E151F0594F4F09024016C01CF0C44
:1033C000D11CF7FCDA94E280F380EC14FD0434F4B1
:1033D00058E0E50EF11CEC14FD040CF562177307C0
:1033E0000CF1285F3F4F62177307E4F4209124012A
:1033F0007C01E20EF11C27FDFA94228133812E1507
:103400003F0584F4285F3F4F2E153F055CF041E0F7
:1034100051E05D8307C041E021E02D8303C041E01E
:1034200031E03D8322813381203F3F4F14F422E07D
:103430002C933FEFA31AB30A1E963E9685CF4111F7
:103440000C94710F90920E0180920D0190931001D7
:1034500080930F01809111018093120180911301DB
:1034600080931401809115018093290180912E0190
:1034700090912F019093330180933201809130011C
:103480009091310190933501809334018091360100
:103490008093370120E030E08091E501082E000C98
:1034A000990B281739073CF5AE81BF818C9181308B
:1034B00099F4EC85FD858081918195838483828157
:1034C000938197838683FD01359780813196808330
:1034D00031968081319680832F5F3F4F4E815F818F
:1034E000425F5F4F5F834E836C857D85625F7F4F58
:1034F0007D876C87D1CF3C822B8279866886B5C860
:1035000081E08093C7022091BD023091BE024091BC
:10351000BB025091BC0260E070E080E090E00E944D
:1035200086090E94EC091092C9021092C8021092FA
:10353000CB021092CA021092C70282EB90E00E9466
:10354000D90CDC018D919C910E94880A0E94EC09A3
:103550008091FE0180FD03C087EA90E020C08EE9E3
:1035600090E00E94D90C62E070E0DC018D919C91AA
:103570001DC081E08093C70281E790E00E94D90CD2
:10358000DC018D919C910E94880A0E94EC0983E0E5
:1035900090E09093FF018093FE0188E690E00E9406
:1035A000D90C62E070E0FC01808191810E94AF0C37
:1035B0000E9447090E9458050C94720ECF93DF9326
:1035C0008091A9029091AA020E94EE1CCFEAD2E05B
:1035D0008C899D890E94B2058E899F89DF91CF9148
:1035E0000C94B20510920F0210920E0288EE93E036
:1035F000A0E0B0E08093100290931102A093120219
:10360000B093130281EF91E090930D0280930C022E
:1036100085EC90E0909319028093180284EC90E07E
:1036200090931B0280931A0280EC90E090931D020D
:1036300080931C0281EC90E090931F0280931E0205
:1036400082EC90E0909321028093200286EC90E03F
:103650009093230280932202109225021092260258
:10366000109227021092280281E090E09093D402F9
:103670008093D3021092D5029093CF028093CE0212
:103680001092D0021092C0021092BF021092C20299
:103690001092C1021092C4021092C3021092C6028C
:1036A0001092C5028093C7021092C9021092C802FC
:1036B0001092CB021092CA0240E050E060E070E04D
:1036C0008BEB92E00E94EB071092AA021092A902E3
:1036D0001092AC021092AB021092AE021092AD02A8
:1036E00060E070E089EA92E00E94B705811104C0B1
:1036F00089EA92E00C94DE051092AE021092AD02BF
:103700006DEF71E08091A9029091AA020C945E1E67
:10371000AA1BBB1B51E107C0AA1FBB1FA617B707F7
:1037200010F0A61BB70B881F991F5A95A9F7809513
:103730009095BC01CD01089597FB072E16F40094D7
:1037400007D077FD09D00E94881B07FC05D03EF406
:10375000909581959F4F0895709561957F4F08953D
:10376000EE0FFF1F0590F491E02D09945058BB27F0
:10377000AA270E94CE1B0C945F1F0E94511F38F095
:103780000E94581F20F039F49F3F19F426F40C943E
:103790004E1F0EF4E095E7FB0C94481FE92F0E94A2
:1037A000701F58F3BA17620773078407950720F054
:1037B00079F4A6F50C94921F0EF4E0950B2EBA2F17
:1037C000A02D0B01B90190010C01CA01A001112427
:1037D000FF27591B99F0593F50F4503E68F11A16D3
:1037E000F040A22F232F342F4427585FF3CF469564
:1037F00037952795A795F0405395C9F77EF41F1686
:10380000BA0B620B730B840BBAF09150A1F0FF0F4F
:10381000BB1F661F771F881FC2F70EC0BA0F621F3B
:10382000731F841F48F4879577956795B795F7952B
:103830009E3F08F0B0CF9395880F08F09927EE0FC0
:103840009795879508950E942A1C6894B1110C944D
:10385000931F08950E94781F88F09F5798F0B92F02
:103860009927B751B0F0E1F0660F771F881F991FB5
:103870001AF0BA95C9F714C0B13091F00E94921FA6
:10388000B1E008950C94921F672F782F8827B85FB6
:1038900039F0B93FCCF3869577956795B395D9F70D
:1038A0003EF490958095709561957F4F8F4F9F4F17
:1038B0000895CF93DF938230910510F482E090E079
:1038C000E091D802F091D90220E030E0C0E0D0E0F1
:1038D000309711F14081518148175907C0F04817BE
:1038E000590761F482819381209719F09B838A8321
:1038F0002BC09093D9028093D80226C021153105A0
:1039000019F04217530718F49A01BE01DF01EF01C5
:103910000280F381E02DDCCF2115310509F1281B50
:10392000390B2430310590F412968D919C911397A8
:103930006115710521F0FB019383828304C090938C
:10394000D9028093D802FD01329644C0FD01E20FF6
:10395000F31F81939193225031092D933C933AC0E8
:103960002091D6023091D702232B41F42091E90116
:103970003091EA013093D7022093D6022091E701DB
:103980003091E8012115310541F42DB73EB7409142
:10399000EB015091EC01241B350BE091D602F09124
:1039A000D702E217F307A0F42E1B3F0B28173907A5
:1039B00078F0AC014E5F5F4F2417350748F04E0F8B
:1039C0005F1F5093D7024093D6028193919302C018
:1039D000E0E0F0E0CF01DF91CF9108950F931F93C6
:1039E000CF93DF93009709F48CC0FC0132971382C8
:1039F00012820091D8021091D9020115110581F4AB
:103A000020813181820F931F2091D6023091D702FD
:103A10002817390779F5F093D702E093D60271C0E1
:103A2000D80140E050E0AE17BF0750F412962D9138
:103A30003C911397AD012115310509F1D901F3CF5F
:103A40009D01DA013383228360817181860F971F84
:103A50008217930769F4EC0128813981260F371FFB
:103A60002E5F3F4F318320838A819B8193838283A2
:103A7000452B29F4F093D902E093D80242C0139663
:103A8000FC93EE931297ED01499159919E01240FF9
:103A9000351FE217F30771F480819181840F951F20
:103AA000029611969C938E938281938113969C9398
:103AB0008E931297E0E0F0E0D80112968D919C91E0
:103AC0001397009719F0F8018C01F6CF8D919C9116
:103AD00098012E5F3F4F820F931F2091D6023091A5
:103AE000D7022817390769F4309729F41092D902C0
:103AF0001092D80202C0138212821093D702009350
:103B0000D602DF91CF911F910F910895A0E0B0E010
:103B1000ECE8FDE10C949D1FEC01009721F4CB0132
:103B20000E94591CB8C0FC01E60FF71F9C012250EF
:103B30003109E217F30708F4ACC0D9010D911C91CB
:103B4000119706171707B0F00530110508F49FC04C
:103B5000C80104978617970708F499C00250110905
:103B6000061B170B019311936D937C93CF010E9459
:103B7000EE1C8DC05B01A01AB10A4C01800E911E93
:103B8000A091D802B091D90240E050E0E12CF12C94
:103B9000109709F44AC0A815B905D1F56D907C902D
:103BA0001197630182E0C80ED11CCA14DB0480F1B6
:103BB000A3014A195B096A0182E0C80ED11C129662
:103BC000BC9012971396AC91B5E0CB16D10440F09F
:103BD000B282A38351834083D9016D937C930AC041
:103BE0000E5F1F4FC301800F911FF90191838083E6
:103BF000EB2DFA2FE114F10431F0D7011396FC9369
:103C0000EE93129744C0F093D902E093D8023FC0DC
:103C10008D919C9111974817590708F4AC017D01CB
:103C200012960D90BC91A02DB3CF8091D6029091A9
:103C3000D70288159905E1F446175707C8F4809113
:103C4000E7019091E801009741F48DB79EB740914C
:103C5000EB015091EC01841B950BE817F907C8F4B0
:103C6000F093D702E093D602F901718360830FC00D
:103C7000CB010E94591C7C01009759F0A801BE019C
:103C80000E94551ECE010E94EE1CC70104C0CE0149
:103C900002C080E090E0CDB7DEB7EEE00C94B91F33
:103CA00081E090E0F8940C94D01FFB01DC0102C08D
:103CB00001900D9241505040D8F70895FB01DC016E
:103CC00001900D920020E1F70895FB01DC010590C1
:103CD0000D920020E1F70895FC0105900020E9F71E
:103CE000809590958E0F9F1F08950E94B71E08F42F
:103CF00081E00895E89409C097FB3EF49095809583
:103D0000709561957F4F8F4F9F4F9923A9F0F92FA1
:103D100096E9BB279395F695879577956795B7951F
:103D2000F111F8CFFAF4BB0F11F460FF1BC06F5F05
:103D30007F4F8F4F9F4F16C0882311F096E911C017
:103D4000772321F09EE8872F762F05C0662371F038
:103D500096E8862F70E060E02AF09A95660F771F4C
:103D6000881FDAF7880F9695879597F90895990F28
:103D70000008550FAA0BE0E8FEEF16161706E80735
:103D8000F907C0F012161306E407F50798F0621B56
:103D9000730B840B950B39F40A2661F0232B242B2B
:103DA000252B21F408950A2609F4A140A6958FEF4A
:103DB000811D811D08950E94EE1E0C945F1F0E94BC
:103DC000511F38F00E94581F20F0952311F00C94D9
:103DD000481F0C944E1F11240C94931F0E94701FB7
:103DE00070F3959FC1F3950F50E0551F629FF0014E
:103DF000729FBB27F00DB11D639FAA27F00DB11D67
:103E0000AA1F649F6627B00DA11D661F829F2227EF
:103E1000B00DA11D621F739FB00DA11D621F839F76
:103E2000A00D611D221F749F3327A00D611D231F4C
:103E3000849F600D211D822F762F6A2F11249F579A
:103E400050409AF0F1F088234AF0EE0FFF1FBB1F9D
:103E5000661F771F881F91505040A9F79E3F51055C
:103E600080F00C94481F0C94931F5F3FE4F3983E3E
:103E7000D4F3869577956795B795F795E7959F5F06
:103E8000C1F7FE2B880F911D9695879597F9089598
:103E900097F99F6780E870E060E008959FEF80ECFD
:103EA000089500240A9416161706180609060895A0
:103EB00000240A9412161306140605060895092E06
:103EC0000394000C11F4882352F0BB0F40F4BF2B75
:103ED00011F460FF04C06F5F7F4F8F4F9F4F0895B5
:103EE00057FD9058440F551F59F05F3F71F04795AB
:103EF000880F97FB991F61F09F3F79F08795089590
:103F0000121613061406551FF2CF4695F1DF08C0AE
:103F1000161617061806991FF1CF869571056105CB
:103F200008940895E894BB2766277727CB0197F973
:103F300008952F923F924F925F926F927F928F924D
:103F40009F92AF92BF92CF92DF92EF92FF920F9328
:103F50001F93CF93DF93CDB7DEB7CA1BDB0B0FB632
:103F6000F894DEBF0FBECDBF09942A8839884888EF
:103F70005F846E847D848C849B84AA84B984C88485
:103F8000DF80EE80FD800C811B81AA81B981CE0F7C
:103F9000D11D0FB6F894DEBF0FBECDBFED01089561
:103FA00014E0C0E4D4E004C0FE010E94B01B2196DE
:0A3FB000C134D107C9F7F894FFCF20
:103FBA00010C0000000000000000000000000000EA
:103FCA000000000101000000A0C00000A0400000A5
:103FDA00003F020410070D02080000000000000064
:103FEA0000000000000000000101001000000000B5
:103FFA0000000000000000010100000000000000B5
:10400A0000000000000101000000000000000000A4
:10401A000000000101000000000000000000000094
:10402A000001010000000000000000000000000183
:10403A000100000000000000000000000001010073
:10404A000000000000000000000000010100000064
:10405A000000000000000000000101000000000054
:10406A000000000000000001010000000000000044
:10407A000000000000010100000000000000000034
:10408A000000000101000000000000000000000024
:10409A00000101000000080000DA028000000000B0
:0E40AA0000EF046B04B8049604AA0436050067
:00000001FF
