:100000000C945E000C9486000C9486000C94860080
:100010000C9486000C9486000C9486000C94860048
:100020000C9486000C9486000C9486000C94860038
:100030000C9486000C9486000C9486000C94860028
:100040000C941D030C9486000C94EB020C94C502D6
:100050000C9486000C9486000C9486000C94860008
:100060000C9486000C9486000000000024002700F9
:100070002A0000000000250028002B0004040404CE
:100080000404040402020202020203030303030342
:10009000010204081020408001020408102001021F
:1000A00004081020000000080002010000030407FB
:1000B00000000000000000006703570511241FBE68
:1000C000CFEFD8E0DEBFCDBF11E0A0E0B1E0E4E5C6
:1000D000FDE002C005900D92A831B107D9F721E0EB
:1000E000A8E1B1E001C01D92AC3EB207E1F710E01B
:1000F000CDE5D0E004C02197FE010E946505CC3516
:10010000D107C9F70E94B6030C949D060C94000019
:10011000CF92DF92EF92FF920F931F93CF93DF93D3
:100120006C017A018B01C0E0D0E0CE15DF0589F0CB
:10013000D8016D918D01D601ED91FC910190F08176
:10014000E02DC6010995892B11F47E0102C021968C
:10015000ECCFC701DF91CF911F910F91FF90EF90EE
:10016000DF90CF900895FC01918D828D981761F0FA
:10017000828DDF01A80FB11D5D968C91928D9F5FDE
:100180009F73928F90E008958FEF9FEF0895FC0189
:10019000918D828D981731F0828DE80FF11D858D3C
:1001A00090E008958FEF9FEF0895FC01918D228DCF
:1001B000892F90E0805C9F4F821B91098F73992754
:1001C000089584E291E00E94D50021E0892B09F492
:1001D00020E0822F0895FC01848DDF01A80FB11D5E
:1001E000A35ABF4F2C91848D90E001968F7399276D
:1001F000848FA689B7892C93A089B1898C9180645A
:100200008C93938D848D981306C00288F389E02D1A
:1002100080818F7D80830895EF92FF920F931F93CB
:10022000CF93DF93EC0181E0888F9B8D8C8D9813A9
:1002300005C0E889F989808185FD24C0F62E0B8DE3
:1002400010E00F5F1F4F0F731127E02E8C8DE81207
:100250000CC00FB607FCFACFE889F989808185FFC9
:10026000F5CFCE010E94EB00F1CF8B8DFE01E80FA0
:10027000F11DE35AFF4FF0820B8FEA89FB898081E1
:10028000806207C0EE89FF896083E889F9898081EF
:100290008064808381E090E0DF91CF911F910F9186
:1002A000FF90EF900895CF93DF93EC01888D882322
:1002B000C9F0EA89FB89808185FD05C0A889B989D3
:1002C0008C9186FD0FC00FB607FCF5CF808185FFAE
:1002D000F2CFA889B9898C9185FFEDCFCE010E941C
:1002E000EB00E7CFDF91CF91089580E090E0892B7C
:1002F00029F00E94E10081110C940000089590E023
:10030000FC01EC55FF4F3491FC01E057FF4F249165
:10031000FC01E458FF4FE491EE2309F43BC0332382
:1003200039F1333091F038F43130A9F0323001F541
:1003300084B58F7D12C0373091F03830A1F0343061
:10034000B9F4809180008F7D03C0809180008F7709
:10035000809380000DC084B58F7784BD09C08091E3
:10036000B0008F7703C08091B0008F7D8093B00084
:10037000F0E0EE0FFF1FEE58FF4FA591B4918FB73D
:10038000F894EC91611103C020952E2301C02E2B0F
:100390002C938FBF08951F93CF93DF93162FC1EC3B
:1003A000D1E0682F88810E947F01612F70E02BB11E
:1003B000CB01880F991F880F991F922F9370892B5B
:1003C0008BB985B146E0759567954A95E1F78C7FC5
:1003D000682B65B961E08A810E947F0160E08A81B3
:1003E000DF91CF911F910C947F01CF93DF9390E029
:1003F000FC01E057FF4F2491FC01E458FF4F84912A
:10040000882361F190E0880F991FFC01E859FF4FA4
:10041000C591D491FC01EE58FF4FA591B4916111A3
:1004200009C09FB7F8948881209582238883EC9136
:100430002E230BC0623061F49FB7F8943881822F6D
:10044000809583238883EC912E2B2C939FBF06C02D
:100450008FB7F894E8812E2B28838FBFDF91CF913F
:1004600008953FB7F89480911D0190911E01A091CD
:100470001F01B091200126B5A89B05C02F3F19F0A0
:100480000196A11DB11D3FBFBA2FA92F982F882714
:10049000820F911DA11DB11DBC01CD0142E0660F6F
:1004A000771F881F991F4A95D1F708950E949806D3
:1004B000009711F00E9400060895EF92FF920F93AB
:1004C0001F93CF93DF93EC017B018A018885998587
:1004D0000E9458028A859B850E945802F982E88210
:1004E0001B830A83C801079697FD07969C0143E08A
:1004F000359527954A95E1F7E29EC001E39E900D60
:10050000F29E900D11249F838E838C01095F1F4FF3
:1005100017FF02C0095F1F4F23E0159507952A9525
:10052000E1F71D830C831816190624F40E946B054D
:1005300099878887101611062CF4C8010E946B0554
:100540009B878A8780E090E02E813F818217930706
:100550003CF4E885F985E80FF91F10820196F4CF85
:1005600080E090E02C813D81821793073CF4EA857E
:10057000FB85E80FF91F10820196F4CFDF91CF9130
:100580001F910F91FF90EF9008951F920F920FB659
:100590000F9211242F933F934F935F936F937F9309
:1005A0008F939F93AF93BF93EF93FF9384E291E078
:1005B0000E94EB00FF91EF91BF91AF919F918F91BE
:1005C0007F916F915F914F913F912F910F900FBE4F
:1005D0000F901F9018951F920F920FB60F92112433
:1005E0002F938F939F93EF93FF93E0913401F091BA
:1005F00035018081E0913A01F0913B0182FD12C00A
:10060000908180913D018F5F8F7320913E01821711
:1006100051F0E0913D01F0E0EC5DFE4F958F80934D
:100620003D0101C08081FF91EF919F918F912F91AA
:100630000F900FBE0F901F9018951F920F920FB63C
:100640000F9211242F933F938F939F93AF93BF9358
:100650008091190190911A01A0911B01B0911C0188
:100660003091180123E0230F2D3720F40196A11DAE
:10067000B11D05C026E8230F0296A11DB11D2093D0
:1006800018018093190190931A01A0931B01B09354
:100690001C0180911D0190911E01A0911F01B0913C
:1006A00020010196A11DB11D80931D0190931E0193
:1006B000A0931F01B0932001BF91AF919F918F91A3
:1006C0003F912F910F900FBE0F901F901895E4E26D
:1006D000F1E01382128288EE93E0A0E0B0E0848320
:1006E0009583A683B7838BE091E09183808385EC2B
:1006F00090E09587848784EC90E09787868780ECEC
:1007000090E0918B808B81EC90E0938B828B82ECDC
:1007100090E0958B848B86EC90E0978B868B118E86
:10072000128E138E148EE3EEF1E081E090E093835D
:1007300082831482EEEDF1E0938382831482E1ECF4
:10074000F1E0118A108A138A128A158A148A178A8C
:10075000168A808F128E118E148E138E40E050E018
:1007600060E070E08DEC91E00C945D02789484B5CB
:10077000826084BD84B5816084BD85B5826085BD9D
:1007800085B5816085BD80916E00816080936E002B
:10079000109281008091810082608093810080911D
:1007A00081008160809381008091800081608093CE
:1007B00080008091B10084608093B1008091B0008E
:1007C00081608093B00080917A00846080937A0089
:1007D00080917A00826080937A0080917A008160B3
:1007E00080937A0080917A00806880937A001092DA
:1007F000C1008CE08093C1018BE08093C2018AE04C
:100800008093C30181E18093C40180E18093C5019D
:100810008FE08093C60180E88093C70180E48093D5
:10082000C80161E08CE00E94F50161E08091C201A5
:100830000E94F50161E08091C3010E94F50161E031
:100840008091C4010E94F50161E08091C5010E9480
:10085000F50161E08091C6010E94F5018AB18C6FBB
:100860008AB984B1836084B960E08091C1010E943B
:100870007F0160E08091C2010E947F0160E0809171
:10088000C3010E947F0160E08091C4010E947F014A
:1008900060E08091C5010E947F0161E08091C60106
:1008A0000E947F010E9431024B015C015EE1C52E76
:1008B000D12CE12CF12C0E943102DC01CB018819F2
:1008C0009909AA09BB09883E9340A105B10558F0D2
:1008D00021E0C21AD108E108F10888EE880E83E011
:1008E000981EA11CB11CC114D104E104F10419F734
:1008F00061E08091C4010E947F0160E08091C501A8
:100900000E947F0160EC80E00E94CB016FE380E0F9
:100910000E94CB0160E08091C4010E947F0161E0F0
:100920008091C5010E947F0160EC80E00E94CB01B4
:100930006FE380E00E94CB01D0E061E08091C401D0
:100940000E947F0160E08091C5010E947F01C0E0AC
:1009500060E480E00E94CB016C2F686B80E00E9415
:10096000CB0110E460E081E00E94CB011150D1F78F
:10097000CF5FC83069F7D13041F0D1E060E08091BD
:10098000C4010E947F0161E0DECF60E480E00E944C
:10099000CB0168EB80E00E94CB0140E450E060E8CE
:1009A00070E08DEC91E00E945D028091D501909104
:1009B000D6019093CA018093C9018091D70190918B
:1009C000D8019093CC018093CB018EE080932101DC
:1009D0008DE08093220161E08EE00E94F50160E0ED
:1009E0008DE00E94F50160E08EE00E947F01E091C1
:1009F0003401F091350182E08083E0913001F09183
:100A000031011082E0913201F091330187E6808359
:100A100010923C01E0913801F091390186E0808329
:100A2000E0913601F0913701808180618083E0910F
:100A30003601F0913701808188608083E091360132
:100A4000F0913701808180688083E0913601F091D8
:100A5000370180818F7D808324E02093E301209300
:100A6000E401D09300018091E5019091E60134E02A
:100A7000880F991F3A95E1F701979093E6018093CB
:100A8000E50185E08093DE012093DF018091E001A4
:100A90009091E10144E0880F991F4A95E1F7019791
:100AA0009093E1018093E0010E947501FDCFCF9307
:100AB000DF93C1ECD1E08C899D890E9458028E8918
:100AC0009F89DF91CF910C945802EE0FFF1F059084
:100AD000F491E02D0994CF93DF938230910510F4C7
:100AE00082E090E0E091EA01F091EB0120E030E05B
:100AF000C0E0D0E0309711F140815181481759078B
:100B0000C0F04817590761F482819381209719F04A
:100B10009B838A832BC09093EB018093EA0126C0CC
:100B20002115310519F04217530718F49A01BE0137
:100B3000DF01EF010280F381E02DDCCF21153105CB
:100B400009F1281B390B2430310590F412968D9150
:100B50009C9113976115710521F0FB0193838283AA
:100B600004C09093EB018093EA01FD01329644C0EA
:100B7000FD01E20FF31F81939193225031092D93D0
:100B80003C933AC02091E8013091E901232B41F4D4
:100B900020910301309104013093E9012093E80191
:100BA00020910101309102012115310541F42DB749
:100BB0003EB74091050150910601241B350BE09191
:100BC000E801F091E901E217F307A0F42E1B3F0BB7
:100BD0002817390778F0AC014E5F5F4F24173507AF
:100BE00048F04E0F5F1F5093E9014093E801819355
:100BF000919302C0E0E0F0E0CF01DF91CF91089542
:100C00000F931F93CF93DF93009709F48CC0FC01DF
:100C10003297138212820091EA011091EB010115C3
:100C2000110581F420813181820F931F2091E80109
:100C30003091E9012817390779F5F093E901E0933C
:100C4000E80171C0D80140E050E0AE17BF0750F492
:100C500012962D913C911397AD012115310509F1A3
:100C6000D901F3CF9D01DA01338322836081718141
:100C7000860F971F8217930769F4EC012881398149
:100C8000260F371F2E5F3F4F318320838A819B8140
:100C900093838283452B29F4F093EB01E093EA01DF
:100CA00042C01396FC93EE931297ED01499159912E
:100CB0009E01240F351FE217F30771F480819181A3
:100CC000840F951F029611969C938E938281938137
:100CD00013969C938E931297E0E0F0E0D801129661
:100CE0008D919C911397009719F0F8018C01F6CF24
:100CF0008D919C9198012E5F3F4F820F931F209101
:100D0000E8013091E9012817390769F4309729F48F
:100D10001092EB011092EA0102C01382128210932A
:100D2000E9010093E801DF91CF911F910F910895A0
:100D300081E090E0F8940C949D0610E0CDE5D0E0C1
:100D400004C0FE010E9465052196CE35D107C9F782
:040D5000F894FFCF45
:100D5400010000EC018000000000000C018800D5B7
:080D640000B300C700530100B9
:00000001FF
