:100000000C9427280C944F280C944F280C944F28BC
:100010000C944F280C944F280C944F280C944F2884
:100020000C944F280C944F280C944F280C944F2874
:100030000C944F280C944F280C944F280C944F2864
:100040000C94FD2A0C944F280C94FC290C94D6296E
:100050000C944F280C944F280C944F280C944F2844
:100060000C944F280C944F287E349834A534E134F6
:100070008B34C5348B34C534473749375037533701
:1000800045374B3745374B3746554C4C20434F4D42
:10009000424F2121004D6178436F6D626F3A20001D
:1000A000202F20004D6969726F2E77617600030062
:1000B00006070102070603060007070706000306F6
:1000C00001070706060700000206070607060301E8
:1000D00003070200060200030103010206070700EE
:1000E00002000102060303000201060702000002EB
:1000F00001070003060201030603000102060702CE
:1001000006030001070200030607010201060003BF
:1001100001020700030002010306020003010200BE
:10012000070602000706020007060206070003068C
:100130000701020603000706020102010706030089
:100140000206070602010706020003010706020075
:100150000301020002000706030102010200030678
:10016000070200070003060302000103060700025E
:100170000703010606070607000307010201030043
:100180000200020002060706070103020002000740
:100190000601030006030201060300060200010334
:1001A0000607020006030107000206010706030610
:1001B0000300020607010300020607070103060207
:1001C000000700030602010700030002000200020C
:1001D00006070301000206070103020703000102EC
:1001E00000070603010201070606070607020000D2
:1001F00002030101070002060202070300060102D2
:1002000000070601030207030006010200060701BA
:10021000030706000306070602000706020007069A
:1002200003000102000706030102010607000201A4
:10023000030002060701030002010607070103018C
:10024000020003060701020106070300020103077B
:100250000603020003010206070003060201030170
:100260000200070200070603000301000201030663
:10027000070002070601030706030001020200034C
:100280000607010306070200070601030301020136
:10029000060703030102060206000706060303061B
:1002A0000107060301020006070600030107070015
:1002B0000306020103000706020103000206030110
:1002C00007060200030107060300020706020006F4
:1002D00007060703010103020001060707010301E6
:1002E00000020702000706030102000607010302DD
:1002F00000030100020706030102060200070600D0
:1003000002030100020607010307060607030600B1
:1003100003070102060300070107010302000706A5
:100320000301070602000706030007060706070683
:10033000010307060002070607060002070601037D
:100340000002060107060307060107030102000772
:10035000060103060002070607010203000102036B
:100360000706060003010102070602000103070653
:10037000060702020006070103070606070100023E
:100380000303010102010300030300010202010350
:10039000000200060701030002070601000602072B
:1003A0000302000301150D00002A0D00002A0F00B2
:1003B000002A0F0000551100006A110000C0130050
:1003C000002A1500005516000080180000801B0050
:1003D000006A1D0000801F000055220000BF24009D
:1003E000002A27000040290000002C0000D52E0024
:1003F00000EA2F0000D53000002A320000803300D0
:10040000007C340000403600005538000080380081
:1004100000803A0000AA3A0000EA3C0000EA3C00F2
:10042000003C3F00006A3F000015420000154200FA
:1004300000A744000095460000AA46000088480036
:100440000088480000954B0000954B0000D54D00FA
:1004500000EA4D00001550000015500000555200F4
:100460000080520000C0540000D55400006A5700BC
:100470000080570000EA590000EA590000EA5B00DA
:1004800000EA5B00006A5E0000805E0000EA600037
:1004900000006100004063000040630000AA6500A6
:1004A00000C06500002A6800002A680000556B0043
:1004B00000006D0000806E0000C06F0000957100AC
:1004C00000EA7200002A7400005575000080760072
:1004D00000557900006A790000C07B0000C07B00F5
:1004E00000007E0000007E00007F800000B38000DE
:1004F00000D5820000E98200005585000055850086
:1005000000008A0000D58A0000EA8B00002A8D00D6
:1005100000EA8D0000AA910000C0930000D595006C
:10052000001597000095980000809A0000159C0027
:1005300000959D0000809F000040A1000000A400E5
:1005400000D5A60000EAA800002AAA0000C0AB005F
:100550000095AD000015AF000080B00000AAB20009
:1005600000EAB3000055B60000D5B6000055B7004C
:100570000015B80000EAB9000080BA000000BB0016
:100580000080BB0000AABC000040BD0000AABE0065
:100590000015C00000AAC0000055C10000EAC1005B
:1005A000002AC30000C0C3000095C4000000C500BD
:1005B000002AC60000AAC60000AAC70000AAC900F7
:1005C0000015CA0000EACA000080CB00002ACC0057
:1005D00000D5CC000080CD000040CE000015CF003B
:1005E0000055D00000EAD1000080D50000EAD50017
:1005F00000C0D800006AD9000080DA0000AADB0041
:10060000002ADC00002ADD0000C0DD0000EADE0078
:100610000015E0000055E1000095E2000055E30000
:1006200000D5E3000000E5000080E50000AAE60038
:10063000002AE7000095E80000C0E9000040ED0056
:100640000015EE000040F00000C0F0000055F10081
:1006500000AAF2000055F30000D5F300002AF500CF
:1006600000C0F5000040F80000AAF9000029FA00D7
:100670000055FB0000C0FB000015FD000000FE005F
:1006800000EAFE000055000100C0000100AA0201BE
:1006900000EA0201004006010055060100150901AB
:1006A00000150901006A0B0100940B0100D50D0132
:1006B000004010010055100100C0120100AA1501F0
:1006C00000C01501004018010040180100551A0132
:1006D000007F1A0100951C0100AA1F0100D51F010F
:1006E000006A22010040250100552501001528015E
:1006F00000C02A0100C02A0100AA2D0100AA2D0174
:1007000000952F0100952F0100553201005532014F
:10071000006A3401006A340100553601006A36016E
:1007200000AA380100D5380100EA390100003A0179
:10073000006A3B01006A3B0100D53D0100404001D9
:1007400000004301006A450100AA4701002A4A014E
:1007500000AA4C0100554F0100555101002A5401D7
:1007600000405401002A5601002A56010080580119
:100770000095580100155B0100555C0100955D0175
:1007800000955E0100EA5F01002D630100D864015D
:1007900000ED66010042690100186C01002A6E013B
:1007A00000066F01006D700100D5720100407401F8
:1007B00000ED750100187601002D7801002D7801FB
:1007C00000587A01006D7A0100AD7C0100AD7C011A
:1007D00000587F01006D7F0100C6810100D88301B0
:1007E00000D8830100D58501006D870100028801D2
:1007F0000082880100028A01002D8B0100588C01C3
:1008000000C28D0100ED8E010002900100189101DF
:1008100000029201002D93010058940100C295013D
:1008200000189701002D9A01002D9A0100589C0193
:10083000006D9C0100429E01006D9E0100EDA00133
:100840000002A1010042A301006DA30100ADA501BA
:1008500000C2A5010018AA01002DAB010042AC01A5
:1008600000C2AD010082AE01006DB201006DB401A5
:10087000002DB60100C2B7010042B90100EDBA0176
:1008800000ADBC0100EDBD0100C2BF010018C101F7
:100890000098C5010098C5010080C7010095C701F7
:1008A00000ADC90100D8C9010030CC010046CC011F
:1008B000002DCE010042CE0100DBD0010000D101AD
:1008C0000002D3010002D3010040D5010086D5010A
:1008D0000018D70100ADD7010058D8010018DA017F
:1008E00000D8DA010098DB010058DD010058DD0175
:1008F0000018DE01002DDE010015DF01002DDF01F3
:1009000000ADE0010058E1010002E2010098E301BE
:100910000058E401002DE50100C2E60100D8E6011F
:100920000082E7010082E7010098E80100ADE801DC
:1009300000C0EB010006ED010000EE010040F001F7
:100940000080F201005BF401006FF4010040F60149
:10095000006AF60100EAF6010015F7010082FC01C9
:1009600000D8FC0100D8FD010057FE010058FF012E
:1009700000A9FF010082000200C20102000203027E
:1009800000820302002D0402005805020002060244
:1009900000580702006D090200AD0A0200D80A02E1
:1009A000002D0D02002D0D0200420E02006C0E0201
:1009B000006D1202008212020082140200981402DA
:1009C0000081160200AC1602002D19020042190225
:1009D000004F1A0200981B0200AD1B0200A41C026B
:1009E00000181E02002D1E020082200200AD20020F
:1009F000004223020058230200AD250200D8250240
:100A0000006D28020082280200E4290200422C0224
:100A100000582C02007A2D0200AD2E0200D82E02C2
:100A200000AD300200D8300200C233020018350297
:100A3000003A36020042370200D8370200983902E5
:100A400000ED3A02002D3C0200C23C0200D83E02FA
:100A5000005840020018410200424202006D430269
:100A600000ED4302008244020082450200ED46028E
:100A7000008247020015490200024B0200024C02AC
:100A800000184D0200824D02002D4E02000250025D
:100A900000D8510200ED520200185502002D5502F7
:100AA00000AD560200D8560200805802008058025D
:100AB00000C2590200D8590200985A0200AD5A02E9
:100AC00000185C02002D5C0200D65E0200EC5E02A3
:100AD00000166102002C610200816302009663022D
:100AE00000D6650200416702006C680200D6690208
:100AF00000016B02002C6C0200566D0200C16E02F8
:100B000000EC6F0200807202009572020080740295
:100B10000095740200C0760200C0760200FA7702E7
:100B20000080790200957902008F7A0200C07B0272
:100B300000C07B02008F7C0200407E02006A8002BF
:100B400000808002002C82020058830200D98302B8
:100B500000428502005887020016890200028A02BC
:100B600000808B0200988C0200D58D0200428F021B
:100B700000EC9002006C930200D6940200EC950207
:100B80000016980200569A0200ED9C0200829F0215
:100B900000D6A002002DA20200ADA40200EDA60224
:100BA00000ACA80200C2A90200EDAA020018AC0223
:100BB000006DAD020082AE0200C2AF0200EDB002D5
:100BC000002DB202002DB3020058B4020058B50245
:100BD0000058B6020082B70200D8B8020042BA023A
:100BE0000042BB020082BC0200C2BD0200D8BE02AD
:100BF00000D8BF0200EDC002002DC202006DC3028A
:100C0000002DC4020018C60200ECC7020041CA024F
:100C1000006DCB02006DCB0200D6CD020001CE02EA
:100C20000082D0020098D0020016D202002CD2021C
:100C30000058D4020058D4020018D702002DD70261
:100C400000ECD80200ECD80200EDD9020002DA0272
:100C500000ADDA020002DC020018DC020018DD023E
:100C6000002DDE020042DE020058DF0200ADE0028D
:100C700000ADE00200ADE1020042E302006DE302DC
:100C80000058E402006DE4020058E5020087E50226
:100C90000098E60200D8E60200EDE70200EDE70268
:100CA0000018E9020018E902006DEA020098EA0261
:100CB000002DEB020087EB0200EDEC020018ED02C4
:100CC0000018EE0200D8EE02002DF00200C2F00281
:100CD0000098F102006DF20200D8F3020058F4020D
:100CE00000ECF5020016F6020018F8020018F802EF
:100CF00000D6FA0200ECFA020006FE02001BFE0219
:100D00000070000300860003003004030046040363
:100D100000C1060300560703009B0903009B09035B
:100D200000960B03006C0C0300300E0300300E0322
:100D30000056100300461303005B1303001615034F
:100D4000009B170300C6170300011A0300F01C03E1
:100D500000F01C0300411F03002C210300F02203BC
:100D60000006230300302403005B240300DB25037B
:100D7000000626030096270300812803009B2A0310
:100D800000C62A0300C12C0300D62D0300C62F0382
:100D900000F02F0300D6310300C13203009B34035F
:100DA00000B0340300C136030001380300B039033A
:100DB00000DB390300013C0300C13C0300303E036B
:100DC00000303E030041400300414103005B430308
:100DD00000704303001B4A03001B4A0300DB4A0365
:100DE00000F04A03007D4B0300864B0300F04C03E8
:100DF00000F04C0300434E03006D4E0300DB4F0335
:100E0000001B51030046520300EC530300D6540369
:100E1000009B560300AD580300C65A0300C35B0392
:100E200000F05D0300065E0300065F03001B5F0326
:100E300000DB610300DB610300AD630300066503B3
:100E4000000665030018660300C6670300C6670353
:100E500000C3680300AC690300466C03005B6C03CD
:100E600000B06E0300B06E0300C36F03001B71037C
:100E70000046710300AD720300B0730300B073034A
:100E800000AD750300B0760300C6760300967803C4
:100E900000AC780300B07A0300067B0300307D03CA
:100EA00000467D0300EC7E0300167F0300308103C3
:100EB0000030810300ED8203004684030070840348
:100EC000005686030056860300F088030006890357
:100ED00000568B0300818B0300C68D0300C68D0373
:100EE00000D88E030016900300169003006D910346
:100EF00000B0920300C6920300ED930300AC94038C
:100F000000D69403005B96030086960300ED9703DA
:100F10000096990300C1990300469C0300469C0378
:100F200000AC9E0300C19E030081A00300ACA0039F
:100F30000030A2030046A2030070A3030070A303C5
:100F40000070A5030070A503005BA703005BA70367
:100F50000018A90300D8A9030086AC0300B0AC03B5
:100F600000B0AC0300B0AC0300B0AC0300B0AC0305
:100F70000043D103006ED10300EED1030019D20368
:100F80000044726F6F75742E776176000607020059
:100F90000200070607060002060702060707060208
:100FA00000020006070706010307060706070600FA
:100FB00002070607000207060706000207060700E9
:100FC00002070607000207060700020607010307DB
:100FD00007070607060707060700020200020002CD
:100FE00002020002000206070707070607070707B5
:100FF00000020706070002070607070607000207A8
:101000000707060707060706070002070607070780
:101010000607060706070700020607030103010685
:10102000070200060707060707060707060700026C
:10103000060702000200070607060301030100027B
:101040000607010306070002070600020607020062
:101050000002020002020002000202000607010371
:101060000706000207060002070600020607010342
:101070000200000202000707060707060706070628
:10108000070600020607030103010706070607001B
:1010900002000207060707060707060706070607F6
:1010A0000602000607030103010607070607000200
:1010B00007070607020207070706000007070607DB
:1010C00006020200070607060706000207060706D3
:1010D00002000607020006070606060707070607BE
:1010E00007070002070700020707000207070002C0
:1010F00007070002070702000200020707060706AB
:101100000303010301060707060706000207070697
:10111000070002020007070607000200020002069D
:10112000070202060702020200020002070600028E
:101130000607030707060702000206070202060762
:10114000020002060707070002000207060706075B
:101150000707060706070607060706070600020236
:101160000002000200020607030107060607070740
:101170000607000202000202020002000200020052
:101180000200020002000200020706070706070627
:10119000000206070301060700020607010306070F
:1011A0000002010300020002020002020002020625
:1011B00007060701030607070607000207060700E0
:1011C00002020007060707060707060706070607C5
:1011D00006020006070301030607070607020006CA
:1011E00007020007060200070607060706070607AC
:1011F00006070607010301030706070607020000AA
:101200000207060706020000020706070607060790
:101210000607060706070103010307060701030186
:10122000030706070602000002070607060706076F
:101230000607060706070607060301030103010365
:101240000103010301070602000607000207060763
:10125000060200070607030106070002060703014E
:101260000706020006070002020002000607020647
:101270000702070602070607060700020607030122
:10128000030706070607010301030706070706070A
:1012900007060707060706070200060703010706F9
:1012A000070607020002020002000607020200020F
:1012B00000060702060702060707060706070607D5
:1012C00006020006070207060206070706070002D5
:1012D000EA0C0000150D0000000F0000950F000043
:1012E0004010000000110000AA110000EA120000E6
:1012F00040140000EA140000801600008016000070
:1013000015180000151800006A190000AD1A000039
:10131000421C0000821D0000C21D0000021F0000D0
:10132000971F0000C2200000D721000057230000B3
:101330005723000042250000172600005727000011
:10134000972700009D290000722B0000472E000007
:10135000C72F0000473100009D320000DD33000040
:101360001D34000007360000B236000007380000C8
:101370007239000072390000B23A0000473B0000A9
:101380001D3C00009D3D0000073F0000073F00009E
:1013900032410000DD41000072430000C7440000FC
:1013A00007450000C746000087470000DD480000F1
:1013B0005D4A00005D4A0000874C0000474D000078
:1013C000874E0000F24F0000F24F00007051000005
:1013D00070510000DB520000DB5200009B55000002
:1013E000855700003058000005590000C55900001D
:1013F000305B0000305B0000855C0000F05C0000AA
:10140000DB5D00009B600000C56000009B62000087
:101410003063000005640000B064000070650000E7
:10142000B0660000706700001B680000C56800001F
:10143000456A0000456A0000E96B0000E96B0000A6
:10144000546D0000D46E000014700000697100003B
:1014500069710000D47200003F740000A97500009B
:10146000297700005477000025790000A579000055
:10147000CF7900004F7B00004F7B0000657C0000AF
:10148000E57C00003A7D00000E7E0000BA7E000080
:101490000F7F00008F800000BA80000025820000CE
:1014A000A5830000F98400003A8500007A860000D8
:1014B000E58600008F8700004F8800002589000026
:1014C000BA8900007A8A00007A8A0000CF8B000077
:1014D0004F8D00004F8D0000E58E00007A8F0000D8
:1014E0000F900000CF9000007A910000259200003C
:1014F0007A9300007A930000E5930000E5940000E1
:1015000065950000E5960000E59600004F98000004
:10151000E59900003A9B00008F9C0000FA9D0000B6
:10152000FA9D00003A9F0000CF9F0000A5A0000098
:10153000E5A000008FA30000BAA3000065A500008D
:10154000FAA50000A5A600003AA700003AA80000EE
:10155000BAA800004FA9000034AC000049AC00005C
:10156000F4AD0000F4AD000038AF000062B0000040
:10157000A2B10000CDB2000062B40000CDB5000001
:1015800022B70000CDB800000DBA000062BB000019
:10159000CDBC000022BE000098BF000098BF000034
:1015A00002C1000002C1000098C2000098C2000001
:1015B00082C5000082C5000018C8000018C80000DD
:1015C000D8CA000098CD00006DD000006DD000009A
:1015D00018D3000018D30000EDD500002DD700006F
:1015E000ADD80000ADD8000079DB0000B9DC000008
:1015F00064DE0000F9DE0000A4DF000024E100004A
:101600004EE20000E4E300004EE4000039E5000093
:10161000A4E60000A4E6000079E80000B9E80000B4
:10162000F9E90000CEEA000024EC000024EC000000
:1016300024EE0000CEEE000003F1000003F10000F4
:101640008EF2000064F30000F9F4000039F50000A8
:10165000CEF60000CEF6000079F8000079F8000020
:10166000E3F900004DFB0000ECFC0000ECFC000086
:101670003B020100FB0201002504010010050100EE
:10168000250601003B070100FB07010010090100CE
:101690000F0A0100D00A0100650B0100100C0100C7
:1016A000BB0C0100650D0100D00E0100100F010000
:1016B00050100100501001001011010065110100CF
:1016C000E5110100901201007B130100901301004D
:1016D0005014010025150100D0150100A5160100C8
:1016E000A5160100501701007B170100A518010085
:1016F000D0190100E51A0100A51B01007B1C0100A7
:10170000A51D01003B1E0100501F010065200100C6
:10171000FB200100BB210100502201002523010014
:10172000D0230100FB240100252501003B260100F8
:101730003B2601002527010065270100D027010075
:10174000902801007B2901007B290100902A0100DB
:10175000652B01003B2C0100C02D0100C02D0100B4
:10176000332F01004930010049310100F3310100FC
:10177000B33201005E330100B3340100C93501000A
:10178000DE360100893701005E380100F3380100C0
:101790005E3A0100733B01001E3C0100493D01001F
:1017A0009E3E01001E400100B34001007341010054
:1017B00009420100B3420100734301001E440100CD
:1017C000C944010089450100A5460100A546010064
:1017D000334801009E490100F34A0100494C0100D1
:1017E0009E4D0100B34D0100895001009E50010043
:1017F000DE510100095201009B5501009B5501007B
:1018000090570100FB580100655A0100655A01001C
:10181000105C01007B5D0100E55E0100FB5E0100E4
:101820003B60010090610100FB6201002563010043
:1018300050640100D0650100256701005067010078
:1018400090680100FB690100506B01007B6B010097
:10185000E56C0100256E0100906F0100A56F01008D
:10186000FB70010050720100D0730100E5730100AC
:10187000257501006576010092770100E778010087
:101880007C790100277A0100A77A0100BC7B010066
:10189000FC7C0100A77D01003C7E0100FC7E010074
:1018A000E77F010067810100E7810100A782010055
:1018B000128301003C84010052840100A7850100CD
:1018C00027860100E7860100528701005288010047
:1018D00067880100D2890100E78A01003C8B010082
:1018E0007C8C0100D28D0100D28D0100278F010078
:1018F000528F0100BC900100279201003C9301002F
:10190000A7930100D2940100D29401002796010010
:10191000279601007C970100A79701003C990100E0
:101920003C990100A79A0100E79B01003C9D010042
:101930003C9D01007C9E0100FC9F010052A1010022
:10194000E7A10100A7A201003CA3010012A401002D
:1019500067A501007CA50100D2A60100D2A6010066
:1019600027A8010027A80100BCA901003CAB010089
:10197000A7AC0100E7AD010012AE010067AF0100A6
:1019800027B00100FCB0010027B201003CB2010009
:101990007CB30100FCB401003CB601003CB6010080
:1019A000A7B7010027B80100D2B8010052BA010060
:1019B00052BA0100FCBB010067BD0100E6BE010098
:1019C000E6BE0100D1C20100D1C20100FCC4010089
:1019D00027C50100BCC6010067C8010067C8010037
:1019E000E7C9010067CB0100BCCB01003CCC010082
:1019F000A7CC010012CD0100E7CD010067CE0100A8
:101A0000BCCE010012CF010092CF0100E7CF010050
:101A10003CD0010067D1010067D10100FCD2010078
:101A20007CD3010012D40100A7D4010012D501001B
:101A300092D5010027D601003CD701003CD7010018
:101A400067D801007CD801007CD90100A7D901002A
:101A50003ADC010050DC010090DD0100E5DE010010
:101A600010DF010065E00100BAE10100E5E10100DD
:101A70003AE30100A5E40100A5E4010010E601003D
:101A800059E70100EFE70100AFE801006FE901004D
:101A90002FEA0100D9EA010099EB010059EC01009D
:101AA00019ED0100AFED01006FEE01002FEF010015
:101AB000D9EF010099F0010059F10100EFF10100A7
:101AC000C4F2010019F50100C4F501006FF6010030
:101AD00099F7010044F801002EF90100EFF9010027
:101AE00019FD010019FD01006FFF010099FF0100C0
:101AF00084010200AF010200EF030200190402009A
:101B0000D905020003060200AF070200AF0702007A
:101B10009909020099090200F30B0200F30B02007D
:101B2000F30D0200F30D0200B30F0200DE0F0200FE
:101B3000D31802009C190200851A0200861B0200BD
:101B4000311C02001C1D0200311E0200DC1E0200BE
:101B5000F11F0200F12002009C2102004622020037
:101B6000F12202009C2302005C240200B125020045
:101B7000C62502001B270200312702001C28020094
:101B80009C2802005C290200462A02005C2A02000E
:101B90005C2B0200312C0200F12C0200B12D02005E
:101BA000B12D0200712E0200862E0200C72F020006
:101BB000C7300200B03102005C3202005C33020028
:101BC0008734020031350200473602005C370200DC
:101BD0001C380200B138020071390200313A0200AB
:101BE000F13A02001C3C0200473C02009C3D02000E
:101BF000B13D0200713E0200DC3E0200B13F020036
:101C00009B400200C7400200C7410200B1420200EF
:101C10005C430200B1440200C744020031460200A6
:101C2000314602009C470200B1470200F148020021
:101C30001C490200314A02005C4A02009C4B02002F
:101C40005C4C02001C4D0200DC4D02009C4E020068
:101C5000314F0200DC4F0200B1500200715102000E
:101C60001C520200DC520200715302001C5402009C
:101C7000C7540200DC540200715502007155020085
:101C8000C75602007157020047580200DC58020094
:101C90009C5902005C5A0200715A0200F15A02007B
:101CA0001C5B02005C5C02005C5D0200715E020075
:101CB000315F02001C60020047600200C760020042
:101CC000C760020031620200DC6202009C63020015
:101CD0005C640200F16402009C6502005C66020024
:101CE00007670200B16702005C680200DC6802005E
:101CF0009C690200476A0200F16A0200F16A020070
:101D0000B16B0200B16B02001C6D0200876E020015
:101D1000C76F0200B1700200B1700200477102008B
:101D2000717102009C720200877302009C740200B1
:101D30005C750200317602005C760200C776020014
:101D4000DC7602005C780200DC790200317B020064
:101D5000B17C0200F17D02005C7F0200B1800200D4
:101D60001C8202009C830200DC8402005C8602006C
:101D700087870200F1880200718A0200DC8B020072
:101D8000318D0200B18E02001C900200B191020060
:101D9000F192020087940200DC950200479702004E
:101DA0009C9802001C9A02005C9B0200DC9C0200D2
:101DB000319E0200879F0200B19F0200DCA002005A
:101DC000F1A0020047A2020047A2020050A50200B3
:101DD00050A5020025A70200D0A702007AA80200A1
:101DE00025A9020065AA020090AA020050AB0200D9
:101DF000E5AB020090AC0200D0AF0200FAAF0200E7
:101E000010B2020010B202003AB402003AB402006A
:101E100050B6020050B6020050B8020065B8020089
:101E200025BA020050BA02007ABC020090BC02003F
:101E3000A5BE0200A5BE02007AC002007AC0020060
:101E400042C202006DC2020092CC020092CE020099
:101E50009BD10200C5D10200DBD2020070D4020087
:101E600070D40200B0D5020030D702005BD7020068
:101E700070D80200F0D902009BDA020045DB0200B4
:101E800005DC0200C5DC020005DE020005DE020002
:101E90005BDF02005BDF020030E0020085E0020051
:101EA0001BE1020070E202009BE202005BE3020021
:101EB0005BE402001BE50200DBE50200DBE502005B
:101EC00085E6020085E60200F0E7020005E902006F
:101ED000F0E90200C5EA02009BEB0200B0EC020050
:101EE00070ED020045EE020085EF020045F00200B1
:101EF00005F102009BF1020070F2020005F30200FE
:101F000045F4020070F402009BF502009BF502000C
:101F10009BF602001BF702009BF80200C5F80200C6
:101F2000C5F902009BFA02009BFB0200DBFC0200E9
:101F300005FD02006BFE02006BFF0200D6FF0200EF
:101F4000810003002B0103006B02030096020300D3
:101F5000EB030300D6040300560503001606030036
:101F6000C1060300EB070300EB0703006909030048
:101F7000D40A0300D40A03003F0C0300940D0300AD
:101F8000940D03003F0F0300FF0F0300A91003008F
:101F900054110300E9110300A9120300691303009F
:101FA000FF130300E9140300FF14030009160300E4
:101FB0003416030089170300C9180300DF18030053
:101FC0001F1A0300891B0300891B0300DF1C030089
:101FD0009F1F03009F1F03001F2103001F210300F9
:101FE000496E6F63656E2E77617600000206070307
:101FF00001060703070200020106000307020002B0
:1020000003070202000202020002020002020200B2
:102010000203070200020106000307020002010694
:102020000003020002020002030002020003020099
:10203000020202000200020200020200020200028A
:102040000200020307020200020200020202000272
:102050000200020202020002000202020002020367
:10206000070202000202000202070007000707033E
:102070000003000303010202010207020002000242
:102080000202000002020002020200020002020339
:102090000702000206020606020606060206010202
:1020A000010201010201010102010200020607060C
:1020B00007030702070607060703070207060200D1
:1020C00000020200020002000200020002000202FE
:1020D00000030702000202000200020200020307DE
:1020E00002010600000207060701030301030103C2
:1020F00003010301060003070200070602000202B3
:1021000000020002000207030702010600000203AA
:102110000102060707060700020706020002000286
:102120000200020002020002020002000203070293
:10213000000201060001060002000307020200027D
:102140000202000202020002020200020200020277
:102150000002020002030702020200000200000067
:102160000200000200000000020002000000000265
:102170000002000307020002020200020200020243
:102180000002060206060206020002020002020027
:102190000002020003070202020000020106000022
:1021A00002000202000200020607060707060607F1
:1021B0000200030702020002020002020200020201
:1021C00003070201060000020307020303030003E2
:1021D00000030300030301030706020003070201D3
:1021E00006000000020002020200020203070201D0
:1021F00006000002030702020200020000000200C3
:10220000020200020200060206010206070303079B
:102210000200020106000307020002030107060292
:102220000002020200020707000307020106000283
:102230000002070607030103070706070200070657
:102240000301070602000002020007060301010362
:102250000103060706070002000201070107020644
:102260000007030602010607030007060607070624
:102270000103020007060302000707070701010127
:102280000106070002020007060202000206060617
:1022900007060707070607060606060200020002F1
:1022A000030702000200020106000002000203060A
:1022B0000700020200020200020002000202000304
:1022C00007020002000200020706030101070200E4
:1022D00002020002020000000202030702010600DF
:1022E00000020307020202020006060602010200C3
:1022F00000020103030107060200000202020200BD
:1023000001010101070307020106000002020002A9
:102310000706070301030706070200020607010379
:10232000010303010200030107060200000201038A
:10233000020002000202030702010600000202007E
:10234000020200020706070701030301030301035A
:102350000706000201060003070200020706070342
:102360000307020106000002030107060200020043
:10237000020301070607020202000200000006072E
:10238000030106070307010603070106030702000E
:102390000201060001030706000206070607010303
:1023A00006070301070602000706030107060200ED
:1023B00007060301070602000706030107060200DD
:1023C00007060301070602002A0700002A0700008B
:1023D000800C0000950C0000AA110000C011000044
:1023E000C0140000D51400002A1700008018000057
:1023F000D51900002A1B0000401B0000C01D000072
:102400002A1F00006A20000095210000152300000B
:1024100080240000EA250000EA250000952800003D
:10242000952A0000952B0000952C00002A2F000013
:10243000402F00001532000055330000AA34000080
:10244000D534000055370000003A0000003A000083
:10245000C03C0000EA3D0000553F0000553F000031
:10246000EA4100001543000055440000AA45000061
:10247000D54500005548000095490000AA4A0000D3
:10248000004C0000AA4D0000D54E00005550000041
:10249000805000009553000095540000D555000071
:1024A0002A570000D5590000005A0000AA5C00001D
:1024B000005E0000405F00006A5F0000D561000020
:1024C000956400002A67000080680000D56900005C
:1024D0002A6B0000AA6C0000C06C0000556F000061
:1024E000EA710000D5740000EA740000557700001E
:1024F000EA790000EA790000C07C0000407F00001B
:10250000407F0000008200006A8400008084000098
:102510002A870000BF890000D4890000958C000044
:10252000158F0000408F0000B99100000D9300004E
:1025300063940000CE9500002397000039970000B7
:10254000CE9900008E9C00008E9C00004E9F0000E3
:1025500079A00000CEA10000E3A1000079A4000052
:102560004EA700004EA70000E3A9000023AB000027
:102570008EAC0000A3AC00004EAF0000E3B1000041
:10258000E3B100008EB40000B9B5000039B7000017
:1025900039B70000E3B9000098BC0000AEBD0000F0
:1025A00003BF000058C00000D8C1000003C20000F3
:1025B00043C3000098C4000098C40000D8C50000C0
:1025C00003C700002EC700006EC80000D8C9000075
:1025D000D8C9000018CB000058CC000083CC000004
:1025E000D8CD00002ECF00002ECF000083D00000F9
:1025F000EED1000003D2000018D300006ED400001A
:1026000083D4000043D500002ED7000058D7000027
:1026100083D80000D8D90000EED9000018DB0000F4
:10262000A2DC000098DC0000B7DD0000E2DD000065
:1026300022DF000062E0000077E00000B7E1000068
:1026400022E3000037E3000077E40000CDE500005E
:10265000E2E5000022E7000077E80000E2E9000080
:1026600037EB0000A2EC0000A2EC0000E6ED000059
:1026700026EF00003BEF00007BF00000D1F10000EE
:10268000E6F1000011F30000A6F40000A6F400003B
:10269000E6F500003BF7000051F7000091F800005C
:1026A000FBF9000011FA000026FB000090FC00007E
:1026B000A6FC0000D0FD000026FF000026FF000061
:1026C0003B00010066000100D0010100E6010100AD
:1026D000C6030100DB030100710501007105010063
:1026E0003107010071080100DB0901001B0B01002B
:1026F000860C0100860C01009B0E01009B0E010060
:102700009B100100C6110100061301005B140100BB
:102710009B1501008616010031170100DB1901002D
:10272000DB190100311B0100C61B0100711C0100F7
:102730001B1F0100451F0100F1210100F1210100D3
:102740001B2301004623010086240100862401008A
:1027500079250100A3250100F926010023270100A6
:1027600023290100CD2901000D2B01008D2C010032
:102770008D2C01000D2F0100632F0100633001003B
:10278000F83101000D32010078340100F834010005
:10279000F835010023370100F8370100B83801008F
:1027A0008D3901008D3A01004D3B01004D3C010087
:1027B0004D3C0100633E01000D3F010063400100FC
:1027C000B8410100CD41010023440100A3440100B0
:1027D000E34501003847010038470100A3490100E3
:1027E000234A01004D4B0100784C0100A34D01002C
:1027F0004D4E01008D4F01004D500100B8520100B7
:10280000CD52010038540100235501003856010013
:102810000D57010038570100F85901000D5A010009
:10282000F85A0100B85B0100635C0100F85E01002A
:102830000D5F0100F85F01008D6101008D620100F4
:102840004D6301003864010023650100E365010068
:10285000CD660100CD660100F868010078690100CD
:10286000E36A0100386C0100386C0100636E0100FE
:10287000F86E01004D7001008D710100B87101000A
:102880004D730100CD730100F87401008D750100D6
:102890000D770100B8790100B8790100B87B01001B
:1028A000387C0100B87D0100387F01004D7F0100B8
:1028B000A381010063840100788401008D860100FA
:1028C0000D87010063880100A3890100CD89010003
:1028D000388C0100788D0100B88E0100389001001D
:1028E00063900100E39201000D940100389501000E
:1028F000E3960100F89701004D990100B89A010094
:10290000E39A0100789D0100CD9E010023A0010003
:10291000CDA1010038A4010038A40100F8A60100EF
:102920004DA80100B8A90100B8A901004DAC0100F3
:10293000F8AE01000DAF0100A3B10100F8B2010033
:1029400063B4010078B40100E3B601008DB9010061
:10295000A3B9010023BC01008DBD0100E3BE01004D
:10296000E3BE0100A3C1010078C4010078C40100E6
:10297000F8C601004DC80100B8C901000DCB010027
:1029800038CC010063CC01000ECF010078D10100EA
:10299000A3D101004ED40100A3D50100F8D6010057
:1029A0000ED70100CED9010023DC01004EDC01006E
:1029B000F8DE010023E0010078E1010078E1010088
:1029C00078E40100B8E60100CEE6010065E9010007
:1029D000BAEA01003AEC01003AEC0100FAEE01001B
:1029E000A5F10100CFF10100CFF201004FF4010089
:1029F0008FF50100E5F60100FAF601000FF801007D
:102A00008FF90100A5F90100CFFA01002EFC0100A9
:102A100083FD010083FD0100C3FE0100EEFF010004
:102A2000EEFF010059010200D9020200EE0202008D
:102A3000190402006E05020099050200D906020081
:102A40002E080200580802006E090200830A0200E4
:102A5000830A0200E60B0200FB0B0200E60D0200F7
:102A6000FB0D0200E60F0200FB0F02007B110200CB
:102A7000BB1202001014020066150200BB16020011
:102A8000E6160200D0180200E5180200BB1A020088
:102A9000101C0200661D0200D01E02007B210200F5
:102AA0003B240200502402007B250200262602005F
:102AB000D0260200502902007B290200372C020098
:102AC000372C0200772D02008C2D0200E22E02002E
:102AD000F72E020022300200373002005831020087
:102AE0006D3102002D330200C3330200583502005D
:102AF000D4360200E9360200E637020066390200E9
:102B0000A6390200D13A0200113C02007B3D0200CE
:102B1000D03E0200D03E02002640020032410200B8
:102B20001D42020007430200DD430200DD440200B3
:102B30009D450200B2460200C74602009D480200C1
:102B4000324902009D4A0200F24B02005D4D020034
:102B5000C74E0200F24E02001D500200B2500200A9
:102B60005D510200C752020032540200325402008A
:102B700087550200C7560200DD560200B158020018
:102B8000DD5802009D5A0200C75A02007C5C020018
:102B9000115D0200BC5D0200515E0200D15E0200C8
:102BA000675F02002F61020084620200EF6302008F
:102BB0001964020044650200AF6602001968020051
:102BC0006F69020084690200C46A02002F6C02006F
:102BD000196D0200D96D0200996E0200846F020027
:102BE000597002002F7102002F7102005E72020004
:102BF000B37302001E75020089760200F3770200AB
:102C00004979020049790200997A0200D97B0200D1
:102C1000047D0200597E02006F7E0200EF7F0200F9
:102C20005A8102006F810200C48302006F86020095
:102C30008486020004890200DA8B0200EF8B020016
:102C40001A8F02001A9102005A920200AF930200FA
:102C5000EF9402005A9602009A970200049902002B
:102C60005A9A02006F9A02001A9D0200849E020086
:102C7000DA9F02005AA102009AA20200EFA302000A
:102C800044A502005AA50200AFA702005AA80200FC
:102C900004A9020084AA020004AC020084AE02006F
:102CA0009AAE02001AB102006FB20200DAB302005B
:102CB000EFB30200AFB60200C4B7020044B902008D
:102CC000DABA02001ABC020044BD020084BE02004F
:102CD000DABF02001AC1020084C2020044C302002B
:102CE00004C402009AC602001AC70200DAC7020032
:102CF0002FC90200C4C902009ACA0200EFCB020029
:102D00002FCD020004CE02009ACE02006FD0020046
:102D1000EFD00200DAD102005AD2020004D302003E
:102D2000AFD3020044D4020004D502009AD50200B9
:102D300044D6020004D9020004D90200F3DB0200E9
:102D400008DF02005DE1020008E4020088E60200FC
:102D500048E90200F3EB020008EC020048ED020033
:102D600048ED02009DEE0200C8EE0200F3EF020003
:102D7000F3EF020033F1020048F102009DF202007D
:102D80009DF2020004F4020004F4020004F50200C3
:102D90002FF5020084F6020099F602006FF8020097
:102DA0006FF8020059FA02006FFA020059FC0200A3
:102DB0006FFC020019FE020044FE020084FF0200C4
:102DC00099FF0200D9000300040103005902030027
:102DD0006F020300AF030300C4030300EF0403000A
:102DE000040503005906030084070300D909030002
:102DF000440A0300D90A0300C40B0300EF0B0300CD
:102E00006F1603002F190300C41B0300841E030068
:102E100044210300EF230300992603002F29030018
:102E2000C42B0300842E030019310300C4330300B4
:102E30006836030013390300A83B0300683E030013
:102E4000FE4003003E420300A9430300A9430300E0
:102E5000ED4403005746030082470300D7480300B0
:102E6000ED480300424A0300C24B0300174D030024
:102E70006D4E0300824E0300BC4F0300115103004E
:102E80007C520300D1530300E65303005156030064
:102E900066560300A6570300A6570300FC5803001C
:102EA00091590300515A0300D15B0300E65B030014
:102EB0003C5D03003C5D0300665E03003C5F030075
:102EC000BC5F0300116103003C6103005162030019
:102ED0007C620300916303007C640300E6640300EA
:102EE0003C66030066660300D16703009168030037
:102EF0003C690300666A0300BC6B0300D16B0300EE
:102F0000116D0300266D0300666E03007C6E0300E6
:102F1000E66F0300FC6F0300A67203001174030048
:102F200051750300A6760300BC760300E677030024
:102F3000FC7703003C79030051790300917A030088
:102F4000A67A0300A67C03003C7D0300BC7D030041
:102F5000917E0300A67F0300FC800300268103000E
:102F60007C820300D1830300E683030026850300EF
:102F70007C860300BC870300268903003C8903008C
:102F8000518A0300B28B0300728C0300478D03004B
:102F9000728E0300478F0300DD8F0300F89003005B
:102FA000F890030063920300CE930300F8940300AB
:102FB00078960300CE9703000E990300239903002F
:102FC000389A0300B89B03000E9D03004E9E030039
:102FD000789F0300B6A00300CBA0030021A3030049
:102FE00021A30300DAA40300DAA40300D7A5030099
:102FF00081A603002CA7030097A703002CA80300B9
:10300000D7A80300C1A90300D7A9030079AB030027
:10301000F9AC030079AE03008EAE0300B9AF030034
:1030200024B1030064B203008EB30300B9B30300FC
:1030300039B6030024B70300F9B70300CEB8030084
:10304000CEB9030079BA030064BB03008EBB030052
:10305000B9BC030039BE03004EBE030079BF0300B4
:10306000CEC00300CEC0030024C203008EC3030001
:10307000A4C30300CEC4030039C603004EC6030038
:103080008EC70300F9C803000EC9030024CA030059
:103090004ECA03008ECB03008ECB03000ECD03007F
:1030A00024CD030079CE03008ECE030070CF030041
:1030B0009ACF0300F3D0030088D103001DD2030090
:1030C0009DD203005DD30300DDD303009DD5030033
:1030D000B3D5030085D8030085D8030051DB030076
:1030E000E7DB030091DC030011DE030027DE0300B1
:1030F00091DF0300FCE00300D1E10300BCE2030028
:103100007CE3030051E4030011E5030011E6030032
:1031100027E6030091E7030010E80300E6E8030058
:1031200066EA0300A6EB0300BCEB0300E7EC030038
:10313000A6ED030051EE0300A7EF0300E6F0030045
:10314000FCF003003CF2030011F30300A7F30300BB
:10315000D1F4030051F6030067F6030067F803009B
:103160007CF8030051FA030066FA030011FC030027
:10317000E7FC030091FD0300FCFD0300BCFE03001F
:1031800066FF030091000400A7000400A2030400EE
:10319000770604008C0604000C090400770B040079
:1031A000620C0400220D0400F70D0400CC0E040094
:1031B000A20F04008C100400A2100400E21204000C
:1031C0008C1304004C140400CC1404008C1504006F
:1031D00021160400A2170400CC180400F7180400FC
:1031E000F71A04008C1B0400CC1C0400221E0400EF
:1031F0004C1E0400E22004004C220400A223040020
:10320000E12404000C2504008C2704000C29040090
:10321000772A0400B72B0400CC2B0400622E040094
:103220000C310400A1330400B733040062360400FB
:10323000E2380400623B0400F73D0400CC40040087
:103240008C4304000C460400B74804008C4B040077
:10325000B74C0400F74D04004C4F0400624F0400CB
:10326000F751040022530400A25404000C56040039
:103270004C5604004C57040062570400CC5804001C
:10328000E2580400E25A0400E25A0400845D04009B
:10329000AF5D0400DA5F0400EF5F04000462040025
:1032A0001A6204008E640400246604004E67040061
:1032B000396804000E690400E46904008E6A0400A1
:1032C000646B0400F96B0400B96C0400796D0400B0
:1032D000E46D04008E6E0400396F0400A36F0400D7
:1032E000397004008E7004000E710400A471040093
:1032F000F971040064720400E3720400797304003D
:10330000F973040064740400CE7404007975040039
:10331000F975040079760400E4760400647704000B
:10332000F9770400E4780400CE790400E47A04001C
:10333000A47B04008D7C0400F97D04004B656D6F57
:103340006E6F2E776176000706020002000200020F
:103350000706070103070607020706020607000221
:10336000070607060700020706070002070607010F
:103370000300020202020200060702060707060017
:1033800002060707060200070602000706070002FA
:1033900007060207060706070707060200060703D7
:1033A00001070002070603010607000207060301E2
:1033B00007060002070607060200060702000206CB
:1033C00007000207060207060103020002020200CC
:1033D0000707060707060700020706010306070797
:1033E0000607060700020706070706070707060283
:1033F000020002000207060002070607000202029E
:10340000000207060702000202020202000207068B
:10341000070706020007070607070607070607074C
:10342000060706020000020706070607060707064A
:103430000706060700020103060700020706070643
:103440000707060706070002030107060200070632
:103450000202000200020002070706070707010335
:103460000706000207070706020002070607060212
:103470000007060707000207060301060707060004
:1034800002020007060707060707060706070607E2
:1034900006000206070103070607070701030306E4
:1034A00007060700020607030103010307060200DF
:1034B00007060202000706070706070607070607B2
:1034C00006010307020002000706070607070706B2
:1034D0000707070706030103020007070607060799
:1034E00007060200020200070607030106070301A0
:1034F0000706000206070103070606070607070777
:103500000607070607070607060707060707060751
:103510000706070706070706070706070706070740
:103520000706070706070301070600020707070645
:103530000706020200070002020002000202000267
:103540000002020007060706020007060707060238
:103550000007000200020706070706070707060222
:103560000007060002070603010706070600020718
:103570000607060706020002070706020702070001
:103580000600060002020202000202020002000718
:1035900006070200020200020200070607070603F0
:1035A00001030301070600020706070602000200E6
:1035B00002020002000202000706070706070607CC
:1035C00007060301060707060200020007060200BD
:1035D00007060301000207060706020002020007B1
:1035E000060707060301030301070607060706028D
:1035F000020202000000000707070706060606038E
:10360000010706020006070706000202000706007F
:10361000020706070603016A0D0000800D00008006
:103620000F000000110000AA11000055120000AAAE
:10363000130000551400001515000040160000008E
:10364000170000C017000080180000AA180000D55D
:103650001900002A1B0000401B0000951C00000000
:103660001E00002A1E0000541F0000C0200000C0E1
:10367000200000152200002A22000080230000956F
:10368000230000B62500004B260000B62700000BE3
:103690002900000B290000362B0000A02B00000B96
:1036A0002D0000762E0000762E0000B63000003689
:1036B000310000CB3200000B34000036340000EC47
:1036C000360000EC360000253A00003A3C0000903D
:1036D0003E0000D03F00007A400000D0410000D002
:1036E000410000E5420000FA430000A4440000D07D
:1036F000460000E5460000104A0000104A0000FAAB
:103700004B0000254C0000654D0000254E0000A533
:103710004F0000BA4F00007A5100003A520000906A
:10372000540000BA540000FA550000A5570000E507
:10373000580000A55A0000A55A0000905C00002522
:103740005D0000BA5E00003A60000050600000902A
:10375000610000FA620000FA620000F66500000BEA
:10376000680000A0680000E0690000F66900004BF6
:103770006B0000606B0000766D0000206E0000762C
:103780006F0000B6700000CB700000CB72000076B6
:10379000730000CB7400008B750000F6760000F615
:1037A0007600006078000060780000B6790000E0E4
:1037B000790000607B00008B7B00008A7D00006048
:1037C0007E0000368100004B810000F68200008BF5
:1037D000830000C885000088860000F2870000B2E0
:1037E000880000088A0000328A0000728B0000DD29
:1037F0008C00009D8D0000F28E0000F28E000050C3
:1038000090000066900000BB910000E6910000501F
:1038100093000090940000BB940000FB950000FB17
:103820009500003D970000E89700007D9800003D5E
:10383000990000A89A0000689B00003D9C0000923F
:103840009D00003D9E0000E89E000028A00000FDB5
:10385000A000007DA1000052A200007DA20000A8EF
:10386000A30000D2A30000FDA4000028A50000686A
:10387000A6000068A60000D2A700007DA800003DB9
:10388000A90000FDA9000092AA0000E8AB0000E832
:10389000AB000068AD0000D2AE00007DAF0000D2EA
:1038A000B000007DB100003DB200007DB3000028F3
:1038B000B40000E8B4000052B6000012B70000D215
:1038C000B700007DB80000BDB90000E8B9000012E3
:1038D000BB00007DBC0000E8BD0000E8BD00006842
:1038E000BF0000BDC0000012C20000A8C30000A8B5
:1038F000C300007BC50000E6C60000A6C70000BBF1
:10390000C8000066CA0000A6CB0000BBCB000026A2
:10391000CD000090CE000090CE0000D0CF0000BBC4
:10392000D00000BBD10000FBD20000E6D3000010A5
:10393000D40000E6D5000066D60000BBD60000F635
:10394000D800008BD90000F6DA0000A0DB00000BE5
:10395000DD000060DE0000F6DE000060E000002018
:10396000E10000CBE1000020E3000076E40000F677
:10397000E500004BE70000E0E70000CBE800000BAB
:10398000EA000036EA0000B1EC0000C7EC00008B52
:10399000EF00008BEF0000F6F0000060F20000CBBB
:1039A000F300000BF500008BF60000F6F700003680
:1039B000F900008AFA000020FC00008BFD0000E006
:1039C000FE00002F0001002F000100DA020100DAE2
:1039D000020100A5050100A50501007C0801009376
:1039E0000801008F0A0100A50A0100800B010055A3
:1039F0000C0100000D0100AA0D0100800E0100C0A5
:103A00000F01009510010054110100EA110100AAF4
:103A10001201000F1601000F1601003A1801004FA5
:103A20001801007A190100251A01008F1B0100A559
:103A30001B0100A51D0100651E0100BE200100BE86
:103A40002101007E220100FE220100D32301009308
:103A50002401003E250100E9250100A926010053AB
:103A6000270100E9270100A9280100132A0100FE0F
:103A70002A0100132C01003E2C0100932D0100A906
:103A80002D0100E92E0100132F0100B7310100CCF8
:103A90003301000C350100B7350100213701004C1E
:103AA0003701006138010037390100CC3901007756
:103AB0003A01004C3B01008C3C0100B73C0100B7CF
:103AC0003E0100613F0100CC4001008C4101000C2F
:103AD0004301000C4301004C44010077440100B74E
:103AE000450100CC4501002147010037470100A1F5
:103AF000490100614A01004C4D01004C4D01007626
:103B00004F010036500100F15101009C52010006A6
:103B1000540100B15401003156010086570100DC08
:103B20005801009C5901005C5A0100065B0100B17C
:103B30005B0100715C01001C5D0100DC5D01003176
:103B40005F0100315F01008660010086600100DCDA
:103B5000610100DC610100606301000B6401008B06
:103B6000650100B6660100766701002068010076F5
:103B7000690100366A0100F66A01004B6C0100F62B
:103B80006C0100B66D0100606E0100CB6F01003664
:103B90007101008B720100E9730100947401003F10
:103BA000750100D475010094760100607901008BE5
:103BB000790100767B0100E07C01008B7D01004BE8
:103BC0007E0100A07F0100608001000B8101006088
:103BD0008201000B8301006A840100C0850100D5C9
:103BE0008501005587010095880100958801001521
:103BF0008A0100808B0100D58C01002A8E01008093
:103C00008F0100808F0100CB91010003930100AE72
:103C1000930100599401000395010059960100C3D6
:103C200097010003990100839A0100839A0100998A
:103C30009B0100839C01006E9D01006E9D01006E42
:103C40009E0100439F010059A001006EA0010017D2
:103C5000A2010097A20100ECA2010078A50100E3F7
:103C6000A6010056A80100ECA80100D6A901004158
:103C7000AB010096AC0100ECAD010081AE0100414A
:103C8000AF010096B0010001B2010056B30100D6A9
:103C9000B30100ACB401002CB60100D6B80100D6C7
:103CA000B8010081BB010096BB0100B5C00100B5A1
:103CB000C00100E0C501000AC60100B5CB0100CA81
:103CC000CB010075D1010075D101000AD701002098
:103CD000D70100B5DC0100B5DC010035E201004A86
:103CE000E201000AE501000AE50100E6E70100E65D
:103CF000E701003BE901007BEA010090EA010010C6
:103D0000EC010050ED01007BED0100E6EE0100103A
:103D1000F001003BF0010090F10100BBF20100E670
:103D2000F201003BF401007BF50100A6F50100E67D
:103D3000F601003BF8010050F80100A5F901000F61
:103D4000FB01000FFB010065FC0100BBFD0100D081
:103D5000FD0100FBFE01003B0002003B000200D021
:103D60000102002603020050030200A6040200FB29
:103D7000050200FB0502006607020066080200FB60
:103D8000080200260A02007B0B0200260C020090AB
:103D90000D0200FB0E0200A60F0200BB110200661E
:103DA000120200D0130200E613020026150200A63C
:103DB0001602003B170200E61702003B190200BB87
:103DC0001A02003B1C0200D01C0200A61D0200E6E5
:103DD0001E020050200200BB2102005022020026D9
:103DE0002302007B240200D02502003B270200D0E2
:103DF00027020090280200FB290200502B0200D06D
:103E00002C02003B2D0200102E02007B2F0200D05E
:103E10003002003A320200503202007B330200D0FE
:103E2000340200A53502000F370200663802001088
:103E3000390200BB390200103B0200D03B0200A651
:103E40003C0200E63D0200FB3D02007B3E0200A674
:103E50003E0200FB3F0200A640020010420200505A
:103E600043020010440200D04402003B460200E638
:103E70004602007B470200D0480200904902003B06
:103E80004A0200E64A0200504C0200664C0200BBA7
:103E90004D0200D04D0200254F02003B4F0200664C
:103EA00050020026510200905202003B5302007B58
:103EB0005402007B540200105602002656020050A5
:103EC000580200A65902003B5A0200E65A02002698
:103ED0005C0200D05C0200905D0200E65E02009091
:103EE0005F0200506002002661020066620200E686
:103EF0006302003B65020090660200FB670200500F
:103F0000690200A66A0200266C02003B6C02003BBC
:103F10006E0200FB70020090710200FB7202007BD7
:103F200074020026770200507802005079020026C1
:103F30007A0200107B0200E67B0200A67C0200BB36
:103F40007C0200D07E0200267F0200667F020029EC
:103F500082020094830200FE8402009485020054D1
:103F6000860200BE8702003E890200A98A02003E46
:103F70008B0200E98B0200698D0200A98E0200FE0F
:103F80008F02009490020069910200D4920200E92D
:103F90009202007E9502007E950200BE97020069A3
:103FA000980200C99D0200DE9D02007FA0020094DD
:103FB000A0020039A302008EA402000EA60200A3F4
:103FC000A6020079A70200E3A8020039AA02008E27
:103FD000AB020023AC0200F9AC02004EAE0200CEF0
:103FE000AF02000EB102008EB1020063B20200CE39
:103FF000B3020039B5020079B6020023B70200E32C
:10400000B702004EB9020079B9020079BB0200790B
:10401000BB0200B9BC020079BD0200E3BE0200F998
:10402000BE0200CEC002008EC10200B9C2020079F9
:10403000C3020079C40200A3C40200E3C502002346
:10404000C7020063C802000EC90200F0C9020006E0
:10405000CA020087CC02009CCC0200DCCD0200F139
:10406000CD020070CF0200DAD0020030D20200C5CB
:10407000D2020085D30200F0D4020045D60200B07F
:10408000D702005AD802001AD902005ADA0200C533
:10409000DB020030DD0200B0DD02009ADE0200DA51
:1040A000DF020005E00200F0E102001AE20200383F
:1040B000E30200E3E3020078E5020038E60200E3F1
:1040C000E602008DE702004DE80200E3E80200B8D6
:1040D000E902000DEA0200F8EA0200B8EB020078FB
:1040E000EC02000DED0200CDED020078EE0200239F
:1040F000EF0200A3EF02008DF00200CDF1020023D9
:10410000F3020038F302008DF4020023F50200F8F8
:10411000F50200F8F5020063F70200F8F70200CD9F
:10412000F80200F8F8020023FA02004DFA02008DAE
:10413000FB0200E3FC02004DFE02004DFE0200B84F
:10414000FF020063000300B801030038020300A36C
:10415000030300B803030073656E626F6E2E776110
:1041600076000002060701030607000206070103A6
:104170000607000200020607010302000607060701
:104180000002000200020002060701030607020007
:1041900007060002020006070200060703010607E1
:1041A00002000200060703010706020007060200DC
:1041B00007060002020007060002060700020103CC
:1041C00006070002010306070002070600020607B1
:1041D00000020706010306070200060700020607A1
:1041E0000103060702000706020002060702000795
:1041F000060002070602000002020007060002068F
:104200000702070602000103060700020706020074
:104210000706020007000207060002030106070264
:10422000000607000203010200010300020103006F
:10423000020607020006070200060706070002063C
:104240000700020301020007060200070602060734
:104250000200070602000200020002000200020043
:1042600002000706070607060706070607060706F1
:104270000706030103010301030107060706020005
:1042800002000706070603010301070607060200EE
:1042900002000607020006070002030106070002EB
:1042A00007060206070200060700020301060700D0
:1042B00002030106070002030107060002030106CC
:1042C00007000203010607000203010607000203BC
:1042D00001060700020200060701030706000207A5
:1042E00006010300020103000201030002020007AD
:1042F0000602000301000200020706020006070092
:104300000203060200020607020007000207060277
:10431000000207060200070206000200020706006C
:104320000206070002000200020103070602000263
:104330000006070200060702000301060702000646
:104340000702000607000201030607020007060233
:104350000007060206070200070600020607000221
:104360000200020002000706070607060703010312
:1043700001030706070602000607000206070200FF
:1043800006070002030106070002060700020103F8
:1043900006070200060700020301070602000206E4
:1043A00002000200020002000200020002000200FD
:1043B00002060706070607060700020607030106AE
:1043C00007000200020607000201030301060700BE
:1043D00002800D0000AA0D00006A13000080130087
:1043E000008019000095190000D51C0000EA1C008F
:1043F00000A91F0000D51F0000C0250000C0250037
:1044000000D52B0000EA2B0000EA310000EA310061
:1044100000003500000035000000380000003800C2
:10442000002A3E00002A3E00002A440000404400CA
:10443000004047000055470000554A0000554A001B
:1044400000804E0000AA4E00005550000080500031
:10445000006A56000080560000955C0000955C00E4
:104460000095620000AA620000AA650000AA65002B
:1044700000C0680000EA680000C06E0000EA6E003C
:1044800000EA71000000720000EA7400000075008C
:1044900000EA7A0000007B0000D57D0000007E006D
:1044A00000EA800000EA80000040860000158700D6
:1044B00000958C0000558D000080920000559300FF
:1044C00000809600009596000095990000AA99003A
:1044D00000C09E0000959F000000A50000C0A50040
:1044E00000EAAA0000AAAB0000EAAE000015AF0087
:1044F00000D5B1000000B20000D5B7000000B80040
:104500000000BE00002AC1000040C4000055C700E2
:10451000002ACA00002ACA000055D000006AD30051
:104520000080D600006AD900006ADC00006ADC0066
:1045300000EADE0000EADE00006AE200006AE20053
:10454000006AE5000095E50000AAE80000AAE8007E
:104550000095EB000095EB0000AAEE0000AAEE002B
:1045600000AAF10000AAF10000D5F40000EAF4006E
:1045700000C0F70000EAF7000040F9000055F9001C
:1045800000C0FA0000D5FA0000EAFD000000FE00BD
:1045900000EA000100FF000100D503010000040152
:1045A00000D5060100D5060100EA090100000A0154
:1045B00000150D0100150D0100800E0100950E0182
:1045C00000001001002A10010080110100AA110151
:1045D00000151301002A1301004016010080190183
:1045E000006A1C0100801F01005522010080250186
:1045F00000152701006A2801006A280100802B01AC
:1046000000952E0100AA31010095340100C0370148
:1046100000C0370100D53A0100003B0100EA3D012E
:10462000006A3F0100D5400100D5400100D543019B
:1046300000EA460100EA490100EA4C01006A4E0125
:1046400000804E0100005001000050010015530190
:1046500000005601001556010095570100AA5701A8
:1046600000005901002A590100AA5A0100D55A0137
:1046700000405C0100405C0100555F010055620193
:1046800000C06301004065010055650100806801BC
:104690000080680100806B0100806B0100556E0195
:1046A000006A6E010095710100C0710100957401EE
:1046B0000095740100D5790100AA7A0100008001FB
:1046C00000D580010000860100C0860100EA890152
:1046D00000EA890100158D01002A8D010015920163
:1046E00000159301004098010015990100009F01F9
:1046F00000009F010095A00100C0A0010015A201CB
:10470000002AA20100AAA30100D5A3010055A5011A
:104710000055A5010095A80100EAA9010080AB01A0
:104720000080AB010095AE0100EAAF010080B1014D
:104730000080B10100AAB401002AB6010095B701BA
:104740000095B70100C0BA01002ABC0100AABD0152
:1047500000AABD0100AAC00100D5C00100D5C30157
:10476000002AC50100D5C60100EAC60100D5C9016D
:104770000095CA010015CC0100C0CC010055CE0146
:1047800000D5CF010000D001006AD1010040D20164
:104790000000D6010095D701002AD9010095DA0161
:1047A0000040DC0100AADD01002ADF0100AAE001CF
:1047B0000015E20100C0E3010055E50100D5E60166
:1047C000002AE80100C0E9010040EB0100AAEC0169
:1047D000002AEE0100C0EF010080F10100D5F201D6
:1047E0000055F40100EAF501006AF7010015F9012E
:1047F0000055FA0100EAFB01006AFD0100EAFE0132
:104800000095000200EA010200AA0302002A050244
:10481000008006020015080200AA090200400B02EF
:1048200000C00C0200400E0200C00F02006A11021C
:1048300000C0120200401402001516020080170288
:1048400000EA180200691A0200151C0200951D02F8
:1048500000001F0200802002002A220200AA230278
:10486000002A250200802602002A280200AA290226
:10487000002A2B0200AA2C0200402E0200C02F02A8
:10488000002A310200D532020055340200D535022B
:10489000006A37020080370200D53902006A3A0206
:1048A00000EA3B0200EA3B0200803D0200803D023C
:1048B00000D53F020095400200154202002A420244
:1048C0000095430200AA430200C0450200AA460226
:1048D0000040480200AA490200C0490200EA4B0217
:1048E00000954C0200154E0200404E0200C04F02DF
:1048F00000C04F020000520200C05202002A5402BF
:104900000040540200C0550200D55502001558025F
:1049100000C0580200555A0200555A0200D55B02E9
:1049200000EA5B02002A5E0200EA5E02006A6002A0
:104930000080600200D5610200006202002A640269
:1049400000D56402006A6602006A660200EA670235
:1049500000156802002A6A0200006B0200806C02E7
:1049600000956C0200156E0200406E02006A700233
:10497000001571020095720200AA7202002A7402E8
:1049800000407402008076020015770200C07802B1
:1049900000C0780200557A02006A7A0200957C0213
:1049A00000407D0200D57E0200EA7E0200558002B2
:1049B0000080800200558302006A8302006A86023A
:1049C000006A860200EA8702001588020055890203
:1049D0000080890200808C0200808C0200EA8D0237
:1049E00000158E0200AA8F0200C08F0200159102EE
:1049F0000040910200AA920200D592020055940252
:104A000000EA940200959602002A970200D59802C7
:104A100000559A0200EA9B0200559D0200D59E02B5
:104A200000EA9E020055A002006AA00200EAA1026C
:104A30000000A2020015A5020015A80200D5AA02D6
:104A400000EAAA020015AE020040AE020015B10253
:104A50000055B4020055B702006ABA0200D5BB0285
:104A60000055BD020055BD0200C0BF020080C0025B
:104A700000EAC1020055C3020055C30200D5C502B9
:104A80000080C6020000C802006AC9020080C90294
:104A900000EACB0200C0CC02002ACE02006ACF029C
:104AA0000095CF0200EAD10200C0D2020000D40279
:104AB000002AD40200AAD50200AAD50200EAD70231
:104AC0000095D8020015DA020015DA0200C0DB02F8
:104AD00000C0DB020055DD02006ADD020015DE02C7
:104AE0000040DE0200EAE10200EAE10200D5E7024E
:104AF00000D5E70200D5EA02006AEC020015EE02DA
:104B0000002AEE020055F3020015F4020095F502AA
:104B100000AAF5020015F7020040F70200C0F802F3
:104B200000C0F802002AFA020055FA0200AAFF02A9
:104B30000040000300550303006A0303000006035E
:104B400000C00603005509030080090300C00B03E1
:104B5000006A0C0300D50D0300D50D03006A0F0396
:104B6000006A0F0300EA1003000011030080120323
:104B7000009512030000150300AA1503002A17036D
:104B80000040170300AA180300D5180300001B03F8
:104B900000D51B03002A1D0300951E0300AA1E0357
:104BA00000D51F0300EA200300C02103002A2303CD
:104BB00000D5240300EA24030055260300552603EC
:104BC00000D5270300EA2703006A290300152A03FA
:104BD00000EA2A03002A2C03002A2D0300EA2D03F1
:104BE00000952F03001530030000310300C032038D
:104BF00000553303001534030095350300EA3603EE
:104C0000006A38030040390300003A0300803B0388
:104C100000153D0300D53D0300553F03001540033B
:104C20000095410300AA4103002A430300404303C7
:104C300000EA4503000046030040490300404903E1
:104C400000554C03006A4C0300C04D0300EA4D03BD
:104C5000006A4F03006A4F03006A52030095520333
:104C6000005555030080550300005703000057030B
:104C7000008058030080580300155A0300155A039A
:104C800000805B0300AA5B0300955E0300955E0352
:104C900000006103009561030000630300006303EB
:104CA0000095640300C0640300C06703004069030B
:104CB00000D56A0300406C0300EA6D03006A6F03CD
:104CC0000015710300807203000074030015740363
:104CD000009575030000770300AA780300157A0396
:104CE00000957B0300157D0300C07E030040800318
:104CF00000AA8103002A830300C0840300408603C6
:104D000000C087030040890300D58A0300408C035C
:104D100000D58D0300558F0300EA900300409203F5
:104D200000D593030055950300D5960300409803E2
:104D3000006A980300D5990300D5990300559B0399
:104D400000809B0300EA9C0300009D0300809E03FB
:104D500000959E0300C09F0300C09F0300C0A003F6
:104D600000C0A0030095A10300AAA103006AA40348
:104D7000006AA4030095A50300C0A50300C0A60314
:104D800000D5A60300AAA70300C0A70300417574BD
:104D90006F0053706565643A004D6969726F004732
:104DA00061627269656C44726F706F757400496EF0
:104DB0006F63656E74466C6F77657200596F756BC3
:104DC0006F736F4A61706172695061726B45210047
:104DD00053656E626F6E5A616B75726100234E6F20
:104DE000746573004D6969726F2E77617600447245
:104DF0006F6F75742E77617600496E6F63656E2EE6
:104E0000776176004B656D6F6E6F2E77617600006F
:104E1000000000240027002A0000000000250028D0
:104E2000002B0000000000230026002900040404D9
:104E30000404040404020202020202030303030343
:104E40000301020408102040800102040810200120
:104E50000204081020000000080002010000030402
:104E6000070000000000000000000000000000003B
:104E70004F00000007000700147F147F14242A7FCE
:104E80002A12231308646236495522500005030094
:104E900000001C2241000041221C0014083E08149E
:104EA00008083E08080050300000080808080800FC
:104EB0006060000020100804023E5149453E004257
:104EC0007F400042615149462141454B311814123F
:104ED0007F1027454545393C4A494930017109054C
:104EE000033649494936064949291E00363600002D
:104EF0000056360000081422410014141414140043
:104F0000412214080201510906324979413E7E11BD
:104F100011117E7F494949363E414141227F41413D
:104F2000221C7F494949417F090909013E414949FC
:104F30007A7F0808087F00417F41002040413F01FF
:104F40007F081422417F404040407F020C027F7F57
:104F50000408107F3E4141413E7F090909063E4158
:104F600051215E7F09192946464949493101017F8E
:104F700001013F4040403F1F2040201F3F4038403C
:104F80003F631408146307087008076151494543DB
:104F9000007F41410002040810200041417F0004CD
:104FA000020102044040404040000102040020543D
:104FB0005454787F48444438384444442038444466
:104FC000487F3854545418087E0901020C5252523A
:104FD0003E7F0804047800447D40002040443D00AA
:104FE0007F1028440000417F40007C041804787C36
:104FF0000804047838444444387C14141408081411
:1050000014187C7C080404084854545420043F4479
:1050100040203C4040207C1C2040201C3C40304034
:105020003C44281028440C5050503C4464544C4498
:10503000000836410000007F0000004136080008EB
:10504000082A1C08081C2A08080065385138112451
:105050001FBECFEFD8E0DEBFCDBF11E0A0E0B1E0D2
:10506000E4E1FCE702C005900D92AC33B107D9F73B
:1050700023E0ACE3B1E001C01D92A030B207E1F73C
:1050800018E2C6E2D8E204C02197FE010E94663908
:10509000C532D107C9F70E946F2F0C94FD3D0C94C7
:1050A0000000CF92DF92EF92FF920F931F93CF9366
:1050B000DF936C017A018B01C0E0D0E0CE15DF05F3
:1050C00089F0D8016D918D01D601ED91FC9101908F
:1050D000F081E02DC6010995892B11F47E0102C0F3
:1050E0002196ECCFC701DF91CF911F910F91FF90D7
:1050F000EF90DF90CF900895FC01918D828D9817ED
:1051000061F0828DDF01A80FB11D5D968C91928DAB
:105110009F5F9F73928F90E008958FEF9FEF0895A8
:10512000FC01918D828D981731F0828DE80FF11D71
:10513000858D90E008958FEF9FEF0895FC01918D8C
:10514000228D892F90E0805C9F4F821B91098F7385
:105150009927089588E991E00E949E2821E0892BF3
:1051600009F420E0822F0895FC01848DDF01A80F4F
:10517000B11DA35ABF4F2C91848D90E001968F737F
:105180009927848FA689B7892C93A089B1898C919E
:1051900080648C93938D848D981306C00288F38964
:1051A000E02D80818F7D80830895EF92FF920F9391
:1051B0001F93CF93DF93EC0181E0888F9B8D8C8DC3
:1051C000981305C0E889F989808185FD24C0F62EF1
:1051D0000B8D10E00F5F1F4F0F731127E02E8C8D8A
:1051E000E8120CC00FB607FCFACFE889F989808174
:1051F00085FFF5CFCE010E94B428F1CF8B8DFE0143
:10520000E80FF11DE35AFF4FF0820B8FEA89FB890B
:105210008081806207C0EE89FF896083E889F9890F
:1052200080818064808381E090E0DF91CF911F9145
:105230000F91FF90EF900895CF93DF93EC01888D4D
:105240008823C9F0EA89FB89808185FD05C0A8898A
:10525000B9898C9186FD0FC00FB607FCF5CF808110
:1052600085FFF2CFA889B9898C9185FFEDCFCE015A
:105270000E94B428E7CFDF91CF91089580E090E0BD
:10528000892B29F00E94AA2881110C94000008950E
:10529000833081F028F4813099F08230A1F00895B4
:1052A0008730A9F08830B9F08430D1F48091800043
:1052B0008F7D03C0809180008F7780938000089558
:1052C00084B58F7702C084B58F7D84BD08958091A9
:1052D000B0008F7703C08091B0008F7D8093B000C5
:1052E00008953FB7F8948091910190919201A09117
:1052F0009301B091940126B5A89B05C02F3F19F0EA
:105300000196A11DB11D3FBFBA2FA92F982F882745
:10531000820F911DA11DB11DBC01CD0142E0660FA0
:10532000771F881F991F4A95D1F708950E948C3CDA
:10533000009711F00E942A3B08950F931F93CF937B
:10534000DF93EC0188819981009729F02A813B81C4
:105350002617370788F48B016F5F7F4F0E94C23B8F
:10536000009761F0998388831B830A832C813D8198
:10537000232B11F4FC01108281E001C080E0DF9159
:10538000CF911F910F910895CF93DF93EC01888106
:105390009981009711F00E942A3B198218821D8280
:1053A0001C821B821A82DF91CF9108951F920F9267
:1053B0000FB60F9211242F933F934F935F936F93E8
:1053C0007F938F939F93AF93BF93EF93FF9388E95E
:1053D00091E00E94B428FF91EF91BF91AF919F910E
:1053E0008F917F916F915F914F913F912F910F908E
:1053F0000FBE0F901F9018951F920F920FB60F922D
:1054000011242F938F939F93EF93FF93E091A80123
:10541000F091A9018081E091AE01F091AF0182FD90
:1054200012C090818091B1018F5F8F732091B20182
:10543000821751F0E091B101F0E0E856FE4F958FF0
:105440008093B10101C08081FF91EF919F918F9175
:105450002F910F900FBE0F901F901895CF93DF9351
:10546000282F30E0F901EB5AF14B8491F901EF5B01
:10547000F14BD491F901E35DF14BC491CC2391F050
:1054800081110E944829EC2FF0E0EE0FFF1FED5D27
:10549000F14BA591B491EC91ED2381E090E021F4E2
:1054A00080E002C080E090E0DF91CF9108951F93EB
:1054B000CF93DF93282F30E0F901EB5AF14B849121
:1054C000F901EF5BF14BD491F901E35DF14BC4912C
:1054D000CC23C9F0162F81110E944829EC2FF0E04F
:1054E000EE0FFF1FE75EF14BA591B4918FB7F894D3
:1054F000111105C09C91ED2FE095E92302C0EC91BC
:10550000ED2BEC938FBFDF91CF911F910895CF9337
:10551000DF9390E0FC01EF5BF14B2491FC01E35D34
:10552000F14B8491882361F190E0880F991FFC0171
:10553000E15FF14BC591D491FC01E75EF14BA59180
:10554000B491611109C09FB7F89488812095822396
:105550008883EC912E230BC0623061F49FB7F894DE
:105560003881822F809583238883EC912E2B2C9376
:105570009FBF06C08FB7F894E8812E2B28838FBF7A
:10558000DF91CF9108958F929F92AF92BF92CF9269
:10559000DF92EF92FF926B017C010E9471294B0117
:1055A0005C01C114D104E104F104F1F00E947129FD
:1055B000DC01CB0188199909AA09BB09883E9340EF
:1055C000A105B10570F321E0C21AD108E108F10884
:1055D00088EE880E83E0981EA11CB11CC114D10472
:1055E000E104F10419F7DDCFFF90EF90DF90CF9049
:1055F000BF90AF909F908F9008951F920F920FB61B
:105600000F9211242F933F938F939F93AF93BF9348
:1056100080913C0190913D01A0913E01B0913F01EC
:105620003091900123E0230F2D3720F40196A11D26
:10563000B11D05C026E8230F0296A11DB11D2093C0
:10564000900180933C0190933D01A0933E01B09363
:105650003F018091910190919201A0919301B091AD
:1056600094010196A11DB11D809391019093920127
:10567000A0939301B0939401BF91AF919F918F91AB
:105680003F912F910F900FBE0F901F9018950F9381
:105690001F93CF93DF931092ED02CFE3D0E00FE79B
:1056A00010E02FE330E0AE0160E070E0CE010E9438
:1056B0008E2DC8018C1B9D0B2FE330E0AC0160E008
:1056C00070E00E948E2D0E94752E65E070E080E0F3
:1056D00090E00E94C32A219720F7DF91CF911F917C
:1056E0000F910895AF92BF92CF92DF92EF92FF9207
:1056F0000F931F93CF93DF936C0121E030E000E024
:1057000010E04AE0C601B9010E941139672B49F047
:105710000F5F1F4FB901469F9001479F300D112425
:10572000F1CF98012150310980E090E0C1E0D0E054
:105730004AE08217930744F4BE01469FE001479F69
:10574000D00D11240196F5CFE12CF12C8AE0A82E82
:10575000B12CE016F10691F0C601BE010E9411398C
:105760006C0180E3860F0E94F22E7FEFE71AF70AA2
:10577000CE01B5010E941139EB01EBCFDF91CF9142
:105780001F910F91FF90EF90DF90CF90BF90AF905F
:105790000895EF92FF920F931F93CF93DF93DC0155
:1057A0009C919E3008F09E5097702091000180E4FB
:1057B000289F90011124922B90937C0080917A0075
:1057C000806480937A0080917A0086FDFCCFE0911E
:1057D000780080917900F0E0F82B12960D911C91E1
:1057E00013970F5F1F4FC0E0D0E080E090E020E013
:1057F000EC17FD076CF0800F911F7C01EE0CFF1C75
:10580000E11434E0F30614F02F5F94502196F0CFAA
:1058100014969C9114974923422340954223FB01FF
:10582000408314962C93DF91CF911F910F91FF909D
:10583000EF900895EF92FF920F931F93CF93DF9312
:10584000EC017B018A01888599850E9498298A85C7
:105850009B850E949829F982E8821B830A83C801EC
:10586000079697FD07969C0143E0359527954A9545
:10587000E1F7E29EC001E39E900DF29E900D11248F
:105880009F838E838C01095F1F4F17FF02C0095F42
:105890001F4F23E0159507952A95E1F71D830C838B
:1058A0001816190624F40E94953A998788871016CD
:1058B00011062CF4C8010E94953A9B878A8780E0E4
:1058C00090E02E813F81821793073CF4E885F985AB
:1058D000E80FF91F10820196F4CF80E090E02C8150
:1058E0003D81821793073CF4EA85FB85E80FF91F99
:1058F00010820196F4CFDF91CF911F910F91FF900D
:10590000EF90089597FD62C02091E1023091E2028C
:10591000821793070CF05AC077FD58C04091E302FC
:105920005091E402641775070CF050C0FB0153E07E
:10593000F595E7955A95E1F7E29FA001E39F500D99
:10594000F29F500D1124840F951FE091E902F09110
:10595000EA02E80FF91F40812091ED026770772776
:10596000222341F021E030E001C0220F6A95EAF7DE
:10597000242B08C021E030E001C0220F6A95EAF72D
:10598000209524232083E091E902F091EA02E80FB8
:10599000F91F20812417D1F09C0143E0359527950C
:1059A0004A95E1F7E091EB02F091EC02E20FF31F70
:1059B0008770992721E030E0A90102C0440F551FEC
:1059C0008A95E2F7CA019081892B80830895CF924E
:1059D000DF92EF92FF920F931F93CF93DF936C01AF
:1059E00000E010E0C0E0D0E07601E00EF11EF7012B
:1059F000249130E00C2E02C0359527950A94E2F7E9
:105A000020FF0CC06091F0027091F1026C0F7D1FBD
:105A10008091EE029091EF020E94822C2196C83074
:105A2000D10529F78091EE029091EF0201969093B3
:105A3000EF028093EE020F5F1F4F0530110591F6C4
:105A4000DF91CF911F910F91FF90EF90DF90CF905A
:105A5000089561E0809195010E94572A80919601F6
:105A60000E942E2A892BD1F760E0809195010C9439
:105A7000572A811107C061E08091D8020E94572AFD
:105A800060E006C060E08091D8020E94572A61E081
:105A90008091D9020C94572A1F93CF93DF93162F2E
:105AA000C5EDD2E0682F88810E94572A612F70E0EF
:105AB0002BB1CB01880F991F880F991F922F9370DC
:105AC000892B8BB985B146E0759567954A95E1F7C5
:105AD0008C7F682B65B961E08A810E94572A60E05B
