:100000000C944E010C9476010C9476010C947601BC
:100010000C9476010C9476010C9476010C94760184
:100020000C9476010C9476010C9476010C94760174
:100030000C9476010C9476010C9476010C94760164
:100040000C9417050C9476010C94E5040C94BF04F1
:100050000C9476010C9476010C9476010C94760144
:100060000C9476010C947601000000002400270017
:100070002A0000000000250028002B0004040404CE
:100080000404040402020202020203030303030342
:10009000010204081020408001020408102001021F
:1000A00004081020000000080002010000030407FB
:1000B0000000000000000000000000000000004FF1
:1000C00000000007000700147F147F14242A7F2AF1
:1000D00012231308646236495522500005030000BC
:1000E000001C2241000041221C0014083E08140894
:1000F000083E0808005030000008080808080060A2
:1001000060000020100804023E5149453E00427F35
:10011000400042615149462141454B311814127F3C
:100120001027454545393C4A4949300171090503C5
:100130003649494936064949291E0036360000002D
:1001400056360000081422410014141414140041FF
:100150002214080201510906324979413E7E1111EB
:10016000117E7F494949363E414141227F4141222A
:100170001C7F494949417F090909013E4149497AA2
:100180007F0808087F00417F41002040413F017FF8
:10019000081422417F404040407F020C027F7F04D0
:1001A00008107F3E4141413E7F090909063E415109
:1001B000215E7F09192946464949493101017F01DC
:1001C000013F4040403F1F2040201F3F4038403FFC
:1001D0006314081463070870080761514945430018
:1001E0007F41410002040810200041417F000402C9
:1001F00001020440404040400001020400205454E9
:1002000054787F484444383844444420384444486F
:100210007F3854545418087E0901020C5252523E41
:100220007F0804047800447D40002040443D007F66
:100230001028440000417F40007C041804787C08AA
:1002400004047838444444387C1414140808141402
:10025000187C7C080404084854545420043F44404B
:10026000203C4040207C1C2040201C3C4030403C36
:1002700044281028440C5050503C4464544C4400D2
:100280000836410000007F000000413608000808E1
:100290002A1C08081C2A08086105D70811241FBE5B
:1002A000CFEFD8E0DEBFCDBF11E0A0E0B1E0E4EADF
:1002B000F4E102C005900D92A831B107D9F723E00F
:1002C000A8E1B1E001C01D92A53CB207E1F711E041
:1002D000CDE4D1E004C02197FE010E940D09CC3489
:1002E000D107C9F70E94B0050C94450A0C94000090
:1002F000EDE7F2E0A089B18982E08C93A485B58511
:100300001C92A685B78587E68C93108EA489B58943
:1003100086E08C93A289B3898C9180618C93A289A9
:10032000B3898C9188608C93A289B3898C91806801
:100330008C930288F389E02D80818F7D80830895DE
:10034000CF92DF92EF92FF920F931F93CF93DF93A1
:10035000C0E0D0E001E010E060E070E0FC01EC0FF4
:10036000FD1F249130E0062E02C0359527950A9492
:10037000E2F720FF68C04091B5035091B603209189
:10038000B3033091B40337FD5EC0A091A603B091D2
:10039000A7032A173B070CF056C0460F571F57FDFF
:1003A00052C0E090A803F090A9034E155F050CF031
:1003B0004AC06A01D594C794D594C794D594C7947C
:1003C000CA9E7001CB9EF00CDA9EF00C11242E0D0B
:1003D0003F1DA091AE03B091AF03A20FB31FFC90DD
:1003E000E090B20347705527680102C0CC0CDD1CB9
:1003F0004A95E2F7A601EE2011F04F2902C0409580
:100400004F214C93A091AE03B091AF03A20FB31F45
:100410004C914F15C1F0A901A3E055954795AA95B8
:10042000E1F7A091B003B091B103A40FB51F2770FD
:100430003327A80102C0440F551F2A95E2F79A01FD
:100440003C91232B2C936F5F7F4F6830710509F02F
:1004500088CF2091B3033091B4032F5F3F4F309387
:10046000B4032093B3032196C530D10509F074CFAE
:10047000DF91CF911F910F91FF90EF90DF90CF9080
:10048000089590EE980F903618F08EEF90E00CC023
:10049000282F30E02052310945E0429FC001439FA0
:1004A000900D112488549F4F0E94A0018091B303A6
:1004B0009091B40301969093B4038093B30308958D
:1004C000CF92DF92EF92FF920F931F93CF93DF9320
:1004D0006C017A018B01C0E0D0E0CE15DF0589F018
:1004E000D8016D918D01D601ED91FC910190F081C3
:1004F000E02DC6010995892B11F47E0102C02196D9
:10050000ECCFC701DF91CF911F910F91FF90EF903A
:10051000DF90CF900895FC01918D828D981761F046
:10052000828DDF01A80FB11D5D968C91928D9F5F2A
:100530009F77928F90E008958FEF9FEF0895FC01D1
:10054000918D828D981731F0828DE80FF11D858D88
:1005500090E008958FEF9FEF0895FC01918D228D1B
:10056000892F90E080589F4F821B91098F779927A0
:1005700008958DE792E00E94AD0221E0892B09F4F5
:1005800020E0822F0895FC01848DDF01A80FB11DAA
:10059000A356BF4F2C91848D90E001968F779927B9
:1005A000848FA689B7892C93A089B1898C918064A6
:1005B0008C93938D848D981306C00288F389E02D67
:1005C00080818F7D80830895EF92FF920F931F9318
:1005D000CF93DF93EC0181E0888F9B8D8C8D9813F6
:1005E00005C0E889F989808185FD24C0F62E0B8D30
:1005F00010E00F5F1F4F0F771127E02E8C8DE81250
:100600000CC00FB607FCFACFE889F989808185FF15
:10061000F5CFCE010E94C302F1CF8B8DFE01E80F12
:10062000F11DE356FF4FF0820B8FEA89FB89808131
:10063000806207C0EE89FF896083E889F98980813B
:100640008064808381E090E0DF91CF911F910F91D2
:10065000FF90EF900895CF93DF93EC01888D88236E
:10066000C9F0EA89FB89808185FD05C0A889B9891F
:100670008C9186FD0FC00FB607FCF5CF808185FFFA
:10068000F2CFA889B9898C9185FFEDCFCE010E9468
:10069000C302E7CFDF91CF91089580E090E0892BEE
:1006A00029F00E94B90281110C940000089590E095
:1006B000FC01EC55FF4F3491FC01E057FF4F2491B2
:1006C000FC01E458FF4FE491EE2309F43BC03323CF
:1006D00039F1333091F038F43130A9F0323001F58E
:1006E00084B58F7D12C0373091F03830A1F03430AE
:1006F000B9F4809180008F7D03C0809180008F7756
:10070000809380000DC084B58F7784BD09C080912F
:10071000B0008F7703C08091B0008F7D8093B000D0
:10072000F0E0EE0FFF1FEE58FF4FA591B4918FB789
:10073000F894EC91611103C020952E2301C02E2B5B
:100740002C938FBF0895811107C061E080919D03B4
:100750000E94570360E006C060E080919D030E9404
:10076000570361E080919E030C9457031F93CF932E
:10077000DF93162FCAE9D3E0682F88810E945703C0
:10078000612F70E02BB1CB01880F991F880F991F43
:10079000922F9370892B8BB985B146E0759567953B
:1007A0004A95E1F78C7F682B65B961E08A810E94E8
:1007B000570360E08A81DF91CF911F910C9457031A
:1007C000CF93C62F8F73682F606480E00E94B603BA
:1007D0006C2F6770686B80E0CF910C94B603CF9359
:1007E000DF9390E0FC01E057FF4F2491FC01E458B7
:1007F000FF4F8491882361F190E0880F991FFC01DD
:10080000E859FF4FC591D491FC01EE58FF4FA591D7
:10081000B491611109C09FB7F89488812095822313
:100820008883EC912E230BC0623061F49FB7F8945B
:100830003881822F809583238883EC912E2B2C93F3
:100840009FBF06C08FB7F894E8812E2B28838FBFF7
:10085000DF91CF9108953FB7F89480911D01909159
:100860001E01A0911F01B091200126B5A89B05C0D3
:100870002F3F19F00196A11DB11D3FBFBA2FA92F1F
:10088000982F8827820F911DA11DB11DBC01CD019C
:1008900042E0660F771F881F991F4A95D1F7089588
:1008A0000E94400A009711F00E94A8090895EF9253
:1008B000FF920F931F93CF93DF93EC017B018A018B
:1008C000888599850E9452048A859B850E945204DE
:1008D000F982E8821B830A83C801079697FD079671
:1008E0009C0143E0359527954A95E1F7E29EC001CA
:1008F000E39E900DF29E900D11249F838E838C01B8
:10090000095F1F4F17FF02C0095F1F4F23E01595B6
:1009100007952A95E1F71D830C831816190624F410
:100920000E94130999878887101611062CF4C801B4
:100930000E9413099B878A8780E090E02E813F8187
:10094000821793073CF4E885F985E80FF91F1082B8
:100950000196F4CF80E090E02C813D8182179307CF
:100960003CF4EA85FB85E80FF91F10820196F4CF6D
:10097000DF91CF911F910F91FF90EF9008951F92FB
:100980000F920FB60F9211242F933F934F935F93C3
:100990006F937F938F939F93AF93BF93EF93FF9347
:1009A0008DE792E00E94C302FF91EF91BF91AF915A
:1009B0009F918F917F916F915F914F913F912F9177
:1009C0000F900FBE0F901F9018951F920F920FB6A9
:1009D0000F9211242F938F939F93EF93FF93E091A6
:1009E0008D02F0918E028081E0919302F091940249
:1009F00082FD12C09081809196028F5F8F77209147
:100A00009702821751F0E0919602F0E0E358FD4F13
:100A1000958F8093960201C08081FF91EF919F9105
:100A20008F912F910F900FBE0F901F9018951F92CE
:100A30000F920FB60F9211242F933F938F939F9392
:100A4000AF93BF938091190190911A01A0911B015E
:100A5000B0911C013091180123E0230F2D3720F4B1
:100A60000196A11DB11D05C026E8230F0296A11D08
:100A7000B11D209318018093190190931A01A0933E
:100A80001B01B0931C0180911D0190911E01A0914A
:100A90001F01B09120010196A11DB11D80931D0180
:100AA00090931E01A0931F01B0932001BF91AF91BD
:100AB0009F918F913F912F910F900FBE0F901F909C
:100AC0001895EDE7F2E01382128288EE93E0A0E041
:100AD000B0E084839583A683B7838BE091E0918314
:100AE000808385EC90E09587848784EC90E09787FD
:100AF000868780EC90E0918B808B81EC90E0938BEB
:100B0000828B82EC90E0958B848B86EC90E0978BC7
:100B1000868B118E128E138E148EECEBF3E081E037
:100B200090E0938382831482E7EBF3E093838283E4
:100B30001482EAE9F3E0118A108A138A128A158A6C
:100B4000148A178A168A808F128E118E148E138E35
:100B500040E050E060E070E086EA93E00C945704D7
:100B6000789484B5826084BD84B5816084BD85B588
:100B7000826085BD85B5816085BD80916E00816094
:100B800080936E001092810080918100826080933A
:100B9000810080918100816080938100809180003C
:100BA0008160809380008091B10084608093B10067
:100BB0008091B00081608093B00080917A00846061
:100BC00080937A0080917A00826080937A0080918D
:100BD0007A00816080937A0080917A0080688093A7
:100BE0007A001092C1008CE080939A038BE080938E
:100BF0009B038AE080939C0381E180939D0380E1C5
:100C000080939E038FE080939F0380E88093A003EE
:100C100080E48093A10361E08CE00E94EF0361E037
:100C200080919B030E94EF0361E080919C030E94EE
:100C3000EF0361E080919D030E94EF0361E08091EA
:100C40009E030E94EF0361E080919F030E94EF03E7
:100C50008AB18C6F8AB984B1836084B960E0809175
:100C60009A030E94570360E080919B030E94570300
:100C700060E080919C030E94570360E080919D0397
:100C80000E94570360E080919E030E94570361E039
:100C900080919F030E9457030E942B044B015C012B
:100CA000BEE1CB2ED12CE12CF12C0E942B04DC01D7
:100CB000CB0188199909AA09BB09883E9340A1056F
:100CC000B10558F021E0C21AD108E108F10888EE18
:100CD000880E83E0981EA11CB11CC114D104E1044C
:100CE000F10419F761E080919D030E94570360E0D1
:100CF00080919E030E94570360EC80E00E94B6033F
:100D00006FE380E00E94B60381E00E94A30360ECE1
:100D100080E00E94B6036FE380E00E94B603D1E05A
:100D200001E08D2F80270E94A303C0E06C2F80E09C
:100D30000E94E00310E460E081E00E94B6031150DD
:100D4000D1F7CF5FC83091F7DD2311F0D0E0E9CFC4
:100D500060E080E00E94E00340E450E060E870E082
:100D600086EA93E00E9457048091AE039091AF030E
:100D70009093A3038093A2038091B0039091B10359
:100D80009093A5038093A4038EE0809321018DE0CE
:100D90008093220161E08EE00E94EF0360E08DE02D
:100DA0000E94EF0360E08EE00E9457030E947801EA
:100DB00024E02093BC032093BD0381E080930001D5
:100DC0008091BE039091BF03F4E0880F991FFA95BC
:100DD000E1F701979093BF038093BE0385E0809372
:100DE000B7032093B8038091B9039091BA03A4E0AC
:100DF000880F991FAA95E1F701979093BA03809302
:100E0000B90320E030E060E280E090E0AC01420F06
:100E1000531FFA01EB52FE4F6083FA01E35DFE4F70
:100E2000608301968531910589F72B5E3F4F283A03
:100E3000310551F70E947801C5E1D0E08824839400
:100E4000912C8DE792E00E948B028C0165E1F62ED9
:100E500070E2E72E0F3F8FEF180709F45BC0209177
:100E60002601309127010A3019F4C901459603C0C3
:100E70000D3071F4C901BE010E94E508F69EC00163
:100E8000F79E900D1124909327018093260114C0A2
:100E9000C901BE010E94E508F69EF001F79EF00D23
:100EA0001124E80FF91FEB52FE4F00832F5F3F4FD5
:100EB00030932701209326018091260190912701EC
:100EC000883A91050CF183E990E090932701809393
:100ED00026012AEE31E080E090E0F901E80FF91FE9
:100EE000408175974083019685319105B1F72B5E5E
:100EF0003F4F92E02D37390771F7E8E6F2E0E192D3
:100F000022E0ED37F207D9F78DE792E00E948B02DD
:100F10008C01A0CF1092B4031092B3031092B603C9
:100F20001092B5034DE2E42E41E0F42E55EDC52EAE
:100F300051E0D52E7724739400E010E0F601E00F25
:100F4000F11F60805701A00EB11EF5018081681667
:100F5000A9F01092B2030E9441028091B3039091D4
:100F6000B40306979093B4038093B3037092B203D3
:100F7000862D0E944102F501608209C08091B30371
:100F80009091B40306969093B4038093B3030F5FDC
:100F90001F4F0531110591F68091B5039091B6036D
:100FA00008969093B6038093B5031092B403109201
:100FB000B303F5E1EF0EF11C25E1C20ED11C85ED66
:100FC000E81681E0F80609F0B7CF0E942B04C09024
:100FD0002901D0902A01E0902B01F0902C01DC0136
:100FE000CB018C199D09AE09BF098132914AA740F6
:100FF000B10538F40E942B046C157D058E059F0504
:10100000C0F5F0902801FF2009F493C081E080939F
:10101000B2030091260110912701C801BE010E9470
:10102000E50846E0489F9001499F300D1124309318
:10103000B4032093B30333E0660F771F3A95E1F7CB
:101040007093B6036093B5038FE50E94410210933D
:1010500025010093240181E08F25809328010E94BF
:101060002B046093290170932A0180932B019093A4
:101070002C01C12CD12C10E0812F81700E94A30380
:10108000312CA12CB12C7501EC0CFD1C00E02701CA
:1010900083E0559447948A95E1F73701F7E06F2292
:1010A0007724E091A403F091A503E40DF51D2081C0
:1010B00030E0062C02C0359527950A94E2F720FF10
:1010C0001EC0632D802F0E94E003E091A203F091E7
:1010D000A303EE0DFF1D608181E00E94B6038091A5
:1010E000A4039091A503FC01E40DF51DC40101C00A
:1010F000880F6A94EAF780959081892380832FEF87
:10110000E21AF20A0F5F003411F680E8A80EB11C53
:10111000339498E03912B7CF1F5F1170E0E4CE0E20
:10112000D11CF0E8CF16D10409F0A6CF0E944D03E0
:1011300088CE1092B2038091240190912501BE01C6
:101140000E94E5086B018C0126E0209FC001219FD1
:10115000900D11249093B4038093B303CB0123E04B
:10116000880F991F2A95E1F79093B6038093B503F2
:101170008FE50E9441022091B3033091B4032650C1
:1011800031093093B4032093B30381E08093B20319
:1011900085E18C9DF0018D9DF00D11240E0F1F1F18
:1011A000F801EB52FE4F80810E94410254CFCF9351
:1011B000DF93CAE9D3E08C899D890E9452048E890D
:1011C0009F89DF91CF910C94520497FB072E16F460
:1011D000009407D077FD09D00E94F90807FC05D0DC
:1011E0003EF4909581959F4F0895709561957F4F3E
:1011F0000895AA1BBB1B51E107C0AA1FBB1FA6175E
:10120000B70710F0A61BB70B881F991F5A95A9F7AF
:1012100080959095BC01CD010895EE0FFF1F0590BC
:10122000F491E02D0994CF93DF938230910510F46F
:1012300082E090E0E091C303F091C40320E030E04D
:10124000C0E0D0E0309711F1408151814817590733
:10125000C0F04817590761F482819381209719F0F3
:101260009B838A832BC09093C4038093C30326C0BF
:101270002115310519F04217530718F49A01BE01E0
:10128000DF01EF010280F381E02DDCCF2115310574
:1012900009F1281B390B2430310590F412968D91F9
:1012A0009C9113976115710521F0FB019383828353
:1012B00004C09093C4038093C303FD01329644C0DD
:1012C000FD01E20FF31F81939193225031092D9379
:1012D0003C933AC02091C1033091C203232B41F4C7
:1012E00020910301309104013093C2032093C10384
:1012F00020910101309102012115310541F42DB7F2
:101300003EB74091050150910601241B350BE09139
:10131000C103F091C203E217F307A0F42E1B3F0BA9
:101320002817390778F0AC014E5F5F4F2417350757
:1013300048F04E0F5F1F5093C2034093C103819347
:10134000919302C0E0E0F0E0CF01DF91CF910895EA
:101350000F931F93CF93DF93009709F48CC0FC0188
:101360003297138212820091C3031091C4030115B6
:10137000110581F420813181820F931F2091C103D7
:101380003091C2032817390779F5F093C203E0932F
:10139000C10371C0D80140E050E0AE17BF0750F460
:1013A00012962D913C911397AD012115310509F14C
:1013B000D901F3CF9D01DA013383228360817181EA
:1013C000860F971F8217930769F4EC0128813981F2
:1013D000260F371F2E5F3F4F318320838A819B81E9
:1013E00093838283452B29F4F093C403E093C303D2
:1013F00042C01396FC93EE931297ED0149915991D7
:101400009E01240F351FE217F30771F4808191814B
:10141000840F951F029611969C938E9382819381DF
:1014200013969C938E931297E0E0F0E0D801129609
:101430008D919C911397009719F0F8018C01F6CFCC
:101440008D919C9198012E5F3F4F820F931F2091A9
:10145000C1033091C2032817390769F4309729F482
:101460001092C4031092C30302C01382128210931D
:10147000C2030093C103DF91CF911F910F91089593
:1014800081E090E0F8940C94450A11E0CDE4D1E0BD
:1014900004C0FE010E940D092196CE34D107C9F780
:0414A000F894FFCFEE
:1014A400010000C503800000000000E4026002ADFA
:0814B400028B029F022B0300D2
:00000001FF
